:020000041000EA
:10000000E8590020D980001013EC0010C5800010C2
:10001000C5800010C5800010C580001000000000E1
:10002000000000000000000000000000C58100107A
:10003000C5800010000000006D8100108195001047
:1000400021830010218300102183001021830010E0
:1000500021830010218300102183001021830010D0
:1000600021830010218300102183001021830010C0
:1000700021830010218300102183001021830010B0
:1000800021830010218300102183001021830010A0
:100090002183001021830010218300102183001090
:1000A0002183001021830010218300102183001080
:1000B0002183001021830010218300102183001070
:1000C0002183001021830010218300102183001060
:1000D0002183001021830010218300102183001050
:1000E0002183001021830010218300102183001040
:1000F0002183001021830010218300102183001030
:10010000218300102183001021830010218300101F
:10011000218300102183001021830010218300100F
:1001200021830010218300102183001021830010FF
:1001300021830010218300102183001021830010EF
:1001400021830010218300102183001021830010DF
:1001500021830010218300102183001021830010CF
:1001600021830010218300102183001021830010BF
:1001700021830010218300102183001021830010AF
:10018000218300102183001021830010218300109F
:10019000218300102183001021830010218300108F
:1001A000218300102183001021830010218300107F
:1001B000218300102183001021830010218300106F
:1001C000218300102183001021830010218300105F
:1001D000218300102183001021830010218300104F
:1001E000218300102183001021830010218300103F
:1001F00081F0004102E000BF83F0004330B54FEAD8
:1002000041044FEA430594EA050F08BF90EA020F44
:100210001FBF54EA000C55EA020C7FEA645C7FEAD7
:10022000655C00F0E2804FEA5454D4EB5555B8BFFA
:100230006D420CDD2C4480EA020281EA030382EA6B
:10024000000083EA010180EA020281EA0303362DFD
:1002500088BF30BD11F0004F4FEA01314FF4801CD0
:100260004CEA113102D0404261EB410113F0004FE2
:100270004FEA03334CEA133302D0524263EB430399
:1002800094EA050F00F0A780A4F10104D5F1200E37
:100290000DDB02FA0EFC22FA05F2801841F1000192
:1002A00003FA0EF2801843FA05F359410EE0A5F166
:1002B00020050EF1200E012A03FA0EFC28BF4CF097
:1002C000020C43FA05F3C01851EBE37101F000454D
:1002D00007D54FF0000EDCF1000C7EEB00006EEB5A
:1002E0000101B1F5801F1BD3B1F5001F0CD34908E4
:1002F0005FEA30004FEA3C0C04F101044FEA44523B
:1003000012F5800F80F09A80BCF1004F08BF5FEAC1
:10031000500C50F1000041EB045141EA050130BDA1
:100320005FEA4C0C404141EB0101013C28BFB1F5B3
:10033000801FE9D291F0000F04BF01460020B1FAFE
:1003400081F308BF2033A3F10B03B3F120020CDAD1
:100350000C3208DD02F1140CC2F10C0201FA0CF0AF
:1003600021FA02F10CE002F11402D8BFC2F1200C14
:1003700001FA02F120FA0CFCDCBF41EA0C019040CA
:10038000E41AA2BF01EB0451294330BD6FEA040413
:100390001F3C1CDA0C340EDC04F11404C4F12002FE
:1003A00020FA04F001FA02F340EA030021FA04F310
:1003B00045EA030130BDC4F10C04C4F1200220FA67
:1003C00002F001FA04F340EA0300294630BD21FAA5
:1003D00004F0294630BD94F0000F83F4801306BF6B
:1003E00081F480110134013D4EE77FEA645C18BF5F
:1003F0007FEA655C29D094EA050F08BF90EA020FF6
:1004000005D054EA000C04BF1946104630BD91EAED
:10041000030F1EBF0021002030BD5FEA545C05D1F0
:100420004000494128BF41F0004130BD14F580042F
:100430003CBF01F5801130BD01F0004545F0FE41A3
:1004400041F470014FF0000030BD7FEA645C1ABFD8
:10045000194610467FEA655C1CBF0B46024650EA0F
:10046000013406BF52EA033591EA030F41F400213B
:1004700030BD00BF90F0000F04BF0021704730B5C1
:100480004FF4806404F132044FF000054FF0000196
:1004900050E700BF90F0000F04BF0021704730B557
:1004A0004FF4806404F1320410F0004548BF40422C
:1004B0004FF000013EE700BF42004FEAE2014FEA81
:1004C00031014FEA02701FBF12F07F4393F07F4F5C
:1004D00081F06051704732F07F4208BF704793F05F
:1004E0007F4F04BF41F40021704730B54FF4607472
:1004F00001F0004521F000411CE700BF50EA010275
:1005000008BF704730B54FF000050AE050EA01021D
:1005100008BF704730B511F0004502D5404261EB8D
:1005200041014FF4806404F132045FEA915C3FF4CE
:10053000D8AE4FF003025FEADC0C18BF03325FEA6B
:10054000DC0C18BF033202EBDC02C2F1200300FA1C
:1005500003FC20FA02F001FA03FE40EA0E0021FA41
:1005600002F11444BDE600BF70B54FF0FF0C4CF42F
:10057000E06C1CEA11541DBF1CEA135594EA0C0FE1
:1005800095EA0C0F00F0DEF82C4481EA030621EA1C
:100590004C5123EA4C5350EA013518BF52EA033557
:1005A00041F4801143F4801338D0A0FB02CE4FF009
:1005B0000005E1FB02E506F00042E0FB03E54FF039
:1005C0000006E1FB03569CF0000F18BF4EF0010E31
:1005D000A4F1FF04B6F5007F64F5407404D25FEA2D
:1005E0004E0E6D4146EB060642EAC62141EA5551E0
:1005F0004FEAC52040EA5E504FEACE2EB4F1FD0C22
:1006000088BFBCF5E06F1ED8BEF1004F08BF5FEA9F
:10061000500E50F1000041EB045170BD06F0004651
:1006200046EA010140EA020081EA0301B4EB5C04FE
:10063000C2BFD4EB0C0541EA045170BD41F48011F6
:100640004FF0000E013C00F3AB8014F1360FDEBF1B
:10065000002001F0004170BDC4F10004203C35DAF7
:100660000C341BDC04F11404C4F1200500FA05F37A
:1006700020FA04F001FA05F240EA020001F000421B
:1006800021F0004110EBD37021FA04F642EB060191
:100690005EEA430E08BF20EAD37070BDC4F10C04BB
:1006A000C4F1200500FA04F320FA05F001FA04F27F
:1006B00040EA020001F0004110EBD37041F100016B
:1006C0005EEA430E08BF20EAD37070BDC4F1200576
:1006D00000FA05F24EEA020E20FA04F301FA05F2DE
:1006E00043EA020321FA04F001F0004121FA04F286
:1006F00020EA020000EBD3705EEA430E08BF20EA56
:10070000D37070BD94F0000F0FD101F0004640008F
:1007100041EB010111F4801F08BF013CF7D041EA11
:10072000060195F0000F18BF704703F00046520015
:1007300043EB030313F4801F08BF013DF7D043EAE6
:100740000603704794EA0C0F0CEA135518BF95EA9C
:100750000C0F0CD050EA410618BF52EA4306D1D123
:1007600081EA030101F000414FF0000070BD50EA42
:10077000410606BF1046194652EA430619D094EACC
:100780000C0F02D150EA013613D195EA0C0F05D1B6
:1007900052EA03361CBF104619460AD181EA03010A
:1007A00001F0004141F0FE4141F470014FF00000C2
:1007B00070BD41F0FE4141F4780170BD70B54FF05D
:1007C000FF0C4CF4E06C1CEA11541DBF1CEA1355DD
:1007D00094EA0C0F95EA0C0F00F0A7F8A4EB0504BF
:1007E00081EA030E52EA03354FEA013100F08880B6
:1007F0004FEA03334FF0805545EA131343EA12637F
:100800004FEA022245EA111545EA10654FEA002633
:100810000EF000419D4208BF964244F1FD0404F5EC
:10082000407402D25B084FEA3202B61A65EB030548
:100830005B084FEA32024FF480104FF4002CB6EB05
:10084000020E75EB030E22BFB61A754640EA0C0085
:100850005B084FEA3202B6EB020E75EB030E22BFC5
:10086000B61A754640EA5C005B084FEA3202B6EB06
:10087000020E75EB030E22BFB61A754640EA9C00C5
:100880005B084FEA3202B6EB020E75EB030E22BF95
:10089000B61A754640EADC0055EA060E18D04FEA53
:1008A000051545EA16754FEA06164FEAC30343EAF3
:1008B00052734FEAC2025FEA1C1CC0D111F4801FC0
:1008C0000BD141EA00014FF000004FF0004CB6E7B9
:1008D00011F4801F04BF01430020B4F1FD0C88BF58
:1008E000BCF5E06F3FF6AFAEB5EB030C04BFB6EB63
:1008F000020C5FEA500C50F1000041EB045170BD56
:100900000EF0004E4EEA113114EB5C04C2BFD4EB82
:100910000C0541EA045170BD41F480114FF0000E06
:10092000013C90E645EA060E8DE60CEA135594EA82
:100930000C0F08BF95EA0C0F3FF43BAF94EA0C0F85
:100940000AD150EA01347FF434AF95EA0C0F7FF4FA
:1009500025AF104619462CE795EA0C0F06D152EA4E
:1009600003353FF4FDAE1046194622E750EA410632
:1009700018BF52EA43067FF4C5AE50EA41047FF443
:100980000DAF52EA43057FF4EBAE12E74A0011D2F5
:1009900012F5001211D20DD56FF47873B3EB6252D9
:1009A0000ED44FEAC12343F0004343EA505323FAE5
:1009B00002F070474FF00000704750EA013002D15A
:1009C0004FF0FF3070474FF00000704780F000405C
:1009D00002E000BF81F0004142001FBF5FEA410317
:1009E00092EA030F7FEA226C7FEA236C6AD04FEA17
:1009F0001262D2EB1363C1BFD2184140484041405C
:100A0000B8BF5B42192B88BF704710F0004F40F40D
:100A1000000020F07F4018BF404211F0004F41F429
:100A2000000121F07F4118BF494292EA030F3FD0F5
:100A3000A2F1010241FA03FC10EB0C00C3F1200308
:100A400001FA03F100F0004302D5494260EB400097
:100A5000B0F5000F13D3B0F1807F06D340084FEA02
:100A6000310102F10102FE2A51D2B1F1004F40EBF7
:100A7000C25008BF20F0010040EA0300704749005F
:100A800040EB0000013A28BFB0F5000FEDD2B0FAFC
:100A900080FCACF1080CB2EB0C0200FA0CF0AABF1F
:100AA00000EBC25052421843BCBFD04018437047BD
:100AB00092F0000F81F4000106BF80F400000132C3
:100AC000013BB5E74FEA41037FEA226C18BF7FEA9A
:100AD000236C21D092EA030F04D092F0000F08BFDC
:100AE0000846704790EA010F1CBF0020704712F0C3
:100AF0007F4F04D1400028BF40F00040704712F102
:100B000000723CBF00F50000704700F0004343F066
:100B1000FE4040F4000070477FEA226216BF08469C
:100B20007FEA23630146420206BF5FEA412390EA5F
:100B3000010F40F4800070474FF0000304E000BF55
:100B400010F0004348BF40425FEA000C08BF704706
:100B500043F0964301464FF000001CE050EA0102CA
:100B600008BF70474FF000030AE000BF50EA0102DF
:100B700008BF704711F0004302D5404261EB4101CC
:100B80005FEA010C02BF84460146002043F0B643F1
:100B900008BFA3F18053A3F50003BCFA8CF2083A16
:100BA000A3EBC25310DB01FA02FC634400FA02FC1F
:100BB000C2F12002BCF1004F20FA02F243EB020026
:100BC00008BF20F00100704702F1200201FA02FC88
:100BD000C2F1200250EA4C0021FA02F243EB02007B
:100BE00008BF20EADC7070474FF0FF0C1CEAD052BF
:100BF0001EBF1CEAD15392EA0C0F93EA0C0F6FD080
:100C00001A4480EA010C400218BF5FEA41211ED05D
:100C10004FF0006343EA501043EA5111A0FB013149
:100C20000CF00040B1F5000F3EBF490041EAD3711E
:100C30005B0040EA010062F17F02FD2A1DD8B3F19A
:100C4000004F40EBC25008BF20F00100704790F009
:100C5000000F0CF0004C08BF49024CEA502040EA5B
:100C600051207F3AC2BFD2F1FF0340EAC250704721
:100C700040F400004FF00003013A5DDC12F1190F5F
:100C8000DCBF00F000407047C2F10002410021FAD1
:100C900002F1C2F1200200FA02FC5FEA310040F1E9
:100CA000000053EA4C0308BF20EADC70704792F062
:100CB000000F00F0004C02BF400010F4000F013A9A
:100CC000F9D040EA0C0093F0000F01F0004C02BF95
:100CD000490011F4000F013BF9D041EA0C018FE704
:100CE0000CEAD15392EA0C0F18BF93EA0C0F0AD00A
:100CF00030F0004C18BF31F0004CD8D180EA010030
:100D000000F00040704790F0000F17BF90F0004FC8
:100D1000084691F0000F91F0004F14D092EA0C0FAA
:100D200001D142020FD193EA0C0F03D14B0218BF3D
:100D3000084608D180EA010000F0004040F0FE4083
:100D400040F40000704740F0FE4040F4400070471F
:100D50004FF0FF0C1CEAD0521EBF1CEAD15392EA9E
:100D60000C0F93EA0C0F69D0A2EB030280EA010C8E
:100D700049024FEA402037D04FF0805343EA111127
:100D800043EA10130CF000408B4238BF5B0042F185
:100D90007D024FF4000C8B4224BF5B1A40EA0C002A
:100DA000B3EB510F24BFA3EB510340EA5C00B3EB5C
:100DB000910F24BFA3EB910340EA9C00B3EBD10F4A
:100DC00024BFA3EBD10340EADC001B0118BF5FEA9C
:100DD0001C1CE0D1FD2A3FF650AF8B4240EBC250C5
:100DE00008BF20F0010070470CF0004C4CEA502086
:100DF0007F32C2BFD2F1FF0340EAC250704740F4D5
:100E000000004FF00003013A37E792F0000F00F0C6
:100E1000004C02BF400010F4000F013AF9D040EA44
:100E20000C0093F0000F01F0004C02BF490011F4D8
:100E3000000F013BF9D041EA0C0195E70CEAD153D0
:100E400092EA0C0F08D142027FF47DAF93EA0C0FB7
:100E50007FF470AF084676E793EA0C0F04D14B029B
:100E60003FF44CAF08466EE730F0004C18BF31F04D
:100E7000004CCAD130F000427FF45CAF31F0004347
:100E80007FF43CAF5FE700BF7BB972B90029BEBFFA
:100E900000204FF0004106E008BF00281CBF6FF0A3
:100EA00000414FF0FF3000F057B8ADF1080C6DE98C
:100EB00004CE002909DB002B1ADB00F069F8DDF80D
:100EC00004E0DDE9022304B07047404261EB4101D8
:100ED000002B1BDB00F05CF8DDF804E0DDE9022309
:100EE00004B0404261EB4101524263EB430370475F
:100EF000524263EB430300F04BF8DDF804E0DDE918
:100F0000022304B0404261EB41017047524263EB5F
:100F1000430300F03DF8DDF804E0DDE9022304B00E
:100F2000524263EB4303704753B94AB9002908BFE3
:100F300000281CBF4FF0FF314FF0FF3000F00CB81D
:100F4000ADF1080C6DE904CE00F022F8DDF804E004
:100F5000DDE9022304B07047704700BF10F8012B91
:100F600011F8013B012A28BF9A42F7D0D01A7047E6
:100F7000034611F8012B03F8012B002AF9D1704721
:100F8000034613F8012B002AFBD1181A01387047C9
:100F90002DE9F04786468C460846089E154674465D
:100FA0001946002B40F0C2808542B2FA82F245D940
:100FB0004AB1C2F1200300FA02FC2EFA03F3954075
:100FC00043EA0C0C94404FEA154EA8B2BCFBFEF865
:100FD000230C0EFB18CC08FB00F943EA0C4399459F
:100FE00028D9EB1808F1FF3704D2994502D9A8F1A6
:100FF00002072B44A3EB0903A4B2B3FBFEFC0EFBD8
:101000001C330CFB00F044EA0344A04214D92C1911
:101010000CF1FF3304D2A04202D9ACF102032C44FC
:10102000241A43EA07401EB1D440002334607360A1
:10103000BDE8F0874746DDE76346F1E792BB431B17
:1010400001214FEA154EAFB2B3FBFEFC200C0EFBA4
:101050001C330CFB07F840EA0343984562D9EB18B0
:101060000CF1FF3004D2984502D9ACF102002B44B8
:10107000A3EB0803A4B2B3FBFEFC0EFB1C330CFB7A
:1010800007F744EA0344A7424ED92C190CF1FF3369
:1010900004D2A74202D9ACF102032C44E41B43EA78
:1010A0000040C0E7C2F1200320FA03F195409040D0
:1010B0002EFA03F303434FEA154EAFB2B1FBFEFC29
:1010C0000EFB1C10190C0CFB07F841EA0041884587
:1010D00004FA02F422D969180CF1FF3004D28845D1
:1010E00002D9ACF102002944A1EB08019BB2B1FB8B
:1010F000FEFC0EFB1C110CFB07F743EA01439F4269
:101100000ED9EB180CF1FF3104D29F4202D9ACF199
:1011100002012B44DB1B41EA004192E76046E3E712
:101120006146F7E76046A3E76346B7E7834206D91F
:1011300016B9002108467BE7C6E900E0F9E7B3FAF3
:1011400083F78FB9834201D3724508D8BEEB0204FE
:1011500060EB030301209C461EB9002168E7384676
:10116000FAE7C6E9004CF8E7C7F1200CBB4022FAC9
:101170000CF41C432EFA0CF120FA0CF3B840014396
:101180004FEA14490EFA07F5B3FBF9F81FFA84FE8B
:1011900009FB18300B0C08FB0EFA43EA00439A4592
:1011A00002FA07F240D9E31808F1FF3004D29A4559
:1011B00002D9A8F102002344A3EB0A0389B2B3FBCE
:1011C000F9F809FB183308FB0EFE41EA03418E458E
:1011D0002CD9611808F1FF3304D28E4502D9A8F149
:1011E0000203214443EA0040A0FB0298A1EB0E0158
:1011F0004145CE46434602D306D14D4504D2B9EB14
:10120000020E68EB04030138002EA6D0B5EB0E02E7
:1012100061EB030101FA0CFC22FA07F34CEA030329
:10122000F940C6E9003198E74046C5E74346D9E7AB
:101230002DE9F047044688B0884617460EF0A7FE11
:101240000A220023FFF770FEB8F1010F06460D4693
:1012500007D102460B46204627490BF0FBFF002032
:1012600011E07F6825483946FFF778FE70B12448C1
:101270003946FFF773FE48B1204622493A460CF042
:1012800005F86FF0040008B0BDE8F0873046294645
:1012900017A3D3E90023FFF7F7FD06460D461046D6
:1012A0001946194A0023FFF7EFFD80460F46104606
:1012B00019464EF660220023FFF7E6FD8246894676
:1012C000104619464FF47A720023FFF7DDFDCDE991
:1012D00002A9CDE90623CDE90401CDE900870B4938
:1012E00032462B4620460BF0B5FFB8E7AFF300803F
:1012F000005C260500000000CB6A0110DC6A0110CA
:10130000DF6A0110E86A011080EE3600006B011000
:1013100098B503460B480268520700AF0FD56C46DC
:1013200088B06A46084951610849C2E90613042396
:1013300042F8103F4FF404510AF0DDFFA5460020AB
:10134000BD4698BD14010020301601100233011073
:1013500070B5054686B00C46174E30460EF05AFC66
:1013600030B302AB039303238DF809400493240A9E
:1013700002238DF808508DF80A408DF814309DF83E
:101380001430B26843F002038DF8143094683623A9
:10139000012203A93046A04760B1084C23685B07CF
:1013A00006D00090064A2B46012120460AF099FFFC
:1013B0004FF0FF3006B070BD280501101401002069
:1013C000481601102DE9F047A0F5C0736F2B234E8E
:1013D00000AF044688460ED93368590705D0034646
:1013E0001F4A012130460AF082FF6FF004052846AB
:1013F000BD46BDE8F0875FFA80FA5046FFF7A8FFC8
:101400003368054698B15A07F1D0E8468AB06A4673
:10141000144BC2E9053A0523C2E907404FF42151B4
:1014200042F8103F30460AF066FFC546DFE75B072B
:10143000DDD5E9468AB06A460B4B53610B4BC2E9D6
:1014400006340623C2E908A84FF4445142F8103F7D
:1014500030460AF050FFCD46C9E700BF1401002016
:101460006C160110A5160110DA160110EA320110EF
:1014700038B5014604466020FFF76AFF054650B1C3
:10148000074803685B0704D0064A234601210AF097
:101490002EFF284638BD2046BDE83840FFF738BF4C
:1014A00014010020101701102DE9F0418AB0044604
:1014B0000D468DF808001A4E30460EF0ABFB28B3EF
:1014C00002AB049300238DF8183003AB0127079378
:1014D00002220723059708928DF824309DF82430C6
:1014E000B16813438DF82430D1F80880362304A95D
:1014F0003046C04778B10B4D2B685B0706D0009093
:10150000094A2346394628460AF0EBFE4FF0FF30E1
:101510000AB0BDE8F081BDF80C302B80F8E700BFC1
:1015200028050110140100202E1701102DE9F047A5
:10153000434C444E84B0002502AF40F2F318B91D6D
:101540006120FFF7B1FF824600286DD1236859075B
:1015500012D5E9468AB0FB8802AA3B495661C2E926
:1015600006130523C2F820804FF4245142F8103F9F
:1015700020460AF0C0FECD46B7F8069019F0020FDB
:1015800045D119F0040F4FD0236813F0060F12D085
:10159000E8468AB002AA2D4BC2E905396B1CD3611B
:1015A00003231362052342F8103F4FF422512046D3
:1015B0000AF0A1FEC546022D1BDC00216120FFF7C9
:1015C000C7FE01350146A0B96120FFF7C1FE80B911
:1015D000236803F00703022B04D91D4A0321204688
:1015E0000AF087FE64200AF089FE40F2F313984661
:1015F000A5E723685A0707D0FB880093154A1048CF
:10160000032301210AF06DFE6FF0030A0CE00A20AB
:101610000AF074FE08F1FF33B8F1000FE7D1236838
:101620005B0706D16FF0010A50460837BD46BDE89A
:10163000F087094A02484B4601210AF058FEF1E7BB
:101640001401002051170110183301107A170110EE
:10165000B3170110DB170110181801107FB5284DC2
:101660002B6803F00703022B04D9264A03212846DE
:101670000AF03FFE4AF6CD31B020FFF769FE04467E
:1016800050B12B685A0704D01F4A01211C480AF0A8
:1016900030FE204604B070BD0A200AF02FFE0DF186
:1016A0000E01B020FFF700FF044620B12B685B0756
:1016B000EFD0164AE9E72B68BDF80E6003F0070388
:1016C000022B07D9124A0E4800964AF6CD33032161
:1016D0000AF007FE2B684AF6CD32964203F0070364
:1016E00004D1022BD5D90B4A0321CFE723B10A4AF3
:1016F000034801210AF0FDFD4FF0FF34C9E700BFA8
:10170000140100204F1801106C18011092180110DC
:10171000B9180110E41801100C190110F0B55A4D58
:1017200083B02B6803F00703022B00AF04D9574A9C
:10173000032128460AF0DDFDB91D6120FFF7B4FE44
:101740002B68044650B15D0704D0514A01214E4830
:101750000AF0CFFD20460C37BD46F0BD03F007036D
:10176000022B05D9FB884B4A474803210AF0BFFDED
:101770002B685C070FD56C4688B06A46464B5361B0
:10178000464B9361032342F8103F3F484FF4C85142
:101790000AF0B1FDA54600216120FFF7D9FD0446FE
:1017A0000028D7D101200AF0A9FD21466120FFF7CA
:1017B000CFFD04460028CDD10A200AF09FFDB91DB7
:1017C0006120FFF771FE04460028C3D12A68FE8815
:1017D00002F00702022A05D9314A2B483346032179
:1017E0000AF085FD2A68F00702F0070204D4022AF5
:1017F000B0D92C4A0321AAE7022A04D92A4A22484E
:1018000003210AF076FD59216120FFF7A1FD002890
:1018100037D101200AF072FD59216120FFF798FDB0
:1018200078BB0A200AF06AFDB91D6120FFF73CFE73
:1018300038BB2B68FE8803F00703022B05D91B4A2F
:101840001148334603210AF052FD2A68F10702F0DD
:10185000070204D4022A7FF67DAF154ACAE76AB1AF
:10186000144A094801210AF044FD2B685B0705D0A2
:10187000114A0548334601210AF039FD4FF0FF3483
:1018800068E7044666E700BF140100202E19011026
:101890004C1901106C190110851901102F3301101A
:1018A000B9190110E0190110121A0110501A011093
:1018B000781A0110AA1A0110DF1A01102DE9F04759
:1018C0002B4C82B0236803F00703022B00AF04D92E
:1018D000284A032120460AF00CFD274EDFF89C80A1
:1018E000DFF88C906325B91D3D20FFF7DDFD8246B2
:1018F00060B12368580704D0214A1D4801210AF02D
:10190000F8FC50460837BD46BDE8F087FB882268E2
:10191000990709D402F00702022AF2D9194A144899
:1019200003210AF0E4FCECE752070FD5EA468AB03F
:101930006A46C2E907350523C2E905684FF4245118
:1019400042F8103F48460AF0D6FCD54664200AF01B
:10195000D5FC013DC7D223685B0702D16FF0010AB5
:10196000CFE7FB88084A024801210AF0C0FCF5E7EE
:1019700014010020F61A0110471B01105133011009
:101980000D1B01102B1B0110831B011010B57B4C8C
:10199000236803F00703022B86B018D9784A032185
:1019A00020460AF0A6FC236803F00703022B0ED999
:1019B000744A032120460AF09CFC236803F00703C5
:1019C000022B04D96E4A032120460AF092FC02A998
:1019D0001820FFF769FD2368002840F0C28003F05B
:1019E0000703022B07D9BDF80830674A63485B0834
:1019F00003210AF07CFC0DF10A011020FFF754FDD1
:101A000060B9236803F00703022B07D9BDF80A3039
:101A10005E4A5A485B0803210AF069FC03A91A20B0
:101A2000FFF742FDA8B9236803F00703022B10D982
:101A3000BDF80C20514802EB82024FF47A719209F2
:101A4000B2FBF1F301FB132200920321504A0AF08A
:101A500048FC0DF10E011C20FFF726FDC8B92368D4
:101A600003F00703022B14D9BDF90E30434813EBE2
:101A7000830348BF1F3364215B1193FBF1F201FB29
:101A80001232002AB8BF524200920321414A0AF0A2
:101A900028FC04A90620FFF707FD90B9236803F08E
:101AA0000703022B0DD99DF81020BDF810303348E4
:101AB00064214A43121200921B0A374A03210AF09A
:101AC00010FC0DF112011B20FFF7EEFCC0B92368DA
:101AD00003F00703022B13D9BDF81220BDF9123011
:101AE00026486421D2B2002B01FB02F24FEA2222E7
:101AF000B8BFFF3300921B12284A03210AF0F1FB02
:101B000005A91720FFF7D0FC58B9236803F0070395
:101B1000022B06D9BDF81430214A184803210AF0D7
:101B2000E6FB0DF116010720FFF7BEFC60B9226845
:101B3000BDF8163002F00702022A1CD9194A0F48D4
:101B40001B0A03210AF0D3FB236803F00703022BCF
:101B500011D90B4A0948032106B0BDE810400AF02C
:101B6000C8BB13F0060F3FF446AF0F4A03480221EB
:101B70000AF0BFFB3FE706B010BD00BF1401002014
:101B8000BB1B0110E41B0110001C01103A1C0110CA
:101B9000551C0110731C0110921C0110B11C011086
:101BA000D11C0110E81C01101B1C01102DE9F04F85
:101BB000B24C91B0236803F00703022B02AF36D971
:101BC000AF4A032120460AF094FB236803F0070381
:101BD000022B2CD9AB4A032120460AF08AFB23684A
:101BE00003F00703022B22D9A74A032120460AF05B
:101BF00080FB236803F00703022B18D9A14A0321B5
:101C000020460AF076FB236803F00703022B0ED967
:101C10009B4A032120460AF06CFB236803F007036C
:101C2000022B04D9994A032120460AF062FB4FF4A3
:101C30007A700AF063FB236803F00703022B40F27B
:101C4000C180904A8D4803210AF053FB236803F0BA
:101C50000703022B40F2B6808D4A884803210AF020
:101C600048FB236803F00703022B40F2AB80854A50
:101C7000824803210AF03DFB236803F00703022B8F
:101C800040F2A0807023834A7C4803210AF02FFB96
:101C9000236803F00703022B40F29480784A7748C8
:101CA00003210AF026FB236803F00703022B40F20E
:101CB0008980794A714803210AF01BFB236803F0ED
:101CC0000703022B7ED94FF4A5630093734A6B4838
:101CD00041F6C81303210AF004FB236803F007034D
:101CE000022B6FD940F2FB5300936D4A634841F6D3
:101CF000E25303210AF0F5FA236803F00703022BED
:101D000060D964230093674A5C4803210AF0E9FA2A
:101D1000236803F00703022B54D940F6F253624ABA
:101D2000564803210AF0E3FA236803F00703022B65
:101D300048D942F23E235D4A504803210AF0D7FABF
:101D4000236803F00703022B3CD940F20123584AD1
:101D50004A4803210AF0CBFA236803F00703022B59
:101D600030D94AF29523534A444803210AF0BFFA76
:101D7000236803F00703022B24D94FF480434E4A13
:101D80003E4803210AF0B3FA236803F00703022B4D
:101D900018D93C4A394803210AF0ABFA236803F00A
:101DA0000703022B0ED9364A344803210AF0A1FA60
:101DB000236803F00703022B04D9404A2F4803216C
:101DC0000AF097FAFFF7E2FD236803F00703022BFE
:101DD0000ED92B4A294803210AF08BFA236803F015
:101DE0000703022B04D9364A244803210AF081FA5A
:101DF000344EDFF888800325236803F00703022BA5
:101E000005D92B463246032140460AF070FA4FF4BA
:101E10007A700AF073FA013DEED1236803F00703EC
:101E2000022B40F28380284A144803210AF061FA09
:101E3000236803F00703022B78D9114A0F480321C6
:101E40000AF057FA236803F00703022B6ED90D4AF4
:101E50000A4803210AF04DFA236803F00703022B16
:101E600064D91A4A054803210AF043FA236803F0AB
:101E70000703022B5AD97023154A2BE014010020C6
:101E8000D76D0110BB1B0110531D0110791D0110EE
:101E90009D1D0110C11D0110D81D0110F21D011062
:101EA000181E01103E1E0110641E0110811E01103B
:101EB0009E1E0110BB1E0110D81E0110F51E011040
:101EC000231F01104D1F0110551F0110631F01102A
:101ED0008B1F0110864803210AF009FA236803F0DA
:101EE0000703022B22D9834A814803210AF001FA11
:101EF000236803F00703022B18D97E4A7C4803218C
:101F00000AF0F7F9236803F00703022B0ED97A4A87
:101F1000774803210AF0EDF9236803F00703022B49
:101F200004D9744A724803210AF0E3F973480DF0AA
:101F300071FEF86090B923685B070CD0704A6C485A
:101F400001210AF0D6F923685E0704D06D4A68487B
:101F500001210AF0CEF94FF0FF365EE3236803F06B
:101F60000703022B0ED9684A614803210AF0C1F920
:101F7000236803F00703022B04D9644A5C48032159
:101F80000AF0B7F9624E30683379F861083687F89D
:101F900020300FCE07F1240CACE80F004FF0000A00
:101FA0003368CCF8003007F11C0907F12406D0464D
:101FB00019F8012BBA6007F11A011046FFF774FAFD
:101FC000BA682168002861D101F00701022917D9F8
:101FD000EB468AB03368788B02A9DFF838E1C1E9B3
:101FE00005E240F201328A840A46C1E907304A49D3
:101FF00042F8101F3E484FF433510AF07CF9DD4699
:102000000AF1010A08F10108B8F1050F06F104060A
:10201000CED1226802F00702BAF1000F4FD1002A98
:1020200099D03E4A324801210AF063F923685D07DE
:1020300091D02F483A4A01210AF05BF923685807EA
:1020400089D00121374A2A480AF053F923685907F1
:1020500081D0354A264801210AF04BF923685A07F6
:102060003FF479AF314A224801210AF042F923684E
:102070005B073FF470AF2E4A1D4801210AF039F981
:1020800023685E073FF467AF2A4A60E711F0060F46
:10209000B8D0EB468AB0306802A9274BC861C1E9C5
:1020A000053240F201320A840A46244942F8101FE0
:1020B0000F484FF412510AF01EF9DD46A2E7022A3A
:1020C00005D91F4A0A48534603210AF010F907F1BF
:1020D00018012120FFF7E8F90646A8B323685D0739
:1020E00000F09B82174A024801210AF002F994E2AB
:1020F00014010020BB1B0110AC1F011028050110AA
:10210000D31F0110E91F01100E2001102020011023
:102110000C0D011034200110050000016D2001108C
:10212000CC200110EA200110F22001100A21011038
:1021300031210110492101104E200110040000013D
:10214000A12001106A21011023683E8B03F00703D0
:10215000022B05D93B4A3C48334603210AF0C7F815
:1021600044F230039E4222685BD102F00702022A49
:1021700004D9364A344803210AF0BBF8FFF79EFB26
:102180002368002857D0580714D00121304A2E4820
:102190000AF0AFF8236859070CD02E4A2A480121CB
:1021A0000AF0A7F823685A0704D02B4A01212648D1
:1021B0000AF09FF807F11A010020FFF775F918BB24
:1021C00023687E8B03F00703022B05D9234A1E48A0
:1021D000334603210AF08BF8B30709D5236803F0CF
:1021E0000703022B04D91E4A174803210AF081F87D
:1021F000700709D5236803F00703022B04D9194A95
:10220000114803210AF075F807F116016120FFF764
:102210004BF9064670B32368590700F0FE81124A55
:1022200061E712F0060FA9D0104A07483346022191
:102230000AF05DF8A2E703F00703022BBAD90C4AB3
:102240000321B4E78A210110140100209A21011012
:10225000E321011007220110392201106C22011024
:1022600084220110A1220110BC220110B021011012
:102270005A2201102268FE8A02F00702022A7FD940
:10228000944A9548334603210AF031F8226802F057
:102290000702022A74D9914A914B16F0010F6E463B
:1022A00088B018BF134602AA8E49DFF83C828A48DC
:1022B0004FF40079C2E90513A2F81C904FF4E651DF
:1022C00042F8108F0AF017F8236803F00703022B77
:1022D000B54655D9FB8A854A13F0020F88B0844B66
:1022E00018BF134602AA8349A2F81C90C2E905133D
:1022F000794842F8108F4FF4E65109F0FCFF23684B
:1023000003F00703022BB5463AD9FB8A7A4A13F049
:10231000040F88B0794B18BF134602AA7849A2F877
:102320001C90C2E905136C4842F8108F4FF4E65137
:1023300009F0E1FF236803F00703022BB5461FD91C
:10234000FB8A704A13F0080F88B06F4B18BF134612
:1023500002AA6E49A2F81C90C2E905135E4842F831
:10236000108F4FF4E65109F0C6FF236803F007030E
:10237000022BB54604D9664A5748032109F0B9FF34
:1023800007F11C016120FFF78FF8002848D123686E
:10239000BE8B03F00703022B05D95E4A4E48334635
:1023A000032109F0A4FF720723D5236813F0060F59
:1023B0001FD0594A4848022109F09BFF236813F0B7
:1023C000060F16D0554A4448022109F092FF2368AF
:1023D00013F0060F0DD0524A3F48022109F089FF41
:1023E000236813F0060F04D04E4A3B48022109F03F
:1023F00080FFF30709D5236803F00703022B04D9F4
:10240000494A3548032109F074FFB00708D523680D
:1024100013F0060F04D0454A2F48022109F069FF46
:1024200007F124013D20FFF73FF8002838D1236849
:10243000BE8C03F00703022B05D93D4A26483346DC
:10244000032109F054FFF10709D5236803F00703BE
:10245000022B04D9374A2048032109F04AFFB2076A
:1024600008D5236813F0060F04D0334A1A48022116
:1024700009F03FFF730708D5236813F0060F04D057
:102480002E4A1548022109F034FF300708D5236889
:1024900013F0060F04D02A4A0F48022109F029FF41
:1024A000B7F8168018F0020F59D0236803F007031D
:1024B000022B04D9234A0848032109F01AFFFFF729
:1024C00035F823680646002840D0590700F0A5805B
:1024D0001D4A08E66C19011014010020021D0110AC
:1024E000F1260110DD220110030000010A1D011078
:1024F000D3840110FD2201100F1D0110151D0110C4
:102500001D230110181D01101C1D01103D23011079
:102510005D2301107C8401107A2301109E23011099
:10252000C3230110F0230110122401102E240110E6
:10253000391B0110402401105A240110732401108A
:1025400095240110B5240110DA24011003F00703CB
:10255000022B04D99A4A9B48032109F0CAFE18F0BD
:10256000040FDFF8609200F01781236813F0060F64
:1025700004D0954A0221484609F0BBFE00216120A3
:10258000FEF7E6FE0646002847D101466120FEF729
:10259000DFFE0646002840D1322009F0AFFE07F1E9
:1025A00016016120FEF780FF002840F0F580FA8ACE
:1025B0002368520703F0070340F1E780B3B1834A71
:1025C0008048012109F095FE23685E070ED0804AFD
:1025D0007C48012109F08DFE236803F00703022BDC
:1025E00004D97C4A7748032109F083FE0F2160203B
:1025F000FEF7AEFED9F80030002800F08B805D07B2
:1026000009D07048744A012109F073FED9F80030EE
:10261000580740F0B4806FF0030623685B0704D0CE
:102620006E4A6848012109F064FE236859076DD09D
:102630006B4A6448012109F05CFE23685A0765D0A3
:10264000684A6048012109F054FE23685B075DD0A9
:10265000654A5C48012109F04CFE23685D0755D0AE
:102660005848604A012109F044FE236858074DD0BC
:10267000334601215D4A534809F039FE2368590762
:1026800044D0574A4F48012109F033FE23685A07C6
:102690003CD0574A4B48012109F02BFE23685B07C9
:1026A00034D0544A4748012109F023FE23685E07CD
:1026B0002CD0514A4348012109F01BFE23685D07D5
:1026C00024D040484D4A012109F013FE23685807E1
:1026D0001CD001214A4A3B4809F00BFE23685907E8
:1026E00014D0484A3748012109F003FE23685A07ED
:1026F0000CD0454A3348012109F0FBFD23685B07F4
:1027000004D0384A2F48012109F0F3FD3C37BD467B
:10271000BDE8F08F03F00703022B04D93B4A294898
:10272000032109F0E6FD4FF4FA6009F0E7FDFFF739
:10273000C5F848B1D9F8003013F0060F04D0344A78
:102740002048022109F0D5FDD9F8003003F0070335
:10275000022B04D92F4A1B48032109F0CAFD07F1B7
:1027600016016120FEF7A0FEB0B9FB8A590713D508
:10277000D9F800305A073FF44EAF274A00E0274A05
:102780001048012109F0B5FD45E7022B04D9244A80
:102790000C48032109F0ADFDFEF7C0FF2368064693
:1027A000002843D05B073FF438AF1E4A054801219B
:1027B00009F09FFD23685D073FF42FAF1A4A92E4AA
:1027C000F8240110140100200C25011035250110FA
:1027D00065250110822501109F250110CA270110CF
:1027E000D76D0110BB1B01102631011047310110BC
:1027F000563101106D31011096310110BF310110B9
:10280000DF310110FD3101101D320110C52501100D
:10281000EF25011026260110552601103F26011034
:102820008426011099260110B926011003F0070330
:10283000022B04D9814A8248032109F05AFDFEF790
:102840000DFF064670B1236858073FF4E6AE01213C
:102850007C4A7B4809F04DFD236859073FF4DDAE03
:10286000794A40E407F116016120FEF71DFE60B3CE
:10287000236803F00703022B18D9744A7048032118
:1028800009F037FD236803F00703022B0ED9704AC5
:102890006B48032109F02DFD236803F00703022B89
:1028A00004D96A4A6648032109F023FD07F118019B
:1028B0006120FEF7F9FD0646002832D0D9F8003035
:1028C0005D073FF4B2AE634AABE62368FE8A03F0CD
:1028D0000703022B05D9604A59483346032109F002
:1028E00006FDF207236805D55D073FF434AB5B4A6C
:1028F000FFF72DBB700704D559073FF48CAE584A3B
:102900003EE7B207B4D513F0060F04D0554A4C4841
:10291000022109F0EEFCFEF709FE06460028A7D0CA
:102920007BE63A8BD9F80030D00702F0040109D5D4
:10293000590704D04C4A4248012109F0DAFC4FF013
:10294000FF3672E6002936D103F00703022B0FD9B8
:10295000464A3B48032109F0CCFCD9F8003003F08B
:102960000703022B04D9424A3548032109F0C1FC70
:102970004EF20100FEF77CFD80B90A2009F0BEFC92
:10298000FEF7D4FDD9F80030002800F081805A0706
:1029900004D0384A2A48012109F0ABFCD9F80030AC
:1029A00013F0060F04D0344A0221254809F0A1FC97
:1029B000D7F80C8072E013F0060F36D0234A204877
:1029C000022109F096FCD9F8003013F0060F2CD044
:1029D0002A4A1B48022109F08CFCD9F8003013F078
:1029E000060F22D0264A1648022109F082FCD9F8A7
:1029F000003013F0060F18D0224A1148022109F0C6
:102A000078FCD9F8003013F0060F0ED01E4A0C489F
:102A1000022109F06EFCD9F8003013F0060F04D043
:102A20000A4A0748022109F064FCD9F8003003F093
:102A30000703022BBCD9154A0321B6E7DC26011097
:102A400014010020FA26011018270110BB1B0110E9
:102A5000A3270110F8270110DF1A011049270110E0
:102A60006D270110892701100D280110C6280110BB
:102A7000F4280110192901104B2901103A280110DE
:102A80005028011070280110A1280110962901106A
:102A900003F00703022B75D84FF00008D9F8003077
:102AA00003F00703022B1AD9BD4ABE48032109F0DF
:102AB00020FCD9F8003003F00703022B0FD9BA4AE3
:102AC000B848032109F015FCD9F8003003F00703DA
:102AD000022B04D9B24AB348032109F00AFC0026AC
:102AE000DFF8C892DFF8BCB2B246B9F80020B9F8F6
:102AF000021079601046BA60FEF764FCD7E9011253
:102B0000002851D10A21BAFBF1F201FB12A20135D2
:102B10000AF101011AB1BAF16F0F40F0B880DBF889
:102B2000002002F00702022A21D9C7F808D08AB093
:102B300002AA9F487A60C2E905017020D061084668
:102B4000FDF7FAFF9B49FEF703F99B49FEF74CF8A6
:102B5000FDF7B2FC7A68C2E90801062142F8101FAD
:102B600058464FF4435109F0C6FBD7F808D002206D
:102B70000AF1010A09F0C2FBBAF1700F09F1040968
:102B8000B3D137E08D4A8748032109F0B2FBD9F869
:102B9000003003F00703022B7FF67EAF884A81489E
:102BA000032109F0A6FB77E7DBF800305B0706F1AD
:102BB000010614D0C7F808D08AB00DF1080C814B7B
:102BC000CCE905326246CCE90710052142F8101F16
:102BD00058464FF4215109F08EFBD7F808D00A2E41
:102BE000C5D9704803685B0745D0774A3346012151
:102BF00009F07DFBDFF8AC91D9F8003003F0070352
:102C0000022B38D9664A0321484609F072FBD9F8ED
:102C1000003003F00703022B2DD96C4A03214846EC
:102C200009F067FBD9F8003003F00703022B22D923
:102C30004FF0700B2B46664ACDF800B00321484692
:102C400009F04FFBD9F8003003F00703022B12D92B
:102C50003346604ACDF800B00321484609F041FBF5
:102C6000D9F8003003F00703022B04D94C4A0321A2
:102C7000484609F03EFBDFF82C91D9F800307DB9C9
:102C80005E073FF45CAE544A0121484655E60220F7
:102C9000B96009F033FBB96809F104098A4624E7F1
:102CA000382E04D95D073FF44AAE4C4AECE7B8F140
:102CB000000F40F06D8303F00703022B30D9384A30
:102CC0000321484609F015FBD9F8003003F007034B
:102CD000022B25D9424A0321484609F00AFBD9F8BC
:102CE000003003F00703022B1AD93E4A032148465D
:102CF00009F0FFFAD9F8003003F00703022B0FD9CF
:102D0000274A0321484609F0F4FAD9F8003003F0C5
:102D10000703022B04D9344A0321484609F0E9FA93
:102D20004EF60410FEF7A4FB78B90A2009F0E6FA83
:102D3000FEF7FCFBD9F8003000285DD05C0704D01A
:102D40002A4A1848012109F0D4FAD9F8003013F0C2
:102D5000060F22D0124A1348022109F0CAFAD9F804
:102D6000003013F0060F18D0214A0E48022109F056
:102D7000C0FAD9F8003013F0060F0ED01D4A0948EA
:102D8000022109F0B6FAD9F8003013F0060F04D08A
:102D9000034A0448022109F0ACFAD7F80C8076E027
:102DA000BB1B011014010020B9290110701401107F
:102DB000EA2901100000E0420000C8422A2901105F
:102DC0007D290110152A0110532A01107B2A0110B8
:102DD000962A0110B12A0110CC2A0110FC2A0110F8
:102DE000372B01105D2B01107E2B0110A12B011040
:102DF000742C0110A128011003F00703022B46D9FF
:102E0000BF4AC048032109F074FAD9F8003003F032
:102E10000703022B3BD9BC4ABA48032109F069FADF
:102E2000D9F8003003F00703022B30D9B74AB54870
:102E3000032109F05EFAD9F8003003F00703022BF2
:102E400025D9B14AAF48032109F053FAD9F8003027
:102E500003F00703022B1AD9AD4AAA48032109F04F
:102E600048FAD9F8003003F00703022B0FD9A94A1A
:102E7000A448032109F03DFAD9F8003003F0070314
:102E8000022B04D9A44A9F48032109F032FAD9F849
:102E9000003003F00703022B1AD99B4A99480321FB
:102EA00009F027FAD9F8003003F00703022B0FD9F5
:102EB0009A4A9448032109F01CFAD9F8003003F02B
:102EC0000703022B04D9904A8E48032109F011FA16
:102ED00007F11A011820FEF7E7FA78BBD9F800309D
:102EE00003F00703022B19D96C468AB0798B02AA2A
:102EF0008B4B53610A204B084343C2E9063141F62C
:102F0000C8104FF4A563C2E90803062342F8103F36
:102F10007C484FF4435109F0EEF9A5467A8BD9F875
:102F20000030B2F5A56F40F0518203F00703022B89
:102F300004D97C4A0321734809F0DBF907F11C012D
:102F40008720FEF7B1FAF8B9D9F80020BC8B02F05F
:102F50000702022A08D940F6F2530093724A6948E0
:102F60002346032109F0BDF940F6F2539C42D9F8FB
:102F7000002040F0328202F00702022A04D96B4A94
:102F80000321604809F0B5F907F124018620FEF716
:102F90008BFA00BBD9F80020BC8C02F00702022A91
:102FA00008D942F23E230093614A56482346032142
:102FB00009F097F942F23E239C42D9F8002040F0F4
:102FC000138202F00702022A40F2E080594A0321EC
:102FD0004C4809F08EF9D9F8003003F00703022BB2
:102FE00040F2D480484A4748032109F082F9D9F8D1
:102FF000003003F00703022B40F2C8804E4A4148DC
:10300000032109F076F9D9F8003003F00703022B09
:1030100040F2BC803C4A3B48032109F06AF9D9F8E8
:10302000003003F00703022B40F2B0807023434AC4
:103030003448032109F05BF9D9F8003003F00703A5
:10304000022B40F2A3806C468AB00DF1080A3C4B7B
:103050002846CAE90535FDF76FFD3A49FDF778FEC8
:103060003949FDF7C1FDFDF727FA52460623CAE9A3
:10307000080142F8103F23484FF4435109F03BF94F
:10308000D9F8003003F00703022BA5467ED933465A
:103090002E4A1C48032109F02AF9D9F8003003F020
:1030A0000703022B72D92A4A2A4BD546B8F1000FE2
:1030B00008BF134602AA2849284D12484FF400764B
:1030C000C2E9051396834FF4E65142F8105F09F008
:1030D00012F9D9F8003003F00703022BA54655D9A1
:1030E0001F4A204BD546B8F1000F08BF134602AA6D
:1030F0001D499683C2E90513024842F8105F35E086
:10310000B02B011014010020BB1B0110CF2B0110AC
:10311000F72B0110222C01104D2C0110052D011050
:103120002E2D0110652D0110C52D0110E72D011068
:10313000212E0110432E01107D2E01109B2E011017
:10314000B52E01100000E0420000C842D82E011048
:103150002F1D01101F1D0110F22E01100300000190
:10316000491D0110371D01100C2F01104FF4E651BD
:1031700009F0C1F8D9F8003003F00703022BA54687
:1031800004D99D4A9D48032109F0B3F8D9F80030CD
:10319000B8F1000F57D013F0060F54D0964A974855
:1031A000022109F0A6F8D9F8003013F0060F4AD032
:1031B000934A9248022109F09CF8D9F8003013F0A4
:1031C000060F40D08F4A8D48022109F092F8D9F8B5
:1031D000003013F0060F36D08B4A8848022109F0E0
:1031E00088F8D9F8003013F0060F2CD0874A8348AE
:1031F000022109F07EF8D9F8003013F0060F22D032
:10320000834A7E48022109F074F8D9F8003013F09F
:10321000060F18D07F4A7948022109F06AF8D9F8D8
:10322000003013F0060F0ED07B4A7448022109F0DB
:1032300060F8D9F8003013F0060F04D06E4A6F48DA
:10324000022109F056F8D9F8003003F00703022BE9
:1032500030D9724A6948032109F04BF8D9F8003097
:1032600003F00703022B25D9634A6448032109F0C0
:1032700040F8D9F8003003F00703022B1AD9684A46
:103280005E48032109F035F8D9F8003003F0070350
:10329000022B0FD9584A5948032109F02AF8D9F8C6
:1032A000003003F00703022B04D95E4A5348032180
:1032B00009F01FF841F2883009F020F8D9F8003001
:1032C00003F00703022B0FD9544A4C48032109F09D
:1032D00010F8D9F8003003F00703022B04D9524A42
:1032E0004648032109F005F8FEF750FBD9F80030F5
:1032F00003F00703022B25D9484A4048032108F070
:10330000F8FFD9F8003003F00703022B1AD9474A17
:103310003A48032108F0EDFFD9F8003003F0070325
:10332000022B0FD9424A3548032108F0E2FFD9F8B1
:10333000003003F00703022B04D9384A2F48032139
:1033400008F0D7FF354E2D4DDFF8E880012447F215
:10335000305008F0D3FFD9F8003003F00703022BF8
:1033600013D932460321284608F0C3FFD9F80030AC
:1033700003F00703022B08D92346424603212846BF
:1033800008F0B5FF04F1010A5446FEF7FFFADEE744
:1033900013F0060F3FF401AD174A0221484608F02A
:1033A000A8FFD9F8003013F0060F3FF4F6AC224A1C
:1033B0000221484608F09DFFD9F8003013F0060FAF
:1033C0003FF4EBAC1D4A02214846DAE413F0060F45
:1033D0003FF4B4AD1A4A0221ADE512F0060F3FF4F6
:1033E000D3AD184A0221CCE512F0060F3FF4F3AD3D
:1033F000154A0221ECE500BFBB1B0110140100209F
:10340000262F01103E2F0110762F0110A32F01103F
:10341000C12F0110DF2F0110F32F0110D76D011004
:103420001A3001103E30011075300110A230011029
:10343000D73001100A310110AD2C0110DA2C011027
:103440008B2D01100A2E0110662E011010B5354C7F
:10345000236803F00703022B2CD9334A03212046AB
:1034600008F047FF236803F00703022B22D92F4AF5
:103470000321204608F03DFF236803F00703022BD9
:1034800018D92B4A0321204608F033FF236803F0A4
:103490000703022B0ED9254A0321204608F029FFF5
:1034A000236803F00703022B04D91F4A0321204697
:1034B00008F01FFF1F480CF0ADFB236848B95B07FD
:1034C00004D01D4A1748012108F013FF4FF0FF30C8
:1034D00010BD03F00703022B22D9184A114803211B
:1034E00008F007FF236803F00703022B18D9144ADA
:1034F0000C48032108F0FDFE236803F00703022BAC
:103500000ED9104A0748032108F0F3FE236803F0A0
:103510000703022B04D9044A0248032108F0E9FEFC
:103520000020D5E714010020D76D0110BB1B01104E
:103530004032011028050110663201107C32011062
:1035400091320110C13201102DE9F04F91B0840782
:10355000009302F004030293C2F3C20303F10103D8
:10356000DDF86880039205460E46059340F0BA8167
:10357000041D30B1072909D86FF01B0011B0BDE858
:10358000F08F01F007063444C6F10806009B4FF0A7
:103590000009591E4FF0040A4FF0FF330193CDF894
:1035A00010904F46CB4653460DB1009A22600598C5
:1035B000002800F3E8809848009A824203D3974895
:1035C0008242C0F0E080039AA4EB050E92074FEA16
:1035D0009E0000F103810F2F00F2B180002D00F05A
:1035E000058107F140020DEB020C019A0CF8200C4A
:1035F0000CF8102C049801300490E7E07A285DD88C
:103600004B280ED8472859D829282DD8252852D0FC
:1036100054D820287AD02338D0F1000B4BEB000B84
:1036200074E04C382E2849D8DFE800F0704848484C
:1036300048484848484848484B4848484848484807
:103640004859484B4B595959704B6D487048184B65
:10365000184848827F4B48484B487F0000204FF075
:10366000000B4FF0040A38E02A38C0B2012202FAF7
:1036700000F010EA0E0F49D110F0625C2FD110EA71
:10368000020B43D06046013C5444B4FBFAF40AFBFD
:1036900004F4002D61D0A3EB050CA444B4453FF61F
:1036A0006BAF002868D1042B47D158F8043B236046
:1036B000043404232AE0019A013A01924FF0000BEE
:1036C00024E011F8010C6C2834D111F8023C0020E0
:1036D0006C2B8346C5D14FF0080A5346D3E708F157
:1036E000070828F007080734F8E802AB24F00704BD
:1036F00035B106982044B0423FF63EAFC4E900AB76
:1037000008344FF0000B4FF0080A534611F8010F30
:10371000002878D0BBF1000F7FF470AF2528F5D1D9
:10372000019B013301934FF0010B4FF0040AECE7CA
:10373000584694E700208346A5E7082B02D06FF097
:1037400015001BE708F1070828F00708F8E802232E
:10375000C4E9002308340823D8E768B9042B02D150
:1037600008F10408A4E7082BE9D108F1070828F0BC
:10377000070808F10808EDE7059A013A059258F89C
:10378000042B009210E7039A900720D5A4EB050EB6
:103790004FEA9E004FF0010CBEF5007FCFD20F2FF5
:1037A000CDD8F5B107F140020DEB020EC0B2019A7F
:1037B0000EF8200C0EF8102CBCF1000F3FF41AAFDD
:1037C00060F07F000EF8200C09F101090137C5F106
:1037D0000802043406924FF6DA7E97E74FF0000CA9
:1037E000DAE7BCF1000F01D00136EFE702980236AC
:1037F0000028EBD10098CDE90631FDF7C1FBDDE9EA
:1038000006310644E2E7631BB3F5806F97D23DB9FA
:10381000A6F10804E018B1E63C040110488C011040
:10382000029A28609B082B709DF81030C2B1EB7093
:1038300085F80290B9F1000F05D008A80022C5F163
:10384000010C97420ED1C5F101030DF120084FF094
:10385000000A01930DF1300B574512D1601B8DE624
:103860006B70E5E710F8013B190608D50CEB040E68
:10387000B64503F07F033FF67FAE04F8013B01320B
:10388000DFE7B9F1000F03D098F90020002A17DB19
:10389000029BD3B11AF80B2004F8012B0022019BE4
:1038A00018191044B0423FF667AE98F8000004F8CB
:1038B000010B0099039220460CF0C6FC039A1444B5
:1038C0000AF1010A08F10108C6E798F8002055F846
:1038D00022300093029B45F822300098FDF750FB00
:1038E000421CDCE76FF00D0048E600BF2DE9F04F09
:1038F00095B090F802A0DDF878B00293CBF3C00346
:10390000044616460593894641B9457800780AEB86
:10391000800020444D4516D8A0EB0409E3780493B9
:10392000BAF1000F02D01BF0010F15D1049B002B40
:1039300039D11EB1029A49462046B0474D46284625
:1039400015B0BDE8F08F471C3846FDF719FB013074
:10395000384409F10109DDE7227863680192039395
:10396000019B9200069204EB8301002E40F0D6806A
:103970004D460F4601EB0A080026B84522D017F83D
:10398000013B009154F82300FDF7FAFA1F9B0099C0
:10399000013033B1209BB34282BF1F9B23F8160036
:1039A00001360544E9E71BF0020FC2D023780193EA
:1039B0001F469B0006936368039304EB8701002E68
:1039C00044D14D46049B01EB0A071BF0050F07EBA2
:1039D00043090BF002030CBF4FF0020A4FF0010A3B
:1039E00000934F45ABD017F8021B17F8013C54F871
:1039F00023808F4B984502D38E4B984507D3059B68
:103A000093B1039808F019FD70B1023DE9E7059BF9
:103A100023B1039808F011FD0028F6D11BF0010F27
:103A200005D1A5EB0A05DCE7009B002BD9D0404669
:103A3000FDF7A6FA1F9B3BB1209BB34281BF1F9AA3
:103A4000431C22F8163001360544CAE7BAF1000FCC
:103A500069D01BF0040769D0D046002710A8524651
:103A600000910CF0F1FB0099049A01EB0A0300931A
:103A7000049B5B000893009B03EB420307930BF04E
:103A800002030993079B009A934251D163781BF07C
:103A9000020F07EB03020CBF4FEA580100211BF095
:103AA000010FD2B240F090801BF0040F14BF4046CB
:103AB00000206270A070E170029A0699039320467C
:103AC000B047051EFFF63BAF019B2370039B63705D
:103AD000049B029A84F802A04146E37010A8B04704
:103AE000B0F10008C0F29F80069B029A0098A9EBF3
:103AF0000A01C91A089BC91AB0470028C0F295806C
:103B0000A84408EB00054FF000090DF1300BB94552
:103B10005CD30021029A0846B04710E757460CA82C
:103B20004FF000089BE75746D0469DE7B8469BE715
:103B3000009B13F8021B009313F8015C3C4B54F8F4
:103B400025209A4202D33B4B9A421AD3059B23B1BC
:103B5000039808F072FC002894D1099BE3B908F19E
:103B6000500308F101020DEB030014AB53FA82F28B
:103B700008F1020800F8101C5FFA88F802F8105CDF
:103B800080E7059B2BB1039808F057FC00287FF4D1
:103B900079AF1BF0010F08D007F150037A1C0DEB31
:103BA000030707F8205CD7B26CE71BF0040F3FF463
:103BB00069AF08F1500308F101020DEB030808F8A2
:103BC000105C5FFA82F85DE7002072E719F80B30AD
:103BD0008DF82F3054F823A01F9B0BB3209B4B452F
:103BE0001ED91F9B33F81980029A01210DF12F0075
:103BF000B047002819DB0544B8F1000F06D1504644
:103C0000FDF7BEF900F101081FFA88F8029A414653
:103C10005046B047002808DB054409F1010976E762
:103C20004FF00008E0E7454689E6054687E600BF15
:103C30003C040110488C0110014B1860704700BF14
:103C40000000002080B505460E461746984607F04E
:103C5000C9FB03460CF0E8FBDFF81890044649F86E
:103C60000030424630463946A84754F8090004F06F
:103C700067FA00BF0800000008B50446EFF311839F
:103C8000202383F31288BFF36F8F0BF086FE20464C
:103C900004F044FA024808F0F7FB0AF0D0FFFCE712
:103CA000C53301102DE9F047DFF858800446074678
:103CB0004FF0010914B93846BDE8F08794FAA4F52D
:103CC000B5FA85F509FA05F32E0108EB05156FEA3B
:103CD000030A24EA03042B7B002BEBD058F80630B0
:103CE0001B694BB94644042273682846196807EAE1
:103CF0000A0708F018FFDDE7284698470028D9D1C1
:103D0000F0E700BF540B011030B51049104889B0DE
:103D100000220CF03EF90F4D0F4900220023CDE99F
:103D2000062300240E23CDE90334CDE901440B4BD7
:103D300000944FF44072284606F0F8FF08492846E0
:103D400006F038FF204609B030BD00BF653D0010C9
:103D5000E006002020020020A8250020AD40001031
:103D6000C1690110014806F083BD00BF4C0100206D
:103D70002DE9F047804620480F4608F0A4FE06468D
:103D8000002832D000252846BDE8F087237B83B188
:103D90002368DB680BB120469847636883F8069078
:103DA00023681B69CBB9636804221968204608F0B0
:103DB000BAFE013610345445E8D3B8F1000FE2D012
:103DC000002DDFD02846FFF76DFF0546002FF7D006
:103DD000002164200CF04DF8F2E7204698470028B7
:103DE000E1D009FA06F31D43E3E7044CDFF810A025
:103DF00005464FF00109DEE7D00D0020540B0110FD
:103E0000640B011008B5034608462BB1044A136041
:103E100000F0F0FC002008BD6FF01500FBE700BFCC
:103E20000400002010B5044C237813B9034806F0B1
:103E30001FFD0123237010BD761500204C010020CA
:103E400010B504460B4808F03EFE5CB1BFF35B8F33
:103E5000094B53E8001F013943E80012002AF8D14A
:103E6000BFF35B8F05480CF0A0F80548BDE8104093
:103E700006F0FEBCC80D0020CC0D0020E00600209E
:103E80004C0100200020064BBFF35B8F014653E836
:103E9000000F43E80012002AF9D1BFF35B8F70478F
:103EA000C80D002070B5FFF7EDFF084C084E054621
:103EB000B44200D370BD63685B792BB123685B6843
:103EC00013B12946204698471034F1E7540B0110EE
:103ED000640B011010B5044C0449204608F0E4FBC3
:103EE000034B1C6010BD00BF9C000020640D01103E
:103EF000C00D00200E4A0F48002310B513700E4A63
:103F000013600E4A4FF47A711360FFF77BFFFFF7DF
:103F1000E1FF00F079F90A4B0A4918468B4200D3B9
:103F200010BD1A1A5C681211013222711033F5E7C4
:103F300077150020E1CA0010C80D0020CC0D00202C
:103F4000540B0110640B01100146002201480023AC
:103F500008F0CBBB9C000020014808F064BC00BF07
:103F60009C000020024B0146186808F0B0BC00BF5E
:103F7000C00D0020014808F0E5BC00BF9C000020F7
:103F80002DE9F041324B187800285FD0FFF7E4FFAD
:103F90000446002856D12F4B2F4C1B68002B12DDF6
:103FA0000BF0F5FF0A220023FCF7BEFFD4E9003234
:103FB000C01A40F2E93361EB0201984271F100014D
:103FC00001D3FFF76FFFD4E9003213F57A7342F1A2
:103FD0000002C4E90032BDE8F041FFF7CBBF6B68D7
:103FE0005B793BB121784B0717D52B6821461B68BD
:103FF0002846984710354545F1D32046FFF7B2FFD4
:10400000BFF35B8F154B53E8001F013943E80012E3
:10401000002AF8D1BFF35B8FBDE720462688C1F3A5
:10402000C20700F025FAC6F382160246002EDCD045
:104030000028DADB01233946284600F095F9B04222
:10404000D8D3D2E7064DDFF81C80D4E7BDE8F08175
:1040500076150020C80D0020D8060020CC0D0020C9
:10406000540B0110640B011070B50D4D297861B926
:104070000120FFF77DFE0B4C0B4EB44206D3FFF739
:104080007FFF0028FBD101232B7070BD63685B7933
:104090001BB1236820469B6898471034EDE700BFAA
:1040A00077150020540B0110640B011000212DE93D
:1040B000F0470846FFF75CFE044658B34FF4FA7821
:1040C0004FF000090CF0B0F91B4B1C4A1B58136051
:1040D00033B11B4B1B68092B02DD1A4806F0C8FBE5
:1040E000194FDFF860A0002544B12046FFF7DAFD44
:1040F000044618B94FF0FF384FF0FF39FFF740FF83
:10410000064628B9B5B942464B46504606F0EAFB8A
:104110003546E9E74FF0FF384FF0FF39D2E72B681B
:104120009B691BB100221146284698471035BD42B5
:10413000F5D3E8E7054DFAE708000000C40D0020BC
:10414000CC0D00204C010020640B0110540B011019
:1041500013B5184808F0B7FC174B1B7873B1EFF391
:104160001184202383F31288BFF36F8FFFF708FFBA
:1041700084F31188BFF36F8F02B010BD0F4B1B6823
:10418000002BF9D050B900220023CDE900230C48C0
:1041900042F21072002307F099FCEDE70928EBD1F9
:1041A00007480BF002FF074802B0BDE8104006F0D8
:1041B0005FBB00BFCC0D002077150020C40D002090
:1041C000E00600204C01002010B5064B1B68044699
:1041D00098472146A060044808F006FBBDE810405F
:1041E000FFF7B6BF040000209C000020044A054BE6
:1041F0009B1AB1EBD30F34BF52F831000020704747
:10420000A40A0110540B01100B480C4B30B51B1ABB
:104210000B4CDB0800210430994200D130BD10F86E
:104220003120256802F0070225F007052A4344F8EB
:10423000042B0131F0E700BFA40A0110540B011058
:10424000E0000020F8B50B4F0B4DED1B0646ED08C6
:104250000024AC4203D14FF0FF342046F8BD57F89C
:10426000340020B13146FCF779FE0028F5D0013446
:10427000EFE700BFA40A0110540B011000282DE93C
:10428000F047884615461F461DDADFF89890264EFF
:104290004FF0000AA6EB090636095446B24509F16B
:1042A000100902D12046BDE8F08759F80C0C3B46B6
:1042B00000792A464146FFF7E1FF844238BF0446B1
:1042C0000AF1010AEAE7194B194AD21AB5EBD20FE3
:1042D00026D203EBC5031C79BC4228BF3C46154ED1
:1042E000C0B200EB400056F825300722824023EA96
:1042F000020304F00702824013430021032223FA41
:1043000002F000F00700814202F1030238BF0146CB
:104310001E2AF4D123F007030B4346F82530C1E7EA
:104320000024DCE7540B0110640B0110A40A0110F7
:10433000540B0110E0000020F8B5094D094BED1AAF
:1043400006460F46ED080024AC4200D3F8BD00211C
:1043500022B23B463046013408F0DDFBA4B2F3E75D
:10436000540B0110A40A011070B14168097973B1AE
:10437000002A17DBCBB20C4951F8220003EB4303B0
:10438000D84000F0070070474FF0FF31EFE70749D2
:104390000748401AB2EBD00F3ABF01EBC2010879CF
:1043A0001846704704207047E0000020A40A01105E
:1043B000540B01102DE9F04F8FB0C1F34A26059040
:1043C0000D46904606930C0D002E43D0002709ABF6
:1043D0004FF0040B4FF00A0A0193CDF808B00BAB75
:1043E000CDF800A03A4631464046CDE90B770D970F
:1043F000FFF77CFAB0F5006FB146034633D2C0F345
:104400000A0604F11700184420F0070080080793FB
:10441000FFF79AFD66F35325044680B1079B134AC4
:10442000CDF808B000F11001CDE90C3709ABCDE9AA
:1044300000A30B910BAB49464046FFF757FA66F3D2
:104440005325069B05992A4620460FB0BDE8F04F3C
:1044500008F09DBB04F1170020F007008008FFF76B
:1044600073FD0446EBE70FB0BDE8F08F61CB0010A1
:10447000406820B1034BC01A40F38F0070474FF0E3
:10448000FF307047E00000200EB403B503AB0146D7
:1044900053F8042B0448019303F054FF02B05DF875
:1044A00004EB03B0704700BF2DCD0010CA0605D441
:1044B0008B064CBF02490349FFF7E6BF704700BFB8
:1044C000D66D0110D66901102DE9F04F89B09B46D9
:1044D000149B06939DF84CA0159B0593169B179E65
:1044E000049304460D469046BAF1000F00F09D80FB
:1044F00006F48073079308F00CFB06F002090246ED
:1045000000283ED091492046FFF7BEFF0746B9F18B
:10451000000F08D016F0440F35D18D492A462046A9
:10452000FFF7B2FF074406F0010353B1894B8A49F4
:1045300053F82A20894B2046002A08BF1A46FFF765
:10454000A3FF06F48073002B49D006F00803002B6C
:1045500063D1B8F1000F66D0814942462046FFF78B
:1045600093FF0546069B3D44002B6DD1049B002B19
:1045700073D1F30700F1E48031462046FFF796FF40
:10458000D8E00746C3E7774B18680028CAD0764BB7
:104590004FF47A791B68B5FBF3F54FF46163B5FB13
:1045A000F0F100FB115509FB05F54FF03C0CB1FB98
:1045B000F3F203FB1211B5FBF0FEB1FBFCF300FBC1
:1045C0001E550CFB131109FB05F50091B5FBF0F529
:1045D0006649CDE901E52046FFF756FFA2E706F060
:1045E0000803EBB1624B634953F82A202046FFF7DA
:1045F0004BFF0546B8F1000F05D059494246204609
:10460000FFF742FF0544BBF1000FABD05A495A46B1
:104610002046FFF739FF0544A4E74FF0000BE1E720
:1046200006F00805E6E745469CE7BBF1010F069B4F
:1046300006D1002B64D1049B002B7BD000250CE01D
:10464000002BF8D04D485CE04D48069B4D49224672
:1046500007F0C2FE049B002B68D0DFF82C81DFF846
:104660002C91049F3146102F204628BF1027FFF7BA
:104670001DFF4FF0000B5D4545DC059B49461A7850
:104680002046FFF701FF4FF0010B1BF0070F03D18E
:1046900041462046FFF7F8FE5F453BD9059B49465A
:1046A00013F80B202046FFF7EFFE0BF1010BBBF1D7
:1046B000100FEAD1364920464FF0000BFFF7E4FE19
:1046C0005A46059B9A5CA2F120015F2928BF2E2241
:1046D00030492046FFF7D8FE0BF1010BBBF1100F5C
:1046E0001DD01BF0070F03D141462046FFF7CCFE3B
:1046F0005F455A46E5D841462046FFF7C5FEEBE741
:104700001F485546A1E741462046FFF7BDFE0BF185
:10471000010BB0E720492046FFF7B6FEC5E7059B31
:104720003B440593049BDB1B04939AD1BAF1000F21
:104730007FF41FAF204609B0BDE8F04F08F0E9BA9A
:10474000064A05492046FFF79FFE15E7247601102B
:10475000DE690110780D0110092F0110D9690110CF
:10476000036A0110D80D0020D40D0020E769011064
:104770008C0D0110076A01100D6A011063CD001045
:104780002DCD0010458300101A6A0110126A011025
:104790001C6A011008760110186A011073B542F204
:1047A0000F738B4228BF0B4605680F4A044605214C
:1047B000684607F0A7FA63680C495B6806460B2257
:1047C000284608F098FA63683246694628465B68CE
:1047D00008F091FA636806495B681B22284608F0D6
:1047E0008AFA02B070BD00BF8A8501103A6A0110D2
:1047F0001E6A0110074A00210123904206D8064A8A
:1048000001B901231360054B1860704740085B0035
:104810000121F2E740420F00D40D0020D80D002006
:1048200010B5044604F076FF03490246204608F01E
:1048300011FD002010BD00BF7D6A011037B5134681
:1048400000220192054601AA58680A2101F002FCE3
:10485000019C4CB920EAE0700A2180FB01010BF0B9
:1048600008FB204603B030BD22460349284608F025
:104870000DFD019CF5E700BFA26A011008B5034ACF
:10488000034908F0E7FC002008BD00BF926B01104F
:10489000986B0110F7B517460023054601AA0A21B7
:1048A000B868019301F0D6FB1749C6B2284608F054
:1048B000DFFC019C44B122461449284608F0E6FC7E
:1048C000019C204603B0F0BD042E09D910493246A0
:1048D000284608F0DBFC284608F014FD0124F0E728
:1048E0007868FFF7AFFC021E07DA7A6809492846A4
:1048F00008F0CCFC6FF01504E3E7334612B2214612
:10490000204608F008F9DCE7C36B0110296C0110A0
:10491000506C0110676C011007B5002300906946C8
:1049200004488DF8043006F0B9FE9DF8040003B089
:104930005DF804FBF9CD001010B5044604F0CCFE80
:1049400007490246204608F085FC2046054908F044
:1049500081FC0548214606F0BBFE002010BD00BFCB
:10496000F96C0110186D01106D49001070B58EB012
:1049700004460D46D0F89C600BF0CFF903460BF0CF
:1049800053FD214A21491058214A002B18BF1A46CD
:104990000092204A2346844218BF0A4628461E49F0
:1049A00008F058FCD4E90A23CDE90023284694F9FD
:1049B0000E30227B194908F04DFC06A92022204622
:1049C00006F008F9636E16490246284608F042FCD4
:1049D00005A920460BF0AFF9024628B11149284637
:1049E00008F038FC0EB070BD059B6422F11A4A43F2
:1049F0000091B2FBF6F20C49CDE90162284632463D
:104A000008F028FCEEE700BF080000001A6A011059
:104A1000226D0110F47F0110256D0110316D011020
:104A20005D6D0110746D0110A16D0110F0B50025D0
:104A300091B00446294608AF1C2209A80BF02CFCB3
:104A4000134E1A22202138460BF026FC214611482D
:104A500006F03EFE07AA4FF4006130460BF05FF906
:104A6000079A0097C2F5006164234B43DB0A059364
:104A70004FF40063CDE90313CDE901322046064926
:104A80002B46324608F0E6FB284611B0F0BD00BFC9
:104A9000A83000209D4A0010F26D011070B5044648
:104AA000D0F89C6088B00D4607A90BF044F9024687
:104AB00028B10F49284608F0CDFB08B070BD20464C
:104AC0000BF02BF9079B0096F11ACDE90131094B48
:104AD00064224A43002818BF0346B2FBF6F2064997
:104AE000CDE903622846224608F0B4FBE5E700BFA3
:104AF000746D0110226D01103B6E011038B5134624
:104B0000054610225868002107F028F90446FFF7EF
:104B100003FF38B90E492246284608F0B7FB6FF06C
:104B2000150038BD0BF080FC0A4B1B589C4204D189
:104B30000949284608F0AAFBF1E7204606F00EFADC
:104B400028460649224608F085FB0020E9E700BF19
:104B50009F6E011008000000BA6E0110E26E011095
:104B600038B51346054610225868002107F0F6F8BC
:104B70000446FFF7D1FE38B90E492246284608F010
:104B800085FB6FF0150038BD0BF04EFC0A4B1B582F
:104B90009C4204D10949284608F078FBF1E72046F9
:104BA00006F0FAFA28460649224608F053FB002090
:104BB000E9E700BF9F6E011008000000216F01109F
:104BC000476F011038B5134605461022586800217A
:104BD00007F0C4F80446FFF79FFE38B90E49224695
:104BE000284608F053FB6FF0150038BD0BF01CFC95
:104BF0000A4B1B589C4204D10949284608F046FB41
:104C0000F1E7204603F09CFA28460649224608F0C0
:104C100021FB0020E9E700BF9F6E011008000000A3
:104C2000826F0110A76F01102DE9F04F87B0044685
:104C3000684605F08DFB009F284ADFF8A4A0DFF846
:104C4000A4B0242303FB00770821204608F0F5FADE
:104C5000009DBD4203D3002007B0BDE8F08F2B6854
:104C60000BB11A7832B92B461F4A142101A807F05C
:104C700049F801AB52460821204608F0DEFA2846E2
:104C80000AF0C8FF194B1A4A002808BF5B460821E2
:104C9000204608F0D2FA2B6AA3B11E6896B1336899
:104CA00083B1144A0821204608F0C7FAB1464FF0F4
:104CB00000083368104A434506D8104A08212046A8
:104CC00008F0BBFA2435C4E759F8043F0821204610
:104CD00008F0B3FA08F10108EBE700BFEE6F01102E
:104CE000FD6F0110E56F0110F86F0110DF6F01100B
:104CF0007276011002700110082F0110D66D01109C
:104D00002DE9F041144688460746102260680021CC
:104D100007F024F8B8F1020F064607D8254A2023E9
:104D20000821384608F089FA336816E00A22002183
:104D3000A06807F013F8C5B21E4A2B460821384672
:104D400008F07BFAB8F1030F1AD1102D0CD0202DEA
:104D5000EAD0082D0BD13378DBB2174A0821384648
:104D600008F06BFA002009E033889BB2F5E738467B
:104D7000124A082108F061FA6FF01500BDE8F081D1
:104D8000E0681022002106F0E9FF0D4A03460446C0
:104D90000821384608F051FA102D06D0202D07D0F2
:104DA000082DE4D1E4B23470DCE7A4B23480D9E752
:104DB0003460D7E73C70011067700110517001102A
:104DC000787001102DE9F04F87B000230193524B0A
:104DD000DFF848A191460122074688461A6003F091
:104DE000F3FA4FF0FF3520262C46494652464046FE
:104DF00003F00EFB411C06D16A1C41D148493846DC
:104E000008F044FA17E073281AD0772828D06128D0
:104E100011D1DFF810B101AADBF80000102101F078
:104E200019F9019B0546002BDFD0DBF800203E4935
:104E3000384608F02BFA6FF0150007B0BDE8F08F88
:104E4000DFF8E0B001AADBF80000002101F002F970
:104E5000019B0446002BC8D0DBF800203349E7E76C
:104E6000DFF8C0B001AADBF80000002101F0F2F881
:104E7000019B0646002BB8D0DBF800202C49D7E771
:104E8000631C01D12B49BAE75FFA86F8C6F3C40662
:104E9000002C3FD002AB29461A46A6EB050C0CE0CD
:104EA000B8F1100F1DD0B8F1200F20D0B8F1080FC5
:104EB0002AD10878187031443344A64203D80CEB49
:104EC00001001028ECD9102CA14628BF4FF0100982
:104ED00029464B46384600F095FF1035A4EB0904EF
:104EE000D6E7088880B21870000A5870E3E70868AF
:104EF00018704FEA102E83F801E04FEA104E000EB2
:104F000083F802E0D870D6E70B4A0821384608F04B
:104F100094F990E7204690E76C000020C6700110DD
:104F2000CD700110101300208C7001109F700110C3
:104F3000B2700110EA7001105170011070B50F4E7F
:104F4000044633780D4671B123B1BDE870400C4979
:104F500008F09CB9012333700A49204608F07AF919
:104F60000123337004E083F001033370002BF3D18D
:104F700029462046BDE8704008F0E2B978150020C7
:104F8000047101103F71011070B504463B4803786D
:104F9000182B02D10B78112B31D0013A0B468D180A
:104FA000AB4225D18B5C0A780370A2F13003092B48
:104FB000334C04D922F02003413B052B04D823684D
:104FC0003049CA54013323602368022B33D11022A5
:104FD0002C48002106F0C2FE2B4A136803F8010B8F
:104FE00013602A4A1368013313600023236022E010
:104FF00013F8016B182ED3D11E78112ED0D1234D6A
:1050000023492A68204608F025F920460021FFF7A9
:1050100095FF204B187870B91F4A2B681168042B34
:105020000ADC08B111602B6013F003010BD1126888
:1050300013681BBA136070BD086800BA41F8040B0E
:10504000043B0120EBE75B4203F0030358BF5942E6
:10505000022904D1126813885BBA9BB2EAE70329DC
:10506000E9D1106802681104C2F3074301F47F011B
:105070000B4302F47F4213430360DCE77915002001
:10508000DC0D00207B150020E80D0020E00D002045
:10509000697101107A150020E40D00202DE9F84F08
:1050A0000C462B49DFF8AC80DFF8AC90DFF8ACB0F1
:1050B00000230B602A4988F8003006460B6015462D
:1050C000012C2F4655F804AF1ED9022249465046FE
:1050D0000BF007F980B99AF80220003A18BF0122B4
:1050E00092442049022250460BF0FBF830B90123CC
:1050F00088F80030013CE3E70022F1E749465046DA
:10510000FBF72CFFA8B9043700221146786806F097
:1051100025FE154B002211461860786806F01EFE29
:10512000124B134918603046FFF708FF0020BDE816
:10513000F88F9AF800202D2AE6D19AF80120002A4B
:10514000E2D052465946304608F084F8D2E700BF14
:10515000DC0D00207A150020837101108971011087
:10516000E00D002086710110E80D0020E40D002004
:10517000894F001007B50A480AF04CFD60B1094A92
:1051800007491268084804230093012300F0A0FE99
:10519000002003B05DF804FB6FF01200F9E700BFD8
:1051A00004050110880E0110640B011010B544684D
:1051B000C4E90012A36042681346402153F8404BF3
:1051C00053625163002302F13801C2E90413C2E9BA
:1051D0000A33C2E90633082113631162C2F8B830FA
:1051E000A36823B19B6C13B1044920469847A36878
:1051F0009B6A0BB120469847002010BDDFCE0010FF
:1052000010B581680446183101F0B6F9A168034A67
:1052100020461831BDE8104001F046B91D73011059
:1052200038B58368D3F87832DB0704461DD4C069EB
:1052300008F0ABFD606803685B689847054620B9D5
:10524000E06808F070FFA3681D75A3685B6C13B17C
:10525000294620469847A3680BF0E6F80022C3F8D9
:105260002023034B185802F06BFF6FF00F05ECE79B
:1052700008000000014907F0FCBE00BFD66D011018
:10528000F7B504468068D0F878325A070D4605D540
:10529000002107F016FFE06808F017FFE368DB68FD
:1052A00073B9002D3BD0A66806F15607384607F0C3
:1052B000EDFE002835D0394606F5AB70FBF758FEF9
:1052C000A268E0680DF106035632294608F000FF97
:1052D00058B9A06800F5AB715630FBF749FEA068DD
:1052E000563007F0D3FEADF80600204608F01BFB51
:1052F000A368D3F874329B0603D50B49606907F0A5
:10530000B8FE204600F00CFFA268BDF80630A2F8F7
:105310005230A2682046A2F8503008F069FA03B073
:10532000F0BD86F85601CBE7280D01102DE9F04FAE
:10533000A7B004465422002111A80AF0ADFF0023B3
:10534000CDE90533A36820465633029308F0F2FAFC
:10535000204608F036FA10B96069FFF78BFFA068A5
:105360001422002118300AF097FF204608F0CFF9E8
:10537000A168E068B1F850205631002608F0DFFE41
:10538000204608F06EFF4FF0FF37B24603960DF14E
:105390004408B3463546B146DDE90532012A6DD0F1
:1053A000132B6ED85FBBBBF1000F0AD0204608F06C
:1053B00079FFA2681423563211A90DEB030008F0FF
:1053C00025F8B9F1000F0CD099F81130FE2B08D157
:1053D000059B26AA02EB830252F8542C0AB1013332
:1053E0000593A068059D436A002B40F0B680CEB1BE
:1053F000C3699E422DD00D9600F1180524E0029A53
:105400000223414606A808F001F80699D8F80420BE
:105410000292034631B101290AD148B16D4A2046B2
:1054200008F03AFB6FF00705284627B0BDE8F08F7B
:10543000059B002B34D0D8F8000001F0CFF898B1CC
:1054400066B1A5680D9618350CAE0FCE0FC5336842
:105450002B602046FFF7D4FE0125E5E75E4A0121D7
:10546000204608F019FBDDE7059BCBB1D8F80020FA
:105470002946204601F054FA022809D1059B132B36
:1054800091D9069B022B8ED1544B554A0121C6E778
:10549000032805D0059B013305934FF0010B7BE7F3
:1054A000039B33B9D8F8001007AA484608F0A5F8BE
:1054B000054608F10408013F9DB3EB68BBF1000FFE
:1054C00008D0F3B1204608F035FA204608F090F9EC
:1054D000444AC4E7ABB1A368DDF814A0AE4603F1BB
:1054E000180CBEE80F00ACE80F00DEF80030CCF876
:1054F0000030AB682BB96B7CFE2B04BF2F7C07F10F
:10550000FF37D5F804C0BCF1000F08D0AE46BEE8A6
:105510000F000CAE0FC6DEF8003033606646A946B9
:1055200003E0059B53B101230393069B17B9022B9C
:105530007FF432AF059B013305932DE7A368DB6A47
:1055400013B1DB68002BEED1274B0093274A119B48
:105550000121204608F0A0FAE5E790F82830A5EBF5
:105560000A05BBB190F829104FF6FF72FF2918BF4A
:105570000A469D4202D313449D420BD983691C4ABB
:105580000121204608F088FA2046FFF739FE6FF027
:10559000150549E7012107F089FDA06800F5437072
:1055A00007F0A8FDA36811AA294602EB8A025B6AEC
:1055B000204698470546A0684FF0FF324FF0FF3372
:1055C00000F5437007F03DFDA068002107F06EFD77
:1055D0002AE700BF2B7301103F730110A073011065
:1055E000826C01105D7301108C7301109F760110A5
:1055F000C473011010B5836802221A7583689B6C0E
:105600000446BBB907F0F4FC8368D3F87832DB04B6
:105610000BD50321084B094A08F03EFAA0686FF445
:10562000805100F51E7007F0FDFC2046BDE81040DB
:1056300000F0FCBE10BD00BFDF730110092F011088
:105640002DE9F04F04468068B1B0012100F51E70CD
:1056500007F0D9FCA3681B7D022B20D100230993FE
:10566000A36860689E6C03681D6909AB0EB31022C5
:105670001BA9A847099B93B1A068012107F016FD5B
:10568000099A1BA92046B047A068002107F00EFD2B
:10569000A3689B6C002BE3D12046FFF7ABFFA0680B
:1056A0006FF0010100F51E7031B0BDE8F04F07F05A
:1056B000B9BC01220DF12301A847099B002BEED0B4
:1056C0009DF923209DF82330A068002AC8DB427D85
:1056D000032A00F2F482DFE812F0040075028C0263
:1056E000F2020D2B67D00A2B43D0B0F87822092B99
:1056F0006FF3CA02A0F8782272D029D8002B00F0EC
:105700000381082BA06800F0E9810246D2F87412E8
:10571000890740F1F980013B162B00F2F580DFE8A4
:1057200013F0B702FA01FE01F601B1021002F30014
:10573000F300F300F30014021802F3002D02F3004B
:105740003202F300F300F300F3003402F3004902E5
:105750001B2BA06841D07F2B00F0CC81A3F120014E
:105760005E290246D2D8012107F0ABFC9DF8231038
:10577000B8E0D0F87822C2F3C7022AB1D0F8782274
:10578000C2F3C7020A2AC0D1B0F8782263F3CA0272
:10579000A0F87822A568B5F85010C1B9284607F0DE
:1057A00090FCE06808F091FC6069FFF763FD20461B
:1057B000FFF720FF54E7D0F87822C2F3C702002A8F
:1057C000E2D0D0F87822C2F3C7020D2ADBE72046E8
:1057D000FFF7ACFDC5F82403E9E70123437593E027
:1057E000A068D0F874329B0740F18E80012107F049
:1057F00068FCA068B0F85030FF2B00F08580B0F84E
:10580000522000F1560100F5AB700AF01DFDA368AF
:10581000B3F852201344002583F85651A2681BA9FF
:10582000142302F5AB720BA807F0F0FD0B991429B5
:105830006AD830AB03EB810343F8545CA368B3F838
:105840005220002A52D0134493F85530202B02D016
:10585000093B042B4AD800294BD100250A950A9B05
:1058600030AA02EB8303002653F854AC504607F0ED
:105870000DFCB3468146B046374616AA394628463F
:1058800000F0AEFB0346002842D1012E68D10A9BEE
:1058900030AA02EB830353F8540C07F0F7FBA2681D
:1058A000064618324146284600F09AFB056828460D
:1058B00007F0ECFB864205D0821B92B2A919204664
:1058C00008F031F9A068B0F85230034493F856302C
:1058D000202B34D0093B042B31D9D0F87432DF07A8
:1058E00032D42021204600F069FD0DE00129B4D911
:1058F000013900200CAB009301900AAB1BAA07F002
:10590000A7FE05460028AAD1606907F01FFDA7E69B
:105910001B6803934A46514618460AF0E2FC60B9F8
:10592000039B1846FBF72CFB584538BF58461FFA17
:1059300080FB002E08BFB846013601379DE70121E4
:10594000204607F089FFDFE7002107F0C4FB202194
:10595000204600F033FDA068012107F0BCFBD3E72F
:105960000490D1D90A9A30AB03EB8202C14652F8B7
:10597000543C0393184607F089FBA268049B0590EA
:10598000A2F840300496A26849461832284600F032
:1059900027FB039BD0F800A009F101094BB1BAF134
:1059A000000F06D0059A194650460AF09AFC0028C6
:1059B000E9D1A168BAF1000F4ED1A1F840A0049B33
:1059C000013B0493DFD16069FFF754FC204600F0EF
:1059D0002DFD0A9B30AA02EB830308F1010A53F85C
:1059E000540C07F053FB414611AA8146284600F0AB
:1059F000F7FA0746A0683968FF2200F5AB700AF095
:105A000082FC3B6803934FF6FF77B84616AA5146CF
:105A100028460AF1010B00F0E3FA002852D0A168F1
:105A2000036801F25511002211F801EF985C7045EE
:105A300003D110B101324245F6D1B9F1000F01D0C6
:105A40004A4507DBBA4206F1FF36A8BF3A46012EA7
:105A500097B237D0DA46D9E79A48069107F016FB95
:105A6000069907914A8F00EB0B07BFB2121A5046F6
:105A700092FBF7F292B2069207F008FB0799069A9A
:105A80003F1AB1F8400000F1010CA1F840C0B0FB92
:105A9000F2F102FB110080B2BFB260B9894B8A4AB1
:105AA000CDF800A00621204607F0F6FF3946204633
:105AB00000F020FB83E7854A53460621204607F085
:105AC000EBFFF3E7002F3FF41FAF0399A7EB0902A9
:105AD00092B24944204608F026F815E7D0F874320F
