:020000041000EA
:100000000000122009760010457600104776001097
:10001000497600104B7600104D760010000000006D
:100020000000000000000000000000004F760010FB
:1000300051760010000000005376001009360010C1
:10004000597600105B7600105D7600102D3D001093
:1000500061760010F13C0010053D0010193D0010C4
:10006000697600106B7600106D7600106F760010C8
:100070007176001073760010A13C0010B53C0010A2
:10008000797600107B7600107D7600107F76001068
:100090008176001083760010857600108776001038
:1000A000A33A0010B13A0010BF3A00108F7600104A
:1000B00091760010937600109576001097760010D8
:1000C000997600109B760010C93C00109F760010B6
:1000D000A1760010A3760010A5760010A776001078
:1000E000A9760010AB760010AD760010AF76001048
:1000F000B1760010B3760010B5760010B776001018
:10010000B9760010BB760010BD760010BF760010E7
:10011000C1760010C3760010C5760010C7760010B7
:10012000C9760010CB760010CD3A0010CF760010C3
:10013000D1760010D3760010D5760010D776001057
:10014000D9760010DB760010DD760010DF76001027
:10015000E1760010E3760010E5760010E7760010F7
:10016000E9760010EB760010ED760010EF760010C7
:10017000F1760010F3760010F5760010F776001097
:10018000F9760010FB760010FD760010FF76001067
:100190000177001003770010057700100777001033
:1001A000DD3C00100B7700100D7700100F7700106A
:1001B00011770010137700101577001017770010D3
:1001C000197700101B7700101D7700101F770010A3
:1001D0002177001023770010257700102777001073
:1001E000297700102B7700102D7700102F77001043
:1001F0003177001033770010357700103777001013
:100200000348044B834202D0034B03B118477047A5
:10021000200A0020200A00200000000005480649AE
:100220000B1AD90F01EBA301491002D0034B03B104
:1002300018477047200A0020200A00200000000014
:1002400010B5064C237843B9FFF7DAFF044B13B11E
:100250000448AFF300800123237010BD200A002062
:10026000000000005413011008B5044B1BB10449F1
:100270000448AFF30080BDE80840CFE7000000006D
:10028000240A00205413011080B584B000AF7860B8
:10029000124B1B68002B02D1104B114A1A600F4BF6
:1002A0001B68FB600D4B1A687B6813441A460D4BA4
:1002B0009A4207D907F00EFC03460C221A604FF051
:1002C000FF3306E0054B1A687B681344034A13604A
:1002D000FB6818461037BD4680BD00BF3C0A0020B1
:1002E0002012002000F0112080B400AF6FF0100346
:1002F0001846BD465DF8047B704780B400AF6FF0D0
:1003000010031846BD465DF8047B704780B485B085
:1003100000AF4FF080439B6803F46063BB60BB6831
:10032000B3F5606F2BD0BB68B3F5606F3FD8BB6887
:10033000B3F5406F34D0BB68B3F5406F37D8BB68B6
:10034000B3F5206F25D0BB68B3F5206F2FD8BB68FD
:10035000B3F5006F1AD0BB68B3F5006F27D8BB6840
:10036000B3F5C06F0ED0BB68B3F5C06F1FD8BB68C4
:10037000002B12D0BB68B3F5806F15D017E0174B78
:10038000FB6017E04FF4FA53FB6013E0144BFB6083
:1003900010E04FF4E103FB600CE0124BFB6009E05E
:1003A0004FF40043FB6005E00F4BFB6002E00C4B99
:1003B000FB6000BF4FF080439B689B0903F007037D
:1003C0007B60FA687B6822FA03F3084A136000BF77
:1003D0001437BD465DF8047B704700BF0080BB004A
:1003E000000E2707008793030048E80194110020BE
:1003F00080B400AF00231846BD465DF8047B70470B
:1004000080B400AF00231846BD465DF8047B7047FA
:1004100080B400AF00BFBD465DF8047B70470000AC
:1004200080B500AF174B184A9A60184B01221A602A
:10043000174B40221A60154B00221A60154800F035
:1004400065FD144800F06DFD124800F05FFD0D4B96
:10045000D3F888300B4A43F47003C2F88830BFF3F6
:100460004F8F00BFBFF36F8F00BF042001F026F84D
:10047000FFF74CFFFFF7CCFFFFF7C2FF62B600BFEC
:1004800000BF80BD00ED00E000000010000C004047
:100490000C04004000A0024080B485B000AF78603A
:1004A000134B1B78002B1CD10023FB6013E00023AF
:1004B000BB600AE00F49FB685A01BB681344002285
:1004C00041F82320BB680133BB60BB681F2BF1DD03
:1004D000FB680133FB60FB68042BE8DD044B012261
:1004E0001A70002318461437BD465DF8047B704728
:1004F000400F0020400A002080B586B000AF786031
:100500007B68002B15D07B68012B10D07B68022BF9
:100510000BD07B68032B06D07B68042B01D1214BC9
:1005200008E0002306E0204B04E0204B02E0204BD3
:1005300000E0204BFB60F86800F024FB78617969EB
:10054000F86800F005FB00233B6123E07B6903F0C2
:100550000103002B18D018497B685A013B691344EA
:1005600051F82330002B0FD013497B685A013B69A7
:10057000134451F8233011487A6851013A690A440A
:1005800050F82220104698473B6901333B617B6954
:100590005B087B617B69002BD8D100BF00BF183797
:1005A000BD4680BD00C000400004084000A00040DF
:1005B0000090004000800040400A0020C00C002055
:1005C00080B582B000AF78607B6803F00103002B38
:1005D00002D0002000F09EFE7B6803F00203002B97
:1005E00002D0012000F096FE7B6803F00403002B8C
:1005F00002D0022000F08EFE7B6803F00803002B7F
:1006000002D0402000F086FE7868FFF745FF0346E1
:1006100018460837BD4680BD80B586B000AF78600B
:100620007B681B683B617B681B68974A93421ED0BE
:100630007B681B68954A934217D07B681B68944A75
:10064000934210D07B681B68924A934209D07B6822
:100650001B68914A934201D1042309E04FF0FF3314
:1006600006E0032304E0022302E0012300E000236C
:10067000FB60FB68B3F1FF3F02D16FF00203C7E1FB
:100680000122FB6802FA03F31846FFF799FFFB68A3
:10069000032B09DC7B68197A7B685B681A4638692A
:1006A00000F036FB786176E000237B617B681B7A83
:1006B000022B06D0022B6ADC002B45D0012B21D067
:1006C00065E0764B1A6A7B685B685B0003F00201A9
:1006D0007B685B681B0103F020030B436F491343E6
:1006E0000B626E4B9A687B685B685B0003F00201EB
:1006F0007B685B685B0803F001030B4367491343A6
:100700008B6048E0654B1A6A7B685B685B0003F0AE
:1007100002017B685B681B0103F020030B435F4908
:1007200013430B625D4B9A687B685B685B0003F068
:1007300002017B685B685B0803F001030B43DB434A
:10074000564913408B6026E0544B1A6A7B685B68FD
:100750005B0003F002017B685B681B0103F0200370
:100760000B43DB434D4913400B624C4B9A687B684B
:100770005B685B0003F002017B685B685B0803F069
:1007800001030B43DB43454913408B6003E06FF0EB
:1007900010037B6100BF7B69002B01D07B6937E1CF
:1007A000FB68032B00F398807B685B7A042B00F2D4
:1007B000908001A252F823F0CD070010230800100A
:1007C000A1080010EF070010550800103B691A6ED1
:1007D0007B685B68DB431A403B691A663B695A6E6B
:1007E0007B685B68DB431A403B695A66F0E03B6913
:1007F0001A6E7B685B681A433B691A663B695A6EDE
:100800007B685B68DB431A403B695A663B69D3F8F7
:10081000B8207B685B68DB431A403B69C3F8B820AB
:10082000D6E03B691A6E7B685B681A433B691A66BF
:100830003B695A6E7B685B68DB431A403B695A66CA
:100840003B69D3F8B8207B685B681A433B69C3F8FF
:10085000B820BDE03B691A6E7B685B68DB431A40D9
:100860003B691A663B695A6E7B685B681A433B6951
:100870005A663B69D3F8B8207B685B68DB431A4053
:100880003B69C3F8B820A3E000800040009000401E
:1008900000A000400004084000C00040006C004080
:1008A0003B691A6E7B685B68DB431A403B691A66DA
:1008B0003B695A6E7B685B681A433B695A663B69C1
:1008C000D3F8B8207B685B681A433B69C3F8B8204B
:1008D0007EE06FF002039BE07B685B7A042B74D8A8
:1008E00001A252F823F000BFFD0800101F090010FC
:1008F000790900101F09001079090010464B1A6A87
:100900007B685B689B0003F004017B685B685B01AC
:1009100003F040030B43404913430B6258E03E4B46
:100920001A6A7B685B685B0003F002017B685B68A6
:100930001B0103F0200319437B685B689B0003F0F5
:1009400004007B685B685B0103F0400303430B43D7
:10095000DB43314913400B622F4B1A6A7B685B689B
:1009600003F001017B685B68DB0003F010030B43BD
:10097000294913430B622BE0274B1A6A7B685B689B
:100980005B0003F002017B685B681B0103F020033E
:1009900019437B685B689B0003F004007B685B681D
:1009A0005B0103F04003034319437B685B6803F07A
:1009B00001007B685B68DB0003F0100303430B431B
:1009C000DB43154913400B6202E06FF002031FE0A6
:1009D000FB68032B0DDC7B68997A7B685B681A46A1
:1009E000386900F0E9F878617B69002B01D07B69F8
:1009F0000EE07B681B7A002B01D1002308E07B68A6
:100A0000D97A7B685B681A46386900F0F1F80346CA
:100A100018461837BD4680BD006C004080B582B0D6
:100A200000AF786039607B680C4A93420DD10C4B63
:100A30001B6ADB0803F00102094B1B6A9B0903F0E8
:100A400002031A433B68134004E03968786800F0F9
:100A5000E1F8034618460837BD4680BD00C0004097
:100A6000006C004080B582B000AF786039607B6870
:100A70000B4A93420DD10B4B1A6A3B6803F00101FC
:100A80003B68DB0003F010030B43064913430B6282
:100A900003E03968786800F0CCF80837BD4680BDBF
:100AA00000C00040006C004080B582B000AF7860AC
:100AB00039607B680C4A93420ED10C4B1A6A3B6832
:100AC00003F001013B68DB0003F010030B43DB4341
:100AD000064913400B6203E03968786800F0B7F804
:100AE0000837BD4680BD00BF00C00040006C00401C
:100AF00080B582B000AF786039607B680C4A934261
:100B00000CD10C4B1B6A03F001020A4B1B6ADB0879
:100B100003F002031A433B68134004E03968786825
:100B200000F0A3F8034618460837BD4680BD00BF55
:100B300000C00040006C004080B582B000AF78601B
:100B40007868FFF7D9FC00BF0837BD4680BD0000BC
:100B500080B582B000AF786039607B68074A934205
:100B600005D1074A3B6803F00303536203E0396889
:100B7000786800F089F80837BD4680BD00C00040A5
:100B80000068004080B582B000AF78607B68084A9A
:100B9000934204D1074B5B6A03F0030303E07868D8
:100BA00000F080F8034618460837BD4680BD00BFF8
:100BB00000C000400068004080B584B000AFF8601D
:100BC0000B467A60FB72FB68084A934202D16FF0D1
:100BD000100306E0FB7A7A681946F86800F06EF8B0
:100BE000034618461037BD4680BD00BF00C0004018
:100BF00080B584B000AFF8600B467A60FB72FB7A78
:100C00007A681946F86800F009F903461846103763
:100C1000BD4680BD80B483B000AF786039607B682A
:100C20005A6A3B68134018460C37BD465DF8047B92
:100C3000704780B483B000AF786039607B683A68F1
:100C4000DA6100BF0C37BD465DF8047B704780B4A5
:100C500083B000AF786039607B683A681A6200BF81
:100C60000C37BD465DF8047B704780B483B000AF9D
:100C7000786039607B689A693B68134018460C3786
:100C8000BD465DF8047B704780B483B000AF7860E8
:100C900039607B683A689A6400BF0C37BD465DF8DE
:100CA000047B704780B483B000AF78607B681B6CB6
:100CB00018460C37BD465DF8047B704780B485B09C
:100CC00000AFF8600B467A60FB72FB7A002B02D013
:100CD000012B0AD012E0FB68D3F8C0207B68DB430D
:100CE0001A40FB68C3F8C0200BE0FB68D3F8C020B3
:100CF0007B681A43FB68C3F8C02002E06FF0020370
:100D000000E0002318461437BD465DF8047B7047A9
:100D100080B485B000AFF8600B467A60FB72FB6868
:100D20001A6B7B681A43FB681A63FB687A685A601F
:100D3000FB7A052B68D801A252F823F0550D00105C
:100D4000770D0010990D0010B50D0010D10D001099
:100D5000ED0D0010FB687A685A61FB687A685A608A
:100D6000FB687A681A67FB687A68DA67FB687A68F2
:100D7000C3F888204BE0FB687A681A61FB687A68E0
:100D80005A60FB687A681A67FB687A68DA67FB68FA
:100D90007A68C3F888203AE0FB687A68C3F888204C
:100DA000FB687A68DA67FB687A681A67FB687A68B2
:100DB0009A602CE0FB687A68C3F88820FB687A6840
:100DC000DA67FB687A68DA66FB687A689A601EE020
:100DD000FB687A68C3F88820FB687A689A67FB68C2
:100DE0007A681A67FB687A689A6010E0FB687A682C
:100DF000C3F88820FB687A689A67FB687A68DA66C5
:100E0000FB687A689A6002E06FF0020300E000235A
:100E100018461437BD465DF8047B704780B485B032
:100E200000AFF8600B467A60FB72FB7A032B53D855
:100E300001A252F823F000BF490E00106F0E0010FF
:100E4000930E0010B70E0010FB68D3F8B0207B683B
:100E5000DB431A40FB68C3F8B020FB68D3F8B4202A
:100E60007B68DB431A40FB68C3F8B42046E0FB68AC
:100E7000D3F8B0207B681A43FB68C3F8B020FB6846
:100E8000D3F8B4207B68DB431A40FB68C3F8B42076
:100E900034E0FB68D3F8B0207B68DB431A40FB6882
:100EA000C3F8B020FB68D3F8B4207B681A43FB6812
:100EB000C3F8B42022E0FB68D3F8B0207B681A4363
:100EC000FB68C3F8B020FB68D3F8B4207B681A43F2
:100ED000FB68C3F8B42011E0FB68D3F8B0207B684E
:100EE000DB431A40FB68C3F8B020FB68D3F8B4209A
:100EF0007B68DB431A40FB68C3F8B4200023184624
:100F00001437BD465DF8047B704700BF80B582B0E2
:100F100000AF7860786800F01EF800BF0837BD4663
:100F200080BD80B582B000AF7860786800F03EF890
:100F300000BF0837BD4680BD80B483B000AF786085
:100F40007B68D3F8003103F4803318460C37BD4674
:100F50005DF8047B704780B582B000AF78607B6835
:100F6000D3F8003123F001027B68C3F800217B68CD
:100F70000122C3F8002700BF7868FFF7DDFF0346B2
:100F8000002BF9D07B68D3F8003143F001027B6875
:100F9000C3F8002100BF7868FFF7CEFF0346002B9F
:100FA000F9D000BF00BF0837BD4680BD80B483B014
:100FB00000AF78607B68D3F8003123F001027B68D2
:100FC000C3F8002100BF0C37BD465DF8047B7047B5
:100FD00080B500AF024800F015F80346184680BD02
:100FE0000060004080B582B000AF78607968044846
:100FF00000F016F8034618460837BD4680BD00BF0E
:101000000060004080B483B000AF78607B681B69EB
:1010100003F0D00318460C37BD465DF8047B7047DB
:1010200080B483B000AF786039607B681B693A6830
:1010300002F0D002D2431A407B681A61002318469E
:101040000C37BD465DF8047B7047000080B500AFEB
:101050000F4B1B6803F48033002B16D00D4B1B681D
:10106000002B05DD0B4B1B68013B0A4A13600CE0AB
:1010700000F0BAF8084B1B68002B06D0064B1B6823
:1010800000209847044B00221A6000BF80BD00BFBB
:1010900010E000E0000000204C0F0020B0B586B04A
:1010A00000AF7860344B9B687B61334B1B6823F443
:1010B0008033324A1360304B1B6803F00103002B6E
:1010C00011D12D4B6FF07F425A602B4B6FF07F4256
:1010D0009A60294B05221A606FF07F437B614FF0C5
:1010E00080733B6103E0244B5B6801333B617B68A9
:1010F00018464FF00001224B1B681A464FF00003C0
:1011000002FB01F500FB03F42C44A0FB0201631871
:1011100019461C4A4FF0000306F022FB02460B461C
:101120001346FB60FA683B69B2FBF3F31A46164BB1
:101130001A60FB683A69B3FBF2F2396901FB02F20B
:101140009B1ABB60BA687B699A420CD30E4B1B6832
:1011500001330D4A13607A69BB68D21A3B691344A4
:101160000A4A136004E07A69BB68D31A074A13601D
:1011700000BF1837BD46B0BD10E000E0480F0020AA
:101180009411002040420F0000000020440F002076
:1011900080B582B000AF78603960104A3B68136058
:1011A0000F4B1B68002B02DD6FF0050312E07B681C
:1011B000002B01D100230DE07868FFF76FFF084B8B
:1011C0001B68002B05DD074B1B68064A43F0020332
:1011D0001360002318460837BD4680BD4C0F002021
:1011E0000000002010E000E080B500AF0A4B1B6853
:1011F000002B07D0084B1B686FF00F009847064B79
:1012000000221A60054A064B1B681360054B4FF01D
:10121000FF321A6000BF80BD4C0F002010E000E0DC
:10122000480F00200000002080B582B000AF786039
:10123000164B1B68002B02DD6FF0050321E07B6875
:10124000002B01D100231CE07868FFF727FF0AE09C
:101250000F4B1B6803F48033002B04D00B4B1B682F
:10126000013B0A4A1360094B1B68002BF0DC00BFEE
:10127000074B9A68074B1B689A42F9D8FFF7B4FFEF
:10128000002318460837BD4680BD00BF000000207F
:1012900010E000E0440F002080B483B000AF0346AC
:1012A000FB71FB793F2B0DD9FB79403BFB71184B50
:1012B000DB68FA79012101FA02F21146144A0B4364
:1012C000D3601EE0FB791F2B0FD9FB79203BFB710C
:1012D0004FF080439B6CFA79012101FA02F211462A
:1012E0004FF080420B4393640BE04FF080435B6A06
:1012F000FA79012101FA02F211464FF080420B43C4
:10130000536200BF0C37BD465DF8047B704700BFD9
:101310000000084080B483B000AF0346FB71FB7946
:101320003F2B0ED9FB79403BFB71194BDB68FA79F7
:10133000012101FA02F2D2431146154A0B40D36053
:1013400020E0FB791F2B10D9FB79203BFB714FF07C
:1013500080439B6CFA79012101FA02F2D2431146D3
:101360004FF080420B4093640CE04FF080435B6A87
:10137000FA79012101FA02F2D24311464FF080427C
:101380000B40536200BF0C37BD465DF8047B7047CD
:101390000000084080B582B000AF0346FB71FB79C6
:1013A000072B6CD801A252F823F000BF05140010DF
:1013B0007F140010371400102B140010CD130010F0
:1013C000E913001063140010211400104FF0804343
:1013D0009B684FF0804243F4002393604FF000601D
:1013E00000F056F803464CE04FF080439B684FF006
:1013F000804243F4801393604FF0805000F048F82F
:1014000003463EE04FF080439B684FF0804243F438
:10141000802393604FF0806000F03AF8034630E09C
:101420001A48FFF7F9F803462BE04FF0005000F0A0
:101430002FF8034625E04FF080435B6F4FF080426A
:1014400043F0110353674FF080439B684FF0804295
:1014500043F4803393604FF0807000F019F8034636
:101460000FE04FF080439B684FF0804243F400331D
:1014700093604FF0007000F00BF8034601E06FF04E
:10148000020318460837BD4680BD00BF540701104F
:1014900080B582B000AF786000214FF47A70FFF71A
:1014A00077FE00BF4FF080439A687B681340002BA3
:1014B000F8D0002318460837BD4680BD80B584B0FB
:1014C00000AF0346FB714FF080439B6803F46063F9
:1014D000FB60FB79072B00F2918001A252F823F008
:1014E0002B150010FD15001093150010BD150010F0
:1014F0000115001051150010D31500107B150010B8
:101500004FF080439B6803F40023002B02D104209A
:10151000FFF740FF4FF080439B6823F460634FF078
:10152000804243F4006393606BE04FF080439B681C
:1015300003F48023002B02D10020FFF72BFF4FF094
:1015400080439B684FF0804223F46063936058E0CF
:101550004FF080439B6803F48013002B02D10520D9
:10156000FFF718FF4FF080439B6823F460634FF050
:10157000804243F42063936043E00720FFF70AFFB3
:101580004FF080439B684FF0804243F46063936068
:1015900037E04FF080439B6803F48033002B02D187
:1015A0000220FFF7F7FE4FF080439B6823F460634F
:1015B0004FF0804243F48063936022E04FF0804319
:1015C0009B6823F460634FF0804243F4C0639360F0
:1015D00017E04FF080439B6803F40033002B02D1E7
:1015E0000620FFF7D7FE4FF080439B6823F460632B
:1015F0004FF0804243F44063936002E06FF00203D7
:1016000018E04FF40050FFF743FF0346002B0ED0C5
:101610004FF080439B6823F46062FB6803F46063CF
:101620004FF0804113438B606FF0090302E0FEF737
:101630006DFE002318461037BD4680BD80B483B0D0
:1016400000AF0346FB71FB793F2B12D9FB79403B7E
:10165000FB71FB7901229A401D4B9A6000BF1C4B25
:101660009B68FA79012101FA02F21340002BF6D1AE
:1016700028E0FB791F2B14D9FB79203BFB71FB7908
:1016800001229A404FF080435A6400BF4FF08043DC
:101690005B6CFA79012101FA02F21340002BF5D1BB
:1016A00010E0FB7901229A404FF080435A6000BF5E
:1016B0004FF080435B68FA79012101FA02F213408E
:1016C000002BF5D100BF0C37BD465DF8047B704799
:1016D0000000084080B586B000AFF860B9601346DE
:1016E000FB710023FB75BB68002B02D14FF0FF3369
:1016F0002CE1FB68974A93421FD0FB68964A9342BD
:1017000019D0FB68954A934213D0FB68944A9342E0
:101710000DD0FB68934A934207D0FB68924A9342EC
:1017200001D105230AE0FF2308E0042306E0032398
:1017300004E0022302E0012300E00023BB75BB6844
:10174000DB78013B052B71D801A252F823F000BFD2
:101750001518001069170010B11700108917001034
:10176000D1170010F3170010BB7D032B02D96FF0C7
:101770001003EBE00123FB750020FFF70BFE7B4914
:10178000F86800F067FA59E0BB7D032B02D900230B
:10179000FB7504E0BB7D032B01D80223FB750520FC
:1017A000FFF7F8FD4FF4E101F86800F053FA45E067
:1017B000BB7D032B02D96FF01003C7E00323FB7539
:1017C0000220FFF7E7FD6A49F86800F043FA35E0C8
:1017D000BB7D042B0AD10123FB750620FFF7DAFD40
:1017E0004FF40041F86800F035FA27E06FF010037D
:1017F000ACE0BB7D032B02D86FF01003A6E0022300
:10180000FB750320FFF7C6FD4FF4FA51F86800F0AE
:1018100021FA13E0BB7D022B05D80323FB750720BB
:10182000FFF7B8FD0AE06FF010038FE0514B1B6823
:101830005B081946F86800F00DFA00BFBB7D052B68
:101840007DD801A252F823F0611800108B18001007
:10185000B5180010DF180010091900101D1900102C
:101860000520FFF7EBFE0F20FFF754FDFB79002B5F
:101870005ED0BB689B78022B03D03F48FEF7CCFEBE
:1018800056E03E48FEF7C8FE52E00620FFF7D6FEBF
:101890001020FFF73FFDFB79002B4BD0BB689B78F6
:1018A000022B03D03648FEF7B7FE43E03548FEF77B
:1018B000B3FE3FE00720FFF7C1FE1120FFF72AFD2E
:1018C000FB79002B38D0BB689B78022B03D02E48C5
:1018D000FEF7A2FE30E02D48FEF79EFE2CE0082029
:1018E000FFF7ACFE1220FFF715FDFB79002B25D08A
:1018F000BB689B78022B03D02548FEF78DFE1DE0C8
:101900002448FEF789FE19E02348FEF785FE4220B1
:10191000FFF794FE4220FFF7FDFC10E01F48FEF7A2
:101920007BFE4320FFF78AFE4320FFF7F3FC06E02F
:1019300000BF04E000BF02E000BF00E000BFFB7D8D
:101940001A46B968F86800F0A7F803461846183731
:10195000BD4680BD00000140001001400020014054
:1019600000300140000C084000100840008793033D
:101970000048E80194110020600701106C07011075
:101980007807011084070110900701109C070110CF
:10199000A8070110B4070110C0070110CC070110FF
:1019A00080B582B000AF7860786800F04FFA7B684D
:1019B000164A934202D10F20FFF76EFC7B68144A4F
:1019C000934202D11020FFF767FC7B68114A9342D3
:1019D00002D11120FFF760FC7B680F4A934202D1CD
:1019E0001220FFF759FC7B680C4A934202D1422037
:1019F000FFF752FC7B680A4A934202D14320FFF76B
:101A00004BFC00BF0837BD4680BD00BF0000014051
:101A1000001001400020014000300140000C08404F
:101A20000010084080B582B000AF7860786800F0A0
:101A30005BFA00BF0837BD4680BD80B582B000AFFD
:101A40007860786800F09CFA00BF0837BD4680BD1A
:101A500080B582B000AF7860786800F0D5FA0346B0
:101A600018460837BD4680BD80B582B000AF7860AB
:101A7000786800F00DFB00BF0837BD4680BD80B51B
:101A800082B000AF786039603968786800F044FB54
:101A900000BF0837BD4680BD80B586B000AFF86096
:101AA000B9601346FB71FB68644A934220D0FB681F
:101AB000634A93421AD0FB68624A934214D0FB688F
:101AC000614A93420ED0FB68604A934208D0FB689B
:101AD0005F4A934201D105230BE04FF0FF3308E04A
:101AE000042306E0032304E0022302E0012300E0D4
:101AF00000233B61BB68002B02D14FF0FF3399E01C
:101B0000BB689B78022B02D110237B6101E000238C
:101B10007B61BB689B7803F00303002B06D0FB6856
:101B20009B6923F00042FB689A6105E0FB689B69B2
:101B300043F00042FB689A61FB68DB6843F00112E6
:101B4000FB68DA60FB681B69BA68127811467A692B
:101B500001FA02F21A43FB681A61FB689B69F97982
:101B60007A6901FA02F21A43FB689A61BB685B78F2
:101B7000072B5ED801A252F823F000BF9D1B001076
:101B8000A71B0010B11B00101B1C0010C91B00106C
:101B9000E11B0010EB1B0010031C0010B968F86873
:101BA00000F0A4F845E0B968F86800F09FF840E05C
:101BB000BB689B78022B02D16FF010033AE0B96842
:101BC000F86800F093F834E0BB689B78022B02D1F0
:101BD0006FF010032EE0B968F86800F087F828E08D
:101BE000B968F86800F082F823E0BB689B78022BA4
:101BF00002D16FF010031DE0B968F86800F076F8C4
:101C000017E0BB689B78022B02D16FF0100311E044
:101C1000B968F86800F06AF80BE0BB689B78022BA3
:101C200002D16FF0100305E0B968F86800F05EF8C3
:101C300000BF002318461837BD4680BD0000014094
:101C4000001001400020014000300140000C08401D
:101C50000010084080B485B000AF786039607B68C0
:101C60001B4A934220D07B681A4A93421AD07B6861
:101C7000194A934214D07B68184A93420ED07B686D
:101C8000174A934208D07B68164A934201D1052334
:101C90000BE04FF0FF3308E0042306E0032304E0E9
:101CA000022302E0012300E00023FB600E4AFB68F0
:101CB000012102F833103A680B49FB68DB000B4442
:101CC0005A6000BF1437BD465DF8047B704700BF03
:101CD00000000140001001400020014000300140A0
:101CE000000C084000100840500F002080B485B060
:101CF00000AF786039607B684E4A934220D07B68A1
:101D00004D4A93421AD07B684C4A934214D07B6868
:101D10004B4A93420ED07B684A4A934208D07B6874
:101D2000494A934201D105230BE04FF0FF3308E00D
:101D3000042306E0032304E0022302E0012300E081
:101D40000023BB603B68002B6DD03B689B78022B67
:101D500002D11023FB6001E00023FB607B681A695D
:101D60004FF48041FB6801FA03F31A437B681A6160
:101D700000BF7B689A690821FB6801FA03F31340EE
:101D8000002BF6D07B681B693A6852781146FA68D6
:101D900001FA02F21A437B681A617B681A693B6890
:101DA0009B681902FB6801FA03F31A437B681A6106
:101DB0000122FB6802FA03F31A467B681A6000BF2F
:101DC0007B68DA684FF48071FB6801FA03F3134013
:101DD000002BF5D03B685A68FB689A407B685A60D4
:101DE0007B689A694FF40051FB6801FA03F3DB4307
:101DF0001A407B689A613B689B78022B14D17B6800
:101E00009B6943F080727B689A617B681B6943F031
:101E100000427B681A6100BF7B689B6903F48023E2
:101E2000002BF9D000E000BF1437BD465DF8047BFD
:101E3000704700BF00000140001001400020014039
:101E400000300140000C08400010084080B485B00C
:101E500000AF78607B681D4A934220D07B681C4AA3
:101E600093421AD07B681B4A934214D07B681A4A6B
:101E700093420ED07B68194A934208D07B68184A77
:101E8000934201D105230BE04FF0FF3308E0042318
:101E900006E0032304E0022302E0012300E0002324
:101EA000FB607B6800221A6100BF7B689B6903F0BE
:101EB0000803002BF9D10B4AFB68002102F833100C
:101EC00000BF1437BD465DF8047B70470000014039
:101ED000001001400020014000300140000C08408B
:101EE00000100840500F002080B485B000AF78602B
:101EF0007B681D4A934220D07B681C4A93421AD0CB
:101F00007B681B4A934214D07B681A4A93420ED0D6
:101F10007B68194A934208D07B68184A934201D1E2
:101F200005230BE04FF0FF3308E0042306E0032312
:101F300004E0022302E0012300E00023FB607B6851
:101F40001B6943F400427B681A6100BF7B689B6990
:101F500003F00403002BF9D000BF00BF1437BD46C7
:101F60005DF8047B704700BF000001400010014095
:101F70000020014000300140000C084000100840E3
:101F800080B485B000AF78607B68194A934220D056
:101F90007B68184A93421AD07B68174A934214D040
:101FA0007B68164A93420ED07B68154A934208D04C
:101FB0007B68144A934201D105230BE04FF0FF33B5
:101FC00008E0042306E0032304E0022302E00123E7
:101FD00000E00023FB607B681B6923F400427B6800
:101FE0001A6100BF1437BD465DF8047B704700BF1F
:101FF000000001400010014000200140003001407D
:10200000000C08400010084080B485B000AF786034
:102010007B68194A934220D07B68184A93421AD0B1
:102020007B68174A934214D07B68164A93420ED0BD
:102030007B68154A934208D07B68144A934201D1C9
:1020400005230BE04FF0FF3308E0042306E00323F1
:1020500004E0022302E0012300E00023FB607B6830
:102060001B68BB607B681B68BB60BB681846143785
:10207000BD465DF8047B7047000001400010014040
:102080000020014000300140000C084000100840D2
:1020900080B485B000AF78607B68194A934220D045
:1020A0007B68184A93421AD07B68174A934214D02F
:1020B0007B68164A93420ED07B68154A934208D03B
:1020C0007B68144A934201D105230BE04FF0FF33A4
:1020D00008E0042306E0032304E0022302E00123D6
:1020E00000E00023FB607B68DB6843F001127B6843
:1020F000DA6000BF1437BD465DF8047B704700BF4F
:10210000000001400010014000200140003001406B
:10211000000C08400010084080B485B000AF786023
:1021200039607B681B4A934220D07B681A4A9342ED
:102130001AD07B68194A934214D07B68184A93429C
:102140000ED07B68174A934208D07B68164A9342A8
:1021500001D105230BE04FF0FF3308E0042306E034
:10216000032304E0022302E0012300E00023FB60DC
:102170007B683A681A6000BF7B68DB6803F4807391
:10218000002BF9D000BF00BF1437BD465DF8047BBB
:10219000704700BF000001400010014000200140D6
:1021A00000300140000C08400010084080B582B0AB
:1021B00000AF786039603968786800F04DFC0346FC
:1021C00018460837BD4680BD80B582B000AF786044
:1021D000786800F0DBFC034618460837BD4680BD32
:1021E00080B584B000AFF860B9607A607A68B96889
:1021F000F86800F0BBF8034618461037BD4680BDAE
:1022000080B582B000AF7860786800F0D5F80346FA
:1022100018460837BD4680BD80B584B000AFF86071
:10222000B9607A607A68B968F86800F0D4F8034653
:1022300018461037BD4680BD80B582B000AF7860CB
:10224000786800F0EEF8034618460837BD4680BDB2
:1022500080B582B000AF7860786800F0F5F803468A
:1022600018460837BD4680BD80B582B000AF7860A3
:1022700039603968786800F01BF90346184608375A
:10228000BD4680BD80B582B000AF7860786800F050
:1022900049F9034618460837BD4680BD80B582B06F
:1022A00000AF7860786800F04BF9034618460837AD
:1022B000BD4680BD80B582B000AF786039603968B6
:1022C000786800F049F9034618460837BD4680BDD6
:1022D00080B582B000AF786039603968786800F006
:1022E00065F9034618460837BD4680BD80B582B003
:1022F00000AF786039603968786800F085F9034686
:1023000018460837BD4680BD80B582B000AF786002
:10231000786800F0A7F9034618460837BD4680BD27
:1023200080B582B000AF7860786800F059FC034651
:1023300018460837BD4680BD80B483B000AF034661
:10234000FB71FB7903F01F03012202FA03F1064A35
:1023500097F907305B09403342F8231000BF0C3770
:10236000BD465DF8047B704700E100E080B487B0B3
:1023700000AFF860B9607A6000237B610FE0FB6812
:102380005B6803F01003002B0ED1FB68196ABA6872
:102390007B691344CAB21A707B6901337B617A6925
:1023A0007B689A42EBD300E000BF7B6918461C377C
:1023B000BD465DF8047B704780B483B000AF7860A1
:1023C0007B685B681B0A03F00F0318460C37BD4699
:1023D0005DF8047B704780B487B000AFF860B960E7
:1023E0007A6000237B610FE0FB685B6803F0800389
:1023F000002B0ED1BA687B6913441B781A46FB6820
:102400001A627B6901337B617A697B689A42EBD3FC
:1024100000E000BF7B6918461C37BD465DF8047BB1
:10242000704780B485B000AF78607B685B681B0B39
:1024300003F00F03FB60FB68C3F108031846143771
:10244000BD465DF8047B704780B483B000AF786010
:102450007B68134A93420ED07B68124A93420AD09B
:102460007B68114A934206D07B68104A934202D09F
:102470006FF002030DE07B681B6843F480727B6899
:102480001A6000BF7B681B6803F48073002BF9D1CE
:10249000002318460C37BD465DF8047B704700BF2B
:1024A0000020044000300440004004400014084074
:1024B00080B483B000AF786039607B68154A93427E
:1024C0000ED07B68144A93420AD07B68134A934229
:1024D00006D07B68124A934202D06FF0020313E0E9
:1024E0003B68002B02D03B68082B02D96FF0020337
:1024F0000AE07B681B6823F00F023B6803F00F03C0
:102500001A437B681A60002318460C37BD465DF8F5
:10251000047B704700200440003004400040044029
:102520000014084080B483B000AF78607B681B68FB
:1025300003F00F0318460C37BD465DF8047B704767
:1025400080B483B000AF78607B68DB6818460C37D6
:10255000BD465DF8047B704780B483B000AF7860FF
:1025600039607B680D4A93420ED07B680C4A9342D7
:102570000AD07B680B4A934206D07B680A4A934292
:1025800002D06FF0020303E07B683A68DA60002350
:1025900018460C37BD465DF8047B704700200440A8
:1025A00000300440004004400014084080B483B070
:1025B00000AF786039607B680F4A93420ED07B6829
:1025C0000E4A93420AD07B680D4A934206D07B683C
:1025D0000C4A934202D06FF0020306E07B689A68CF
:1025E0003B681A437B689A60002318460C37BD4647
:1025F0005DF8047B704700BF0020044000300440B9
:10260000004004400014084080B483B000AF7860FC
:1026100039607B680F4A93420ED07B680E4A934222
:102620000AD07B680D4A934206D07B680C4A9342DD
:1026300002D06FF0020307E07B689A683B68DB43D7
:102640001A407B689A60002318460C37BD465DF837
:10265000047B7047002004400030044000400440E8
:102660000014084080B586B000AF78607B681B68B6
:10267000874A934217D07B681B68864A934210D0E2
:102680007B681B68844A934209D07B681B68834A35
:10269000934201D1032307E04FF0FF3304E002230C
:1026A00002E0012300E000237B617B69002B02DA5A
:1026B0006FF0030331E17A4A7B6952F82330002B33
:1026C00014D1784A7B6952F82330002B0ED17B68F5
:1026D0001B684FF0FF311846FFF708FE7B681B6848
:1026E0004FF0FF311846FFF7E5FD19E06D4A7B69B1
:1026F00052F82330002B06D07B681B69002B02D0D8
:102700006FF0050309E1664A7B6952F82330002B1C
:1027100006D07B68DB68002B02D06FF00503FCE07D
:102720007B6800225A617B6800229A617B68DB68C3
:10273000002B78D07B685B68002B02D16FF002031E
:10274000EBE07B681B68524A934217D07B681B689A
:10275000504A934210D07B681B684F4A934209D07D
:102760007B681B684D4A934201D1032307E04FF079
:10277000FF3304E0022302E0012300E00023484984
:102780007A6841F823207B681B6840211846FFF7D0
:102790009FFD7B681B681846FFF74EFD38617B681C
:1027A000DA687B685B69D31A3A69934228BF13469B
:1027B0003B617B6818687B685A687B685B69134477
:1027C0003A691946FFF728FD02467B685B691A449F
:1027D0007B685A617B681B681846FFF72DFD03462E
:1027E000032B20D97B685A697B68DB689A421AD12F
:1027F0007B69002B13D07B695BB2012B0DD07B6909
:102800005BB2022B07D07B695BB2032B01D158234B
:1028100006E0002304E0222302E00F2300E00E2361
:102820001846FFF789FD7B681B69002B74D07B6815
:102830009B68002B0ED17B681B684FF0FF31184658
:10284000FFF754FD7B681B681846FFF701FD6FF02A
:10285000020362E07B681B680D4A934224D07B68C8
:102860001B680C4A934210D07B681B680A4A93424B
:1028700009D07B681B68094A934201D1032314E005
:102880004FF0FF3311E002230FE001230DE000BF02
:102890000020044000300440004004400014084080
:1028A000800F0020900F002000231E497A6841F815
:1028B00023207B681B680B211846FFF709FD7B6806
:1028C0001B6810211846FFF703FD7B681B6818463C
:1028D000FFF796FCF8607B681A697B689B69D31ADE
:1028E000FA68934228BF1346FB607B6818687B68D0
:1028F0009A687B689B691344FA681946FFF770FC75
:1029000002467B689B691A447B689A617B681B68F6
:1029100010211846FFF7CEFC002318461837BD4695
:1029200080BD00BF900F002080B584B000AF7860FC
:1029300039607B681D4A934214D07B681C4A9342DD
:102940000ED07B681B4A934208D07B681A4A934298
:1029500001D1032307E04FF0FF3304E0022302E03C
:10296000012300E00023FB60FB68002B02DA6FF01C
:10297000020316E0114AFB6852F82330BB60BB68C3
:10298000002B0DD0BB68DB69002B09D00B4AFB681C
:10299000002142F82310BB68DB693968B8689847A2
:1029A000002318461037BD4680BD00BF00200440FC
:1029B000003004400040044000140840800F002014
:1029C00080B584B000AF786039607B681D4A93425F
:1029D00014D07B681C4A93420ED07B681B4A9342FA
:1029E00008D07B681A4A934201D1032307E04FF0D5
:1029F000FF3304E0022302E0012300E00023FB6038
:102A0000FB68002B02DA6FF0020316E0114AFB6844
:102A100052F82330BB60BB68002B0DD0BB68DB696C
:102A2000002B09D00B4AFB68002142F82310BB6839
:102A3000DB693968B8689847002318461037BD46E7
:102A400080BD00BF0020044000300440004004402E
:102A500000140840900F002080B584B000AF78606B
:102A600039607B681B4A934214D07B681A4A9342B0
:102A70000ED07B68194A934208D07B68184A93426B
:102A800001D1032307E04FF0FF3304E0022302E00B
:102A9000012300E00023FB60FB68002B02DA6FF0EB
:102AA000020312E039687868FFF73EFF0D4AFB68C1
:102AB00052F823200C49FB6851F823309A4203D086
:102AC00039687868FFF77CFF002318461037BD4649
:102AD00080BD00BF0020044000300440004004409E
:102AE00000140840900F0020800F002080B582B0B5
:102AF00000AF78607B680D4A93420ED07B680C4A29
:102B000093420AD07B680B4A934206D07B680A4AFC
:102B1000934202D06FF0020304E040217868FFF78F
:102B2000E5FB002318460837BD4680BD0020044061
:102B300000300440004004400014084080B582B0DA
:102B400000AF78607B680D4A93420ED07B680C4AD8
:102B500093420AD07B680B4A934206D07B680A4AAC
:102B6000934202D06FF0020304E00B217868FFF774
:102B7000BDFB002318460837BD4680BD0020044039
:102B800000300440004004400014084080B582B08A
:102B900000AF78607B680E4A93420ED07B680D4A86
:102BA00093420AD07B680C4A934206D07B680B4A5A
:102BB000934202D06FF0020305E04FF0FF317868D6
:102BC000FFF794FB002318460837BD4680BD00BFC1
:102BD000002004400030044000400440001408403D
:102BE00090B589B000AF78607B68974A934214D063
:102BF0007B68964A93420ED07B68954A934208D0F0
:102C00007B68944A934201D1032307E04FF0FF33DE
:102C100004E0022302E0012300E00023FB61FB69E2
:102C2000002B02DA6FF003030AE17868FFF736FB46
:102C3000B861894AFB6952F82330002B0ED1874ACC
:102C4000FB6952F82330002B08D17B68DB681946FA
:102C50007868FFF72FFB6FF00303F1E07B689A6859
:102C6000BB69134003F00B03002B0AD07868FFF711
:102C7000ABFA6FF008017868FFF798FA6FF003037A
:102C8000DEE0754AFB6952F823307B617B69002BDB
:102C900030D07B69DB68002B2CD07B691B68184621
:102CA000FFF7CAFA38617B69DA687B695B69D31A16
:102CB0003A699A4205D97B69DA687B695B69D31AFC
:102CC00000E03B693B617B6918687B695A687B69F6
:102CD0005B6913443A691946FFF79EFA02467B691D
:102CE0005B691A447B695A617B691B6840211846FD
:102CF000FFF7E0FA594AFB6952F823307B617B69A0
:102D0000002B4CD0BB6903F01003002B47D07B692C
:102D10001B69002B43D07B691B681846FFF770FACC
:102D2000F8607B691A697B699B69D31AFA689A42D1
:102D300005D97B691A697B699B69D31A00E0FB6836
:102D4000FB607B6918687B699A687B699B6913449F
:102D5000FA681946FFF744FA02467B699B691A44F0
:102D60007B699A617B691A697B699B69D41A7B6963
:102D70001B681846FFF786FA03469C4209D27B6916
:102D800018687B691A697B699B69D31A1946FFF732
:102D90006BFA7B691B6810211846FFF78BFA2F4AE4
:102DA000FB6952F823202C49FB6951F823309A42E1
:102DB00017D17B69002B12D07B699A697B691B69EB
:102DC0009A420CD17B695A697B69DB689A4206D1C9
:102DD0007868FFF7F9F900217868FFF7E7F9002331
:102DE0002EE01E4AFB6952F823307B617B69002B81
:102DF0000ED07B699A697B691B699A4208D1786811
:102E0000FFF79CFE00217868FFF7DAFD002317E04A
:102E1000114AFB6952F823307B617B69002B0ED08D
:102E20007B695A697B69DB689A4208D17868FFF749
:102E30005DFE00217868FFF777FD002300E00023A6
:102E400018462437BD4690BD0020044000300440A1
:102E50000040044000140840800F0020900F002024
:102E6000B0B594B000AF78603A4B07F11C041D4632
:102E70000FCD0FC42B68236007F14803364918466D
:102E800000F01CFAF864FB6C002B07D0334B512286
:102E90003349344805F040FAFB6C56E007F11C0258
:102EA00007F144031146184600F008FAF864FB6C79
:102EB000002B07D0294B572229492A4805F02CFA24
:102EC000FB6C42E04FF4FA6000F0B0FB7B6C002139
:102ED000184600F042FAF864FB6C002B06D01F4B3A
:102EE0006B221F49204805F017FA29E04FF47A7049
:102EF00000F09CFBBB6C0021184600F02EFAF86431
:102F0000FB6C002B06D0154B73221549164805F0B3
:102F100003FA15E04FF47A7000F088FBBB6C0121D6
:102F2000184600F040FAF864FB6C002B06D00B4BFF
:102F30007B220B490D4805F0EFF901E0002304E086
:102F4000BB6C184600F0E7F9FB6C18465037BD46DD
:102F5000B0BD00BF0009011018000020600B011077
:102F6000FC0701105C08011090080110C80801104E
:102F700080B59CB000AF78607B689B68642B28BFED
:102F80006423FB667B685968FA6E07F108031846EC
:102F900005F0C4F807F10802FB6E134400221A7012
:102FA0007B681B6907F108021946034805F0B4F96C
:102FB00000BF7037BD4680BD1409011090B5A5B0A3
:102FC00002AF7860396000233B6607F15C03194665
:102FD000386804F0DBF8C7F88400D7F88430002B99
:102FE00006D0574BD6225749574805F095F995E03A
:102FF00007F15C031946554803F00EFAC7F8840040
:10300000D7F88430002B09D0D7F8843000934C4B8C
:10301000DC224C494E4805F07FF97FE04D4A07F12C
:10302000540392E8030083E80300484B1B6807F150
:1030300054021146184603F054FAC7F88400D7F832
:103040008430002B06D03E4BE7223E49424805F033
:1030500063F969E04149424805F05EF93B4B1B6862
:103060007B66404BBB6644F62063FB663E4B3B678A
:103070003E4B7B67C823BB67C823FB673C4BC7F845
:10308000803007F164031946786801F08FFAC7F8B9
:103090008400D7F88430002B06D0294BFA22294926
:1030A000344805F039F93FE0334B07F144040FCBC6
:1030B00084E80F007B681B6807F144010022184672
:1030C00001F0E4FAC7F88400D7F88430002B07D069
:1030D0001B4B40F209121B49284805F01DF920E05E
:1030E000274805F061F97B6818680023002225490C
:1030F00001F03CFBC7F88400D7F88430002B07D0E0
:103100000F4B4FF489720F491F4805F005F908E08D
:103110001C491E4805F000F900230CE0386803F054
:10312000F6FF786801F09EFA084B1B68184603F01A
:10313000B6F9D7F8843018468C37BD4690BD00BF2D
:10314000780B0110FC07011030090110A00F0020BE
:1031500064090110940A011088090110D8070110B0
:10316000B009011004000020A40F00206C10002002
:10317000712F0010D40901109C0A0110F8090110E8
:10318000200A01103C0A0110500A0110780A0110AF
:1031900080B5A4B000AF786007F118031049184655
:1031A00005F03AF90346C7F88C30002387F87C30E5
:1031B00007F11803C7F88030D7F88C30C7F884308F
:1031C000002387F8883007F17C031A4605497868A0
:1031D00001F09EFA034618469037BD4680BD00BFF9
:1031E000AC0A0110C40A011080B584B000AF07F129
:1031F00008031846FFF734FEF860FB68002B08D080
:10320000204B4FF4A3722049204805F085F8FB6855
:1032100033E0BA683B1D11461846FFF7CFFEF86051
:10322000FB68002B04D01A4805F0BEF8FB6824E0C8
:103230007B681846FFF7ACFFF860FB68002B03D0F3
:10324000144805F0B1F80FE0134805F0ADF87B68BD
:103250004FF4FA71184601F0AFFAF860FB68002BE2
:10326000E6D00E4805F0A0F8BB68184603F04FFF03
:103270007B68184601F0F6F9FB6818461037BD4622
:1032800080BD00BF980B0110FC070110CC0A011093
:10329000FC0A0110240B0110380B01104C0B01101B
:1032A00080B582B000AFFFF79FFF78607B68002B8E
:1032B00000BF7B6818460837BD4680BD80B584B026
:1032C00000AF786039603B68002B03D03B68DB6857
:1032D000002B02D16FF0150319E03B68DB681B6817
:1032E000002B02D16FF0570311E03B68DB681B68CD
:1032F000396878689847F860FB68002B01D0FB6854
:1033000005E07B681B683A68D268DA6000231846DB
:103310001037BD4680BD80B582B000AF78607B6855
:10332000002B15D07B68DB68002B02D16FF01503F2
:103330000FE07B68DB689B68002B02D16FF05703BE
:1033400007E07B68DB689B6878689847034600E085
:10335000002318460837BD4680BD80B582B000AF57
:1033600078600B46FB707B68002B17D07B68DB68AE
:10337000002B02D16FF0150311E07B68DB681B693D
:10338000002B02D16FF0570309E07B68DB681B69F3
:10339000FA78114678689847034600E000231846FB
:1033A0000837BD4680BD80B582B000AF78600B465F
:1033B000FB707B68002B17D07B68DB68002B02D189
:1033C0006FF0150311E07B68DB689B69002B02D16D
:1033D0006FF0570309E07B68DB689B69FA78114658
:1033E00078689847034600E0002318460837BD4632
:1033F00080BD80B584B000AFF860B9607A60FB68CA
:10340000002B03D0FB685B68002B02D16FF0150323
:103410000FE0FB685B689B68002B02D16FF05703DD
:1034200007E0FB685B689B687A68B968F86898474A
:10343000034618461037BD4680BD000080B584B0F5
:1034400000AF786039603B68002B03D03B68DB68D5
:10345000002B02D16FF015032AE03B68DB681B6884
:10346000002B02D16FF0570322E03B68DB681B683A
:10347000396878689847F860FB68002B01D0FB68D2
:1034800016E07B681B683A68D2681A613B681B8843
:103490009B00094A1344184604F08DF83B681B88CA
:1034A00019467B681B68044A52F821201A600023E1
:1034B00018461037BD4680BD3411002080B582B05B
:1034C00000AF78607B68002B03D07B681B69002B02
:1034D00002D16FF0150319E07B681B691B6A002B92
:1034E00002D16FF0570311E07B681B68184604F0A7
:1034F00080F87B689B881946064B002243F8212000
:103500007B681B691B6A786898470346184608372A
:10351000BD4680BD3411002080B582B000AF786018
:103520007B68002B03D07B681B69002B02D16FF0F6
:1035300015030DE07B681B695B68002B02D16FF0FF
:10354000570305E07B681B695B687868984703460A
:1035500018460837BD4680BD80B582B000AF7860A0
:1035600039607B68002B06D07B681B69002B02D07A
:103570003B68002B02D16FF015030EE07B681B69DE
:10358000DB68002B02D16FF0570306E07B681B69F4
:10359000DB68396878689847034618460837BD469F
:1035A00080BD80B586B000AFF860B9607A60FB6816
:1035B000002B06D0FB685B69002B02D0BB68002B98
:1035C00002D16FF015031AE0FB685B699B68002B62
:1035D00002D16FF0570312E0FB681B68184603F036
:1035E000F4FFFB685B699B687A68B968F86898477C
:1035F0007861FB681B68184603F0F1FF7B69184689
:103600001837BD4680BD0000B0B500AFFDF71EFD08
:10361000054BD3E90023541C43F10005024BC3E9D9
:10362000004500BFB0BD00BF4811002080B582B08A
:1036300000AF78607B684FF47A7202FB03F31846A0
:10364000FDF7F2FD00BF0837BD4680BD80B485B0F0
:1036500000AFF860B9601346FB71FB79002B06D010
:10366000FB681A68BB681A43FB681A6006E0FB68CF
:103670001A68BB68DB431A40FB681A6000BF143746
:10368000BD465DF8047B704780B588B000AF7860B8
:1036900039603B68002B07D03B681B69002B03D0C7
:1036A0003B685B681F2B02DD6FF015039AE0142165
:1036B000012003F09EFE78617B69002B02D16FF040
:1036C0000B038FE00C21012003F093FE38613B696E
:1036D000002B03D16FF00B03FB617FE03B681B699C
:1036E000FB603B681B7A022B0CD0022B0DDC002BFD
:1036F00002D0012B03D008E00023BB6109E00123C5
:10370000BB6106E00223BB6103E06FF01503FB61C0
:1037100061E03B681B68042B03DD6FF01503FB6160
:1037200059E03B681B68002B19D03B681B68012BD4
:1037300013D03B681B68022B0DD03B681B68032B22
:1037400007D03B681B68042B01D1284B08E00023FD
:1037500006E0274B04E0274B02E0274B00E0274B15
:103760003A6913603B685B68012202FA03F31A4668
:103770003B695A60BB69DAB23B695A723B69002205
:103780001A72FB681A783B699A723B681A687B69FF
:103790001A603B685A687B695A603B681A7A7B6991
:1037A0001A727B693A691A613B681B681846FCF714
:1037B00007FF7B691B691846FCF72EFFF861FB6960
:1037C000002B03D06FF01503FB6104E07B687A697E
:1037D0001A60002306E0386903F019FE786903F0E7
:1037E00016FEFB6918462037BD4680BD00C000406C
:1037F0000004084000A0004000900040008000400D
:1038000080B582B000AF786039603B68002B04D18E
:103810007B6800221A60002304E039687868FFF7AB
:1038200033FF034618460837BD4680BD80B582B0D9
:1038300000AF78607B68002B02D16FF0150308E0C1
:103840007B681B69184603F0E2FD786803F0DFFD32
:10385000002318460837BD4680BD80B584B000AF50
:1038600078607B68002B03D07B685B681F2B02DDD0
:103870006FF0150309E07B681B69FB60FB680022A1
:103880001A72F868FCF7C8FE002318461037BD46C8
:1038900080BD80B584B000AF78600B46FB707B685C
:1038A000002B06D07B685B681F2B02DCFB78012BAA
:1038B00002D96FF0150330E07B681B69FB60FB6881
:1038C0001B68BB60FB6801221A72F868FCF7A4FE53
:1038D0007B685B68012202FA03F301221946B8688B
:1038E000FFF7B4FEFB78002B02D0012B0AD013E0C7
:1038F0007B685B68012202FA03F31946B868FDF79A
:10390000D3F809E07B685B68012202FA03F31946E9
:10391000B868FDF7A7F800BF002318461037BD466A
:1039200080BD80B485B000AF786039607B68002BC3
:1039300003D07B685B681F2B02DD6FF015030EE080
:103940007B681B69FB60FB681B7A012B03D13B681A
:1039500001221A7002E03B6800221A700023184608
:103960001437BD465DF8047B704780B584B000AF66
:1039700078600B46FB707B68002B03D07B685B682C
:103980001F2B02DD6FF015033CE07B681B69FB60B9
:10399000FB681B68BB607B685B68012202FA03F36B
:1039A00001221946B868FFF751FEFB78022B1AD0A6
:1039B000022B23DC002B02D0012B0AD01EE07B68F7
:1039C0005B68012202FA03F31946B868FDF76CF848
:1039D00017E07B685B68012202FA03F31946B868B6
:1039E000FDF740F80DE07B685B68012202FA03F303
:1039F00000221946B868FFF729FE02E06FF01503B0
:103A000000E0002318461037BD4680BD80B584B065
:103A100000AF786039607B68002B03D07B685B68FF
:103A20001F2B02DD6FF0150337E07B681B69FB601D
:103A3000FB681B68BB607B685B68012202FA03F3CA
:103A400001221946B868FFF701FEFB681B7A002BBC
:103A500011D17B685B68012202FA03F31946B8684A
:103A6000FCF7DCFF02467B685B6822FA03F3DAB2FC
:103A70003B681A7010E07B685B68012202FA03F36E
:103A80001946B868FDF734F802467B685B6822FA8D
:103A900003F3DAB23B681A70002318461037BD46AC
:103AA00080BD80B500AF0020FDF746F800BF80BDA7
:103AB00080B500AF0120FDF73FF800BF80BD80B5A5
:103AC00000AF0220FDF738F800BF80BD80B500AF21
:103AD0000320FDF731F800BF80BD000080B58AB03B
:103AE00000AF786007F1100300221A605A609A60F4
:103AF000DA607B68404A93425BD07B683E4A9342DF
:103B000003D07B683D4A934251D07B683A4A934246
:103B100007D07B68394A934203D07B68384A934286
:103B200043D07B68344A93420BD07B68334A93423C
:103B300007D07B68324A934203D07B68314A934274
:103B400031D07B682C4A93420FD07B682B4A93423A
:103B50000BD07B682A4A934207D07B68294A93425C
:103B600003D07B68284A93421BD07B68224A934249
:103B700015D07B68214A934211D07B68204A93423A
:103B80000DD07B681F4A934209D07B681E4A93423E
:103B900005D07B681D4A934201D10A230AE0002325
:103BA00008E0092306E0082304E0072302E00623D7
:103BB00000E005233B61164B7B627B6A5B6807F183
:103BC000100207F10C01184603F06EFC38623B6AE4
:103BD000002B0DD1FB689B68002B05D0FB689B6810
:103BE000FA68D268104698477868FDF73DFF00E014
:103BF00000BF2837BD4680BD0000014000100140D5
:103C00000020014000300140000C08400010084036
:103C10006000002080B584B000AF78607B681B4AEC
:103C2000934214D07B681A4A93420ED07B68194A9B
:103C3000934208D07B68184A934201D1032307E0DE
:103C40004FF0FF3304E0022302E0012300E00023F1
:103C50005B01124A1344FB607868FEF761FBFB6866
:103C60001B68002B0ED0FB689B69002B03D1FB68FF
:103C70001B69002B03D1FB68DB68002B02D0F868BE
:103C8000FEF742FB00BF1037BD4680BD0020044058
:103C90000030044000400440001408409C11002003
:103CA00080B500AF0248FFF7B5FF00BF80BD00BF81
:103CB0000020044080B500AF0248FFF7ABFF00BF13
:103CC00080BD00BF0030044080B500AF0248FFF760
:103CD000A1FF00BF80BD00BF0040044080B500AF21
:103CE0000248FFF797FF00BF80BD00BF00140840E7
:103CF00080B500AF0248FFF7F1FE00BF80BD00BFF6
:103D00000000014080B500AF0248FFF7E7FE00BFAA
:103D100080BD00BF0010014080B500AF0248FFF732
:103D2000DDFE00BF80BD00BF0020014080B584B033
:103D300000AFFDF74DF90346FB60124BBB60FB681B
:103D400003F04003002B19D04020FDF74BF9BB686E
:103D50005B683A461146184603F07FFB78607B6843
:103D6000002B0ADB3B689B68002B07D03B689B68F5
:103D70003A68D2681046984700E000BF1037BD4649
:103D800080BD00BF5000002080B483B000AF7860D9
:103D900039607B68B3F5805F02D96FF015035BE093
:103DA0007B68012B03D83B6800221A7053E07B68C4
:103DB000032B03D83B6810221A704CE07B68072B5A
:103DC00003D83B6820221A7045E07B680F2B03D88C
:103DD0003B6830221A703EE07B681F2B03D83B689B
:103DE00040221A7037E07B683F2B03D83B68502293
:103DF0001A7030E07B687F2B03D83B6860221A7012
:103E000029E07B68FF2B03D83B6870221A7022E000
:103E10007B68B3F5007F03D23B6880221A701AE0FA
:103E20007B68B3F5806F03D23B6890221A7012E072
:103E30007B68B3F5006F03D23B68A0221A700AE0DA
:103E40007B68B3F5805F03D23B68B0221A7002E052
:103E50003B68C0221A70002318460C37BD465DF837
:103E6000047B704780B588B000AF786039603B68EC
:103E7000002B03D03B681B88052B02D96FF015037C
:103E80008DE01821012003F0B4FAB861BB69002B62
:103E900002D16FF00B0382E00C21012003F0A9FA9C
:103EA00078617B69002B03D16FF00B03FB6172E03B
:103EB0003B681A88BB699A803B685A68BB699A60FC
:103EC0003B689A68BB69DA603B681B88002B1FD08F
:103ED0003B681B88012B19D03B681B88022B13D031
:103EE0003B681B88032B0DD03B681B88042B07D035
:103EF0003B681B88052B01D12B4B0AE0002308E00F
:103F00002A4B06E02A4B04E02A4B02E02A4B00E051
:103F10002A4B3B612A4B1B685A083B685B68B2FB23
:103F2000F3F3FB6007F10B031946F868FFF72CFF6A
:103F3000F861FB69002B2AD17B6900229A707B69AA
:103F400001225A707B690022DA70BB69DA687B69EA
:103F50005A607B6901229A60FA7A7B691A70BB69A0
:103F60007A695A613869FDF71BFD00227969386961
:103F7000FDF7B0FBF861FB69002B03D06FF0150370
:103F8000FB6105E07B68BA691A60002307E000BFA7
:103F9000786903F03CFAB86903F039FAFB6918460E
:103FA0002037BD4680BD00BF00100840000C08400F
:103FB000003001400020014000100140000001409D
:103FC0009411002080B582B000AF78607B68002B30
:103FD00002D16FF0150330E07B689B88002B1FD067
:103FE0007B689B88012B19D07B689B88022B13D0A0
:103FF0007B689B88032B0DD07B689B88042B07D0A4
:104000007B689B88052B01D10E4B0AE0002308E05A
:104010000D4B06E00D4B04E00D4B02E00D4B00E0B4
:104020000D4B1846FDF7BCFC7B685B69184603F036
:10403000EEF9786803F0EBF9002318460837BD461F
:1040400080BD00BF00100840000C08400030014057
:1040500000200140001001400000014080B582B006
:1040600000AF78607B68002B02D16FF0150328E069
:104070007B689B88002B1FD07B689B88012B19D005
:104080007B689B88022B13D07B689B88032B0DD009
:104090007B689B88042B07D07B689B88052B01D10C
:1040A0000A4B0AE0002308E0094B06E0094B04E054
:1040B000094B02E0094B00E0094B1846FDF7B2FC42
:1040C000002318460837BD4680BD00BF00100840D9
:1040D000000C084000300140002001400010014069
:1040E0000000014080B582B000AF78607B68002B93
:1040F00002D16FF0150328E07B689B88002B1FD04E
:104100007B689B88012B19D07B689B88022B13D07E
:104110007B689B88032B0DD07B689B88042B07D082
:104120007B689B88052B01D10A4B0AE0002308E03D
:10413000094B06E0094B04E0094B02E0094B00E0A3
:10414000094B1846FDF779FC002318460837BD4691
:1041500080BD00BF00100840000C08400030014046
:1041600000200140001001400000014080B582B0F5
:1041700000AF786039607B68002B02D16FF01503C7
:104180002BE07B689B88002B1FD07B689B88012BD2
:1041900019D07B689B88022B13D07B689B88032BEC
:1041A0000DD07B689B88042B07D07B689B88052BF0
:1041B00001D10C4B0AE0002308E00B4B06E00B4B4F
:1041C00004E00B4B02E00B4B00E00B4B1846FDF7F5
:1041D0003FFC02463B681A60002318460837BD467C
:1041E00080BD00BF00100840000C084000300140B6
:1041F00000200140001001400000014080B582B065
:1042000000AF786039607B68002B05D01B4B1B68C2
:104210005B083A689A4202D36FF0150329E07B6885
:104220009B88002B1FD07B689B88012B19D07B6853
:104230009B88022B13D07B689B88032B0DD07B6857
:104240009B88042B07D07B689B88052B01D10C4BE6
:104250000AE0002308E00B4B06E00B4B04E00B4B9D
:1042600002E00B4B00E00B4B39681846FDF707FCEA
:10427000002318460837BD4680BD00BF94110020BA
:1042800000100840000C08400030014000200140B0
:10429000001001400000014080B483B000AF78609E
:1042A00039607B68002B02D16FF0150304E07B6856
:1042B0009A683B681A60002318460C37BD465DF8C3
:1042C000047B704780B588B000AF786039607B6848
:1042D000002B02D16FF01503FFE07B689B88002B59
:1042E0001FD07B689B88012B19D07B689B88022B91
:1042F00013D07B689B88032B0DD07B689B88042B95
:1043000007D07B689B88052B01D1764B0AE0002300
:1043100008E0754B06E0754B04E0754B02E0754B09
:1043200000E0754B1B6903F40043FB61734B1B6892
:104330005A083B68B2FBF3F3BB6107F10F03194660
:10434000B869FFF721FD78617B69002B01D07B699B
:10435000C3E07B685B693B61FA7B3B691A7007F1DC
:10436000080319467868FFF7F7F878617B69002B36
:1043700001D07B69B1E07B689B88002B1FD07B68F4
:104380009B88012B19D07B689B88022B13D07B68FC
:104390009B88032B0DD07B689B88042B07D07B6800
:1043A0009B88052B01D14F4B0AE0002308E04E4BC0
:1043B00006E04E4B04E04E4B02E04E4B00E04E4B0D
:1043C0001846FDF7EDFA7B689B88002B1FD07B68B1
:1043D0009B88012B19D07B689B88022B13D07B68AC
:1043E0009B88032B0DD07B689B88042B07D07B68B0
:1043F0009B88052B01D13B4B0AE0002308E03A4B98
:1044000006E03A4B04E03A4B02E03A4B00E03A4B0C
:10441000002239691846FDF75DF978617B69002B48
:1044200002D06FF0150358E07B689B88002B1FD0EB
:104430007B689B88012B19D07B689B88022B13D04B
:104440007B689B88032B0DD07B689B88042B07D04F
:104450007B689B88052B01D1224B0AE0002308E0F2
:10446000214B06E0214B04E0214B02E0214B00E010
:10447000214BBA6811461846FDF701FBFB69002B7A
:1044800027D07B689B88002B1FD07B689B88012BE3
:1044900019D07B689B88022B13D07B689B88032BE9
:1044A0000DD07B689B88042B07D07B689B88052BED
:1044B00001D10C4B0AE0002308E00B4B06E00B4B4C
:1044C00004E00B4B02E00B4B00E00B4B1846FDF7F2
:1044D000A9FA7B683A689A60002318462037BD46DF
:1044E00080BD00BF00100840000C084000300140B3
:1044F0000020014000100140000001409411002004
:1045000080B483B000AF786039606FF0570318460D
:104510000C37BD465DF8047B7047000080B588B05D
:1045200000AF78607B681B68DB683B617B681B6859
:104530009B68FB607B681B681B783B727B681B6811
:104540005B78002B14BF01230023DBB23B757B6833
:104550005B680433FB61FB691B680133184603F099
:104560001BFB0346BB61BB69002B18D0B869FB6914
:104570005968FB691B681A4603F0D0FDBB69FA69EC
:104580001268134400221A70074B1B6807F10802D7
:1045900010469847BB69184603F006FB00E000BFD1
:1045A0002037BD4680BD00BF50110020F0B589B056
:1045B00004AF786039607B68002B02D03B68002B29
:1045C00002D14FF0FF3342E07421012003F04AFA98
:1045D0000346FB60FB68002B02D14FF0FF3336E04F
:1045E0003B685B68184600F0F7F8B860BB68002BC2
:1045F00005DAF86803F0D8FA4FF0FF3327E03B689C
:104600001A68FB689A66FB68134ADA66FB68134A05
:104610001A673B68DB69124A1360F868FB6803F1AC
:1046200068043B689D683B68DE683B685B693A6884
:1046300012693968896902910192009333462A46CA
:10464000214600F046FA7B68FA681A600023184693
:104650001437BD46F0BD00BF4F490010C5490010DA
:104660005011002080B582B000AF78607B68002BCD
:1046700002D14FF0FF3305E0786803F095FA00F0BF
:10468000DFF8002318460837BD4680BD80B59CB0D2
:1046900000AFF860B9607A60FB68002B02D0BB689D
:1046A000002B02D14FF0FF332BE0184A07F1100323
:1046B00011465822184603F031FDBB681B783B7643
:1046C000BB685B68FB61BB689B683B65BB68DB687C
:1046D000FB65BB685B883B85FB6807F1680207F1F7
:1046E0001001184600F0A6FDF8667B68002B07D085
:1046F00097F868207B685A7097F869207B681A7071
:10470000FB6E18467037BD4680BD00BFF00B011030
:1047100080B588B000AFF860B9607A60FB68002BA4
:1047200002D07B68002B02D14FF0FF331AE007F173
:10473000100300221A605A609A60DA607B685B6836
:10474000BB617B689B68FB617B681B783B747B6803
:104750001B7B7B74FB6807F11002B968184600F0F8
:10476000F3FE034618462037BD4680BD80B588B0AD
:1047700002AFF860B9603B601346FB71FB68002B29
:1047800002D14FF0FF3310E0F868FA7907F1100317
:104790000093084BB96800F049FE78613B68002B34
:1047A00002D03A7C3B681A707B6918461837BD46C0
:1047B00080BD00BF1D45001080B582B000AF78609D
:1047C00039607B683A681146184600F0E3FC0346FE
:1047D00018460837BD4680BD80B584B000AF78600C
:1047E00079681548FEF72AFEF860FB68002B05DAA9
:1047F000114B00221A604FF0FF3319E00E4B1B687B
:104800001846FEF789FEF860FB68002B0ADA0A4BAF
:104810001B681846FEF752FE074B00221A604FF045
:10482000FF3305E0054B1B680133044A1360002386
:1048300018461037BD4680BD541100205811002085
:1048400080B500AF094B1B68013B084A1360074B5A
:104850001B68002B07D1064B1B681846FEF72EFE7F
:10486000034B00221A6000BF80BD00BF581100201A
:104870005411002080B483B000AF786000BF0C37C3
:10488000BD465DF8047B704780B582B000AF7860AC
:104890003960074B1B687A6811461846FEF75CFEC4
:1048A0007B683A685A6000BF0837BD4680BD00BFCC
:1048B0005411002080B582B000AF78603960094B98
:1048C0001B687A6811461846FEF746FE3B684FF4AF
:1048D0007A7202FB03F27B685A6000BF0837BD465C
:1048E00080BD00BF5411002080B584B000AF786057
:1048F0000D4B1B6807F10C0211461846FEF72CFE03
:10490000FA687B681B68D31AFB607B685A68FB688F
:104910009A4201D2002303E07B685A68FB68D31AED
:1049200018461037BD4680BD5411002080B582B0B6
:1049300000AF78607868FFF7D7FF0346002B01D1FE
:10494000012300E0002318460837BD4680BD80B52E
:1049500086B000AFF860B9607A603B607B68002B7E
:1049600001D100232AE000237B61FB681868BA6844
:104970007B69D1187A687B69D31A1A4601F0F0FD79
:1049800038613B6913F10B0F0ED03B69002B01DA44
:104990003B6913E03B697A6913447B617B687A6900
:1049A0009A4201D37B6909E00120FEF73FFE3B6894
:1049B000013B3B603B68002BD7D1002318461837DA
:1049C000BD4680BD80B584B000AFF860B9607A6044
:1049D0003B60FB681B687A68B968184601F0A4FD63
:1049E000034618461037BD4680BD80B485B000AF81
:1049F000F860B9607A60FB68BA685A60FB687A68E8
:104A00001A6000BF1437BD465DF8047B704780B460
:104A100083B000AF78607B681B684FF6FF729342EB
:104A200003D07B681B68013300E001237A681360C0
:104A30007B681B6818460C37BD465DF8047B7047E1
:104A4000F0B587B000AFF860B9607A604FF0FF331F
:104A50007B6100233B6118E0FB685B6D9C68FB6831
:104A60005D6DFB681A693B69D6187868FFF73CFFF3
:104A70000346BA6831462846A04778617B69002B17
:104A80000EDB3A697B6913443B613A69BB689A4221
:104A900007DA7868FFF74AFF0346002BDCD000E016
:104AA00000BF3A69BB689A420BD1FB6803F1580218
:104AB000FB689B6919461046FFF7FCFE00237B61EB
:104AC00002E04FF0FF337B617B6918461C37BD461F
:104AD000F0BD80B586B000AFF860B9607A603B6029
:104AE000FB68BA685A6500237B6108E0FB687A6955
:104AF0000532002143F832107B6901337B617B6909
:104B0000042BF3DDFB687A685A60FB683A681A6127
:104B1000FB683A6A9A60FB687A6A5A61FB68BA6A0B
:104B2000DA60FB6800221A62FB6800225A62FB68A6
:104B300000221A77FB6800221A65FB6801221A60BE
:104B4000FB6858331846FFF795FEFB68603318463C
:104B5000FFF790FE00BF1837BD4680BD90B58BB003
:104B600000AFF860B9607A6001237B6200233B628A
:104B70000423FB61BB6800221A604FF0FF33BB6166
:104B80003B6A01333B623A6AFB699A4203DD4FF0AC
:104B9000FF33BB6121E0FB685B6D5C68FB68586DAF
:104BA00007F117017B680122A047B861BB69012B9F
:104BB00012D1BB681A68FB7D03F07F03796A01FBA1
:104BC00003F31A44BB681A607B6ADB017B62FB7DDE
:104BD0005BB2002BD1DB00E000BF3B6A18462C37EC
:104BE000BD4690BDF0B589B000AFF860B960002354
:104BF0007B610023BB6100233B61FB685B6D5C68EC
:104C0000FB685D6DFB685E69B868FFF76DFE034683
:104C1000012231462846A047F861FB69012B5DD18E
:104C20000123BB61B868FFF75FFE024607F110037E
:104C30001946F868FFF792FFFB685B6901333A6930
:104C40001146184600F0EDFF0246BB691344BB61F4
:104C5000FB68DA68BB69D31A3A69934203D26FF0F2
:104C60000103FB613DE03B69002B20DDFB685B6DD0
:104C70005C68FB685D6DFB685A69BB69D6183B6967
:104C80007B60B868FFF730FE03467A6831462846F5
:104C9000A04702463B699A4214BF01230023DBB2BE
:104CA000FB61FB69002B02D00023FB6119E0FB686C
:104CB0005B691B783B753B7DC3F30313DBB2FB6180
:104CC000FB689B69002B0BD0FB6803F16002FB685B
:104CD0009B6919461046FFF7EDFD02E000BF00E0BA
:104CE00000BFFB6918462437BD46F0BD80B487B0CD
:104CF00000AF786039607B687B613B689B683B6193
:104D00003B685B681A463B691344BB6039E03B690A
:104D10001B782F2B03D17B691B782F2B3AD17B6912
:104D20001B782B2B09D07B691B78232B05D07B6943
:104D30001A783B691B789A422ED17B691B782B2B02
:104D400012D13B690133FB6005E03B6901333B61F4
:104D50003B690133FB60FA68BB689A420BD2FB687F
:104D60001B782F2BF1D106E07B691B78232B02D116
:104D7000BB68013B3B617B6901337B613B6901336C
:104D80003B617B691B78002B07D03A69BB689A426C
:104D9000BDD302E000BF00E000BF3A69BB689A42A1
:104DA00005D17B691B78002B01D1012300E0002392
:104DB000DBB218461C37BD465DF8047B704780B5F2
:104DC0008AB000AFF860B9607A604FF0FF333B62A1
:104DD00000237B623CE0FB687A6A053253F832308C
:104DE000002B32D0FB687A6A053253F8323019460C
:104DF000B86801F0E5F80346002B0BD1FB687A6A2E
:104E0000053253F83230B9681846FFF76FFF034692
:104E1000002B1AD0FA687B6A0533DB0013445B6809
:104E2000002B12D007F118037A68B9681846FFF70B
:104E3000DCFDFA687B6A0533DB0013445B6807F12D
:104E400018021046984700233B627B6A01337B625D
:104E50007B6A042BBFDD3B6AB3F1FF3F12D1FB68D5
:104E60001B6D002B0ED007F110037A68B968184645
:104E7000FFF7BBFDFB681B6D07F11002104698475A
:104E800000233B623B6A18462837BD4680BD80B58B
:104E900086B000AF786000237B617B689B69002B44
:104EA0003ED07B6858331846FFF740FD0346002B81
:104EB00007D17B6860331846FFF738FD0346002BA7
:104EC00030D07B681B7F002B03D04FF0FF337B611A
:104ED00029E007F108031846FFF7CCFC07F10803A7
:104EE0004FF47A711846FFF7CFFC7B681A697B682C
:104EF0009B681946104600F0C8FD38613B69002BDD
:104F000011DD07F108031A4639697868FFF798FD43
:104F100078617B69002B06D17B6801221A7702E059
:104F200000BF00E000BF7B6918461837BD4680BD52
:104F300080B485B000AF78600023FB600023FB6085
:104F400008E07B68FA680532002143F83210FB68FC
:104F50000133FB60FB68042BF3DD00BF00BF143797
:104F6000BD465DF8047B704780B582B000AF7860C5
:104F70007B6800221A777B6800221A627B685B6A72
:104F8000002B02D07868FFF7D3FF00BF0837BD467B
:104F900080BD0000F0B595B006AF786039600023A1
:104FA0007B6300233B6339687868FFF71BFEF86278
:104FB000FB6A0D2B1ED801A252F823F04B510010B2
:104FC000F54F00104B510010FB4F00104B510010DB
:104FD000C7500010C75000104B510010F54F001083
:104FE0004B510010F54F00104B510010F54F0010C1
:104FF00043510010FB6A3B63B9E00023FB617B680F
:105000005B697A68D268164607F11002151D07F130
:105010001002541C07F10C0107F11002901C0496B9
:10502000039307F110030C33029307F110030833C5
:10503000019307F1200300932B46224600F034FD34
:105040000346012B40F09080FB68DBB23B7407F114
:10505000100207F1200319467868FFF7B0FE3B7C89
:10506000002B74D03B7C012B0CD17B6818697B68CA
:105070009B681946BB8A00930023042201F06DF857
:1050800078630EE03B7C022B0BD17B6818697B6850
:105090009B681946BB8A00930023052201F05DF846
:1050A00078637B6B002B03DC4FF0FF333B6305E041
:1050B0003A68796B7868FFF7C3FC38633B6BB3F1F0
:1050C000FF3F44D153E07B685C697B68DB6807F194
:1050D0000A0207F1090107F108000093234600F0D6
:1050E00055FD0346012B03D04FF0FF333B6323E014
:1050F0007B6818697B689B681946FB6A052B01D1A0
:10510000062200E007227B890093002301F025F8A6
:1051100078637B6B002B03DC4FF0FF333B630BE0CA
:105120003A68796B7868FFF78BFC38633B6B002B30
:1051300002D04FF0FF333B633B6BB3F1FF3F08D12D
:1051400015E07B6800221A7704E000BF02E000BF90
:1051500000E000BF7868FFF79AFE0346002B05D0F9
:105160004FF0FF333B6302E000BF00E000BF3B6B4A
:10517000002B02D1FB6A3B6306E07B681B6A002BB5
:1051800002D07868FFF7F0FE3B6B18463C37BD460F
:10519000F0BD00BF80B586B000AF786039600023F5
:1051A0007B6107F10C031846FFF764FB3A6807F1CF
:1051B0000C0311461846FFF767FB07F10C0319466D
:1051C0007868FFF7E7FE0346002B03DA4FF0FF3362
:1051D0007B6107E007F10C031846FFF7A7FB0346C6
:1051E000002BEAD07B6918461837BD4680BD80B5D4
:1051F00086B000AFF860B9607A604FF0FF337B6132
:105200007868FFF793FB0346002B0CD17968F868A8
:10521000FFF7C0FE78617A69BB689A4204D07B6967
:10522000002BEDDA00E000BF7B6918461837BD4659
:1052300080BD000080B59EB000AFF860B9607A60B4
:105240004FF0FF337B67434A07F1100311465822A2
:10525000184602F063FF00233B67FB681B6A002BC4
:1052600064D107F168031846FFF704FBFB685A682E
:1052700007F1680311461846FFF706FBBB68002BD1
:1052800002D107F11003BB60BB681B8B1A46FB6899
:105290009A61BB689B7E1A46FB685A62FB6803F101
:1052A0006002FB689B6919461046FFF703FBFB6829
:1052B0001869FB689B68BA68194600F06DFA386790
:1052C0003B6F002B34DD07F168031A46396FF8682D
:1052D000FFF7B6FB78677B6F002B2BD107F16803D4
:1052E0001A460221F868FFF782FF0346022B19D104
:1052F0007B6800221A707B6800225A707B68581CF9
:105300007968FB685A69FB68DB6800F031FB03468B
:10531000012B03D17B681B787B670CE04FF0FF33D8
:105320007B6708E04FF0FF337B6704E000BF02E0DB
:1053300000BF00E000BF7B6F002B05D1FB6801229E
:105340001A62FB6800221A777B6F18467837BD46D1
:1053500080BD00BF480C011080B586B000AFF8607A
:10536000B9607A604FF0FF337B614FF0FF333B61F0
:1053700000233B6128E0FB683A69053253F832307C
:10538000002B1ED0FB683A69053253F83230B968F9
:10539000184603F0B9F80346002B12D17B68002BA6
:1053A0000CD1FB683A690532002143F83210FA68E3
:1053B0003B690533DB00134400225A6000237B6104
:1053C00005E03B6901333B613B69042BD3DD7B681E
:1053D000002B26D07B69B3F1FF3F12D100233B6144
:1053E0000CE0FB683A69053253F83230002B02D1E9
:1053F00000237B6105E03B6901333B613B69042B82
:10540000EFDD3B69042B0CDCFB683A690532B968B7
:1054100043F83210FA683B690533DB0013447A68BD
:105420005A607B6918461837BD4680BDB0B592B04A
:1054300004AFF860B9603B601346FB714FF0FF3377
:105440007B6300233B630023FB6100233B6200235B
:105450007B62BB68FB61FB681B6A002B63D007F1B2
:1054600028031846FFF706FAFB685A6807F1280375
:1054700011461846FFF708FAFB681C69FB689B6831
:105480001D46F868FFF7C3FA03469AB2FB1D029364
:1054900007F11C03019301230093134600222946C0
:1054A000204600F0D6FE38633B6B002B3DDD07F154
:1054B00028031A46396BF868FFF7C2FA78637B6BEA
:1054C000002B34D107F128031A460921F868FFF7A9
:1054D0008EFE0346092B22D10023BB61BB6C002248
:1054E0001A70B96CFB685B69FA68D268144607F1F8
:1054F000180207F11600019400930B46012100F0F9
:1055000024FF0346012B13D1BB6C1B78802B0FD0DB
:105510003A68B968F868FFF71FFF786308E04FF052
:10552000FF337B6304E000BF02E000BF00E000BF88
:105530007B6BB3F1FF3F02D1F868FFF715FD7B6B82
:1055400018463837BD46B0BDF0B597B008AFF86023
:10555000B9607A604FF0FF337B630023FB61002367
:105560003B6200237B62BB68FB6100233B63FB68FB
:105570001B6A002B00F09B8007F128031846FFF7F9
:1055800079F9FB685A6807F1280311461846FFF7B6
:105590007BF97B681B78012B03D07B681B78022B7F
:1055A00006D1F868FFF733FA03469AB27B689A800F
:1055B000FB681B693B60FB689B689C467B681B78AB
:1055C0009E467B685D787B689E887B689B687A686E
:1055D000D2680692059302AC07F11C0393E807001A
:1055E00084E80700019600957346002261463868FA
:1055F00000F03DFD38633B6B002B5ADD07F12803BB
:105600001A46396BF868FFF71BFA78637B6B002B3F
:1056100051D17B681B78012B22D107F128031A4650
:105620000421F868FFF7E3FD0346042B14D1FB685F
:105630005C69FB68DB6807F11A0207F1190107F1E1
:1056400018000093234600F0A1FA0346012B35D041
:105650004FF0FF337B6331E04FF0FF337B632DE08E
:105660007B681B78022B28D107F128031A460721F3
:10567000F868FFF7BCFD0346072B14D1FB685C6993
:10568000FB68DB6807F1160207F1150107F114004A
:105690000093234600F07AFA0346012B0ED04FF018
:1056A000FF337B630AE04FF0FF337B6306E000BF0C
:1056B00004E000BF02E000BF00E000BF7B6BB3F17D
:1056C000FF3F02D1F868FFF74FFC7B6B18463C3771
:1056D000BD46F0BD90B585B000AF78600023FB609B
:1056E0007B681B7A032B02D10C23FB6005E07B68EF
:1056F0001B7A042B01D10A23FB607B680C3393E8EF
:10570000070000F044FC03460233FA681344FB60D0
:105710007B68DB7E002B13D07B68243393E8070083
:1057200000F035FC03469C1C7B68303393E807008F
:1057300000F02DFC034623440233FA681344FB6057
:105740007B681B6C002B03D17B689B6C002B0AD001
:105750007B68403393E8070000F019FC03460233EE
:10576000FA681344FB607B68DB6C002B03D17B6819
:105770005B6D002B0AD07B684C3393E8070000F088
:1057800006FC03460233FA681344FB60FB681846C4
:105790001437BD4690BD000080B58AB000AFF860F8
:1057A000B9607A60FB68FB610023BB6100237B6109
:1057B00000233B624FF0FF337B627868FFF78AFF7C
:1057C0003862386A00F098FA0246BB68934203DAFE
:1057D0006FF001037B62C2E000233B763B7E012237
:1057E00062F307133B763A7E07F11C031146184615
:1057F00000F011FBFB69396A184600F012FA024604
:10580000FB691344FB617B681B7A042B0CD107F105
:105810001C035549184600F03CFB07F11C0304210A
:10582000184600F0F8FA0BE007F11C034F49184640
:1058300000F02FFB07F11C030321184600F0EBFAE0
:1058400000233B757B689B7E03F00103DAB23B7D4E
:1058500062F341033B757B68DB7E002B14BF0123A1
:105860000023DAB23B7D62F382033B753B7D03F09C
:105870000403DBB2002B13D07B6893F83D3003F0B8
:105880000303DAB23B7D62F3C4033B757B6893F894
:105890003C3003F00103DAB23B7D62F345133B7504
:1058A0007B681B6C002B03D17B689B6C002B03D0A7
:1058B0003B7D43F080033B757B68DB6C002B03D1A1
:1058C0007B685B6D002B03D03B7D43F040033B7551
:1058D0003A7D07F11C031146184600F09CFA7B68DC
:1058E0001B8B1A4607F11C031146184600F0A8FA54
:1058F0007B6807F11C000C330ECB00F0E9FA7B68E3
:10590000DB7E002B0DD07B6807F11C0024330ECB0F
:1059100000F0DEFA7B6807F11C0030330ECB00F09C
:10592000D7FA3B7D23F07F03DBB2002B06D07B68E8
:1059300007F11C0040330ECB00F0CAFA3B7D03F0A8
:105940004003DBB2002B06D07B6807F11C004C3310
:105950000ECB00F0BDFAFA69FB68D31A7B627B6A52
:1059600018462837BD4680BDA00C0110A80C0110B8
:1059700080B58AB000AFF860B9607A603B60002300
:10598000FB617B68BB6100233B6200237B620023D9
:105990003B6107F11803184600F029FA03463B77EC
:1059A0003B7F23F00F03DBB2202B2ED1BB6907F125
:1059B00014021146184600F0E9F978627A6ABB6968
:1059C0001344BB61BB697A6913443B62BB693A6AA1
:1059D000D31A012B1BDD07F11803184600F007FA54
:1059E00003463B743B7CC3F30003DBB21A46FB68FF
:1059F0001A7007F11803184600F0F9F903461A4621
:105A0000BB681A7001237B6202E000BF00E000BFA8
:105A10007B6A18462837BD4680BD80B588B000AF88
:105A2000F860B9601346FB710023BB614FF0FF3390
:105A3000FB61FB687B61BB68012B03DC6FF001033A
:105A4000FB611DE000233B76FB7903F00F03DAB224
:105A50003B7E62F307133B763A7E07F1140311464F
:105A6000184600F0D8F97B690021184600F0D9F8F3
:105A700002467B6913447B617A69FB68D31AFB6138
:105A8000FB6918462037BD4680BD80B582B000AFA7
:105A9000786039600C2239687868FFF7BEFF0346EA
:105AA00018460837BD4680BD80B58AB000AFF860A3
:105AB000B9607A603B600023FB61FB6BBB61002334
:105AC0003B6200237B6200237B6107F118031846C9
:105AD00000F08DF903463B773B7F23F00F03DBB2E9
