:020000041000EA
:100000000000102075CE0210B1CE0210B3CE021047
:10001000B5CE0210B7CE0210B9CE0210000000001B
:10002000000000000000000000000000BBCE021035
:10003000BDCE021000000000BFCE0210458C0010A3
:10004000C3CE0210C5CE0210619D0010059D0010A8
:10005000CBCE02101D9B0010319B0010459B001061
:10006000D3CE0210D5CE0210D7CE0210D9CE0210B8
:10007000DBCE0210E5910010E19A0010F59A001015
:10008000E3CE0210E5CE0210E7CE0210E9CE021058
:10009000EBCE0210EDCE0210EFCE0210F1CE021028
:1000A000779100108591001093910010F9CE021005
:1000B000259C0010339C0010419C00104F9C0010A8
:1000C00003CF021005CF0210099B001009CF0210C8
:1000D000F99100100DCF02100FCF021011CF0210B6
:1000E00013CF021015CF021017CF021019CF021034
:1000F0001BCF02101DCF02101FCF021021CF021004
:1001000023CF021025CF021027CF021029CF0210D3
:100110002BCF02102DCF02102FCF021031CF0210A3
:1001200033CF021035CF0210A191001039CF021049
:100130003BCF02103DCF02103FCF021041CF021043
:1001400043CF021045CF021047CF021049CF021013
:100150005D9C00106B9C0010799C0010879C001027
:10016000959C0010A39C0010B19C0010BF9C001037
:10017000CD9C0010DB9C0010E99C0010F79C001047
:1001800063CF021010B5054C237833B9044B13B17B
:100190000448AFF300800123237010BD480D0020F8
:1001A00000000000A4D2041008B5034B1BB10349A2
:1001B0000348AFF3008008BD000000004C0D002094
:1001C000A4D2041080B584B000AF7860124B1B68D5
:1001D000002B02D1104B114A1A600F4B1B68FB60B9
:1001E0000D4B1A687B6813441A460D4B9A4207D987
:1001F0002DF096F803460C221A604FF0FF3306E00C
:10020000054B1A687B681344034A1360FB68184661
:100210001037BD4680BD00BF640D0020D0310220E4
:1002200000F00F2080B400AF6FF010031846BD46F9
:100230005DF8047B704780B400AF6FF01003184680
:10024000BD465DF8047B704780B485B000AF4FF0C9
:1002500080439B6803F46063BB60BB68B3F5806F49
:1002600002D11A4BFB601EE0BB68B3F5C06F03D12F
:100270004FF4FA53FB6016E0BB68B3F5006F02D190
:10028000134BFB600FE0BB68B3F5206F02D1114B3D
:10029000FB6008E0104B1B78A12B02D90F4BFB60D1
:1002A00001E00F4BFB604FF080439B689B0903F01C
:1002B00007037B60FA687B6822FA03F3094A13603C
:1002C00000BF1437BD465DF8047B704700366E01F1
:1002D000000E270700127A006C0D002080F0FA0251
:1002E000005A6202680D002080B400AF4FF08043D6
:1002F0001B6823F440334FF0804243F40033136013
:1003000000231846BD465DF8047B704780B400AFFB
:1003100000BFBD465DF8047B7047000080B500AFAC
:1003200004F0D5FD03461A46564B1A70564B574AF1
:100330009A6062B600BF544BD3F88830524A43F4F7
:100340007003C2F88830BFF34F8F00BFBFF36F8FC9
:1003500000BF042004F06AFCFFF776FF4FF08043F3
:100360001B684FF0804243F400331360484B012276
:10037000C3F8002700BF464BD3F8003103F48033A5
:10038000002BF8D0424BD3F80031414A43F001032F
:10039000C2F8003100BF3E4BD3F8003103F4803384
:1003A000002BF8D0032004F0E8FB042004F0E5FB68
:1003B000052004F0E2FB062004F0DFFB072004F038
:1003C000DCFB082004F0D9FB092004F0D6FB0A204E
:1003D00004F0D3FB0D2004F0D0FB0E2004F0CDFB85
:1003E0000F2004F0CAFB102004F0C7FB112004F01A
:1003F000C4FB122004F0C1FB132004F0BEFB142048
:1004000004F0BBFB172004F0B8FB1C2004F0B5FB84
:100410001D2004F0B2FB1E2004F0AFFB1F2004F0EF
:10042000ACFB212004F0A9FB222004F0A6FB232032
:1004300004F0A3FB242004F0A0FB272004F09DFB84
:10044000282004F09AFB292004F097FB2A2004F0CE
:1004500094FB2B2004F091FB2C2004F08EFB2D202C
:1004600004F08BFB2E2004F088FB2F2004F085FB8A
:10047000342004F082FBFFF749FF09F057F900BF71
:1004800080BD00BF6C0D002000ED00E000000010FA
:1004900000A0024080B582B000AFFB1D00211846CD
:1004A00000F022FBFB7903F00103002B02D06FF078
:1004B000620300E0002318460837BD4680BD0000F7
:1004C00090B583B000AF00237B600623FB70124B16
:1004D0009C68F81C002301220121A04778607B68FA
:1004E000002B01D07B6813E0BB1C0021184600F0F4
:1004F000FBFA78607B68002B01D07B6808E0BB7852
:1005000003F00203002B01D0002301E06FF0610330
:1005100018460C37BD4690BD700D002090B585B0D3
:1005200000AF03463960FB710023FB603B68002B82
:1005300002D16FF05F031AE00F4B9C68F81D002397
:1005400000220121A047F860FB68002B01D0FB6866
:100550000DE0094B5C680023012201213868A047A7
:10056000F860FB68002B01D0FB6800E00023184610
:100570001437BD4690BD00BF700D002090B585B00A
:1005800000AF786039600023FB607B68002B02D0ED
:100590003B68002B02D16FF05F0315E0FFF790FF7F
:1005A000F860FB68002B01D0FB680DE0084B9C68ED
:1005B0000023012239687868A047F860FB68002BA7
:1005C00001D0FB6800E0002318461437BD4690BDFB
:1005D000700D002090B484B000AF78600023FB6001
:1005E0007B68002B02D16FF05F0309E0074A7B684C
:1005F00014460FCB84E80F00054B01221A70FB68EC
:1006000018461037BD4690BC704700BF700D0020E3
:10061000800D002080B500AF064B1B78002B02D167
:100620006FF0610303E0044B1B68984703461846CC
:1006300080BD00BF800D0020700D002090B585B0FA
:1006400000AF0023BB600023FB606623FB71184BE7
:100650009C68F81D002301220121A047B860BB68F7
:10066000002B01D0BB681FE09923FB71104B9C68E5
:10067000F81D002301220121A047B860BB68002BB0
:100680000CD0BB6810E0FB680133FB60FB6842F2F2
:100690001072934202DD6FF0600305E0FFF7FAFE8F
:1006A0000346002BEFD1002318461437BD4690BDFA
:1006B000700D002080B584B000AF78600023FB602F
:1006C0000023FB720023BB7200BFFFF7E3FE03466B
:1006D000002BFAD107F10B030021184600F004FAB1
:1006E000F860FB68002B01D0FB684CE07B68002BB6
:1006F00005D0FB7A43F04003DBB2FB7204E0FB7AE7
:1007000023F04003DBB2FB72FFF7DAFE0346002B57
:1007100002D06FF0610336E0FB7A0021184600F04A
:10072000F5F9F860FB68002B01D0FB682BE000BFF7
:10073000FFF7B0FE0346002BFAD107F10A030021B0
:10074000184600F0D1F9F860FB68002B01D0FB6877
:1007500019E000BFFFF79EFE0346002BFAD17B682D
:10076000002B07D0BB7A03F04003002B0AD14FF0D7
:10077000FF3308E0BB7A03F04003002B02D04FF0B8
:10078000FF3300E0002318461037BD4680BD00004F
:1007900090B589B000AFF860B9607A60FB70002353
:1007A000BB6100233B6100233B750023FB77FFF710
:1007B00071FE0346002B02D06FF0620354E0FB6829
:1007C0001B0EDBB27B74FB681B0CDBB2BB74FB68DB
:1007D0001B0ADBB2FB74FB68DBB23B75FB78002BBA
:1007E00004D10B233B740823FB770BE0FB78012B30
:1007F00004D1BB233B740423FB7703E0EB233B745E
:100800000A23FB771A4B9C6807F110000023002293
:100810000121A047B861BB69002B01D0BB6923E06F
:10082000134B9C68FA7807F11003581C13460022FA
:100830000421A047B861BB69002B01D0BB6913E05C
:100840000B4BDB68FA7F002110469847084B5C6829
:10085000FB7801227968B868A047B861BB69002BB2
:1008600001D0BB6900E0002318462437BD4690BD87
:10087000700D002090B58BB000AFF860B9607A6061
:10088000FB700023BB6100237B6200233B610023DC
:100890003B7500233B620023FB61BB68002B02D148
:1008A0006FF05F039AE0FB68B3F1006F05D2FA685E
:1008B0007B681344B3F1006F02D36FF05F038DE0E8
:1008C000FFF7E8FD0346002B00F084806FF0620321
:1008D00084E07B6A01337B627B6A424A934202DD99
:1008E0006FF060037AE0FFF7EBFD0346002BF0D1D9
:1008F000FB681B0EDBB27B74FB681B0CDBB2BB74AA
:10090000FB681B0ADBB2FB74FB68DBB23B75FB7850
:10091000022B02D138233B7401E002233B74324B9B
:100920009C6807F11000002300220121A047B86154
:10093000BB69002B01D0BB6950E02B4B9C68FA7857
:1009400007F11003581C134600220421A047B86188
:10095000BB69002B01D0BB6940E07B68FF2B03D94A
:100960004FF480733B6201E07B683B621E4B9C68E6
:10097000FB691B021A46BB689818FB780122396A8A
:10098000A047B861BB69002B01D0BB6926E07B683A
:10099000FF2B04D97B68A3F580737B6001E0002303
:1009A0007B60FB6803F58073FB60FB690133FB61CF
:1009B00000237B6209E07B6A01337B627B6A094A20
:1009C000934202DD6FF0600308E0FFF763FD03462A
:1009D000002BF0D17B68002B85D1002318462C37E3
:1009E000BD4690BD40420F00700D002090B589B00B
:1009F00000AF78600B46FB7000237B610023FB6037
:100A000000233B740023FB770023BB61FFF742FD0B
:100A10000346002B02D06FF062035EE0FFF750FD4B
:100A20000346002B02D06FF0610356E0FB78012BE8
:100A300006D0022B09D020233B731923FB7709E052
:100A400052233B739623FB7704E0D8233B73DC23CC
:100A5000FB7700BF7B681B0EDBB27B737B681B0CD4
:100A6000DBB2BB737B681B0ADBB2FB737B68DBB258
:100A70003B741C4B9C6807F10C00002300220121F1
:100A8000A04778617B69002B01D07B6925E0154B7D
:100A90009C6807F10C03581C002301220421A04785
:100AA00078617B69002B12D07B6916E0BB6901334A
:100AB000BB61FB7F4FF47A7202FB03F3184603F02D
:100AC000EDFFBB69142B02DD6FF0600305E0FFF75B
:100AD000E1FC0346002BE9D1002318462437BD462C
:100AE00090BD00BF700D002080B584B000AF78606D
:100AF0000B46FB700523FB73FB7B79681846FFF7F9
:100B00000DFD034618461037BD4680BD80B584B044
:100B100000AF03460A46FB711346BB7101233B73CA
:100B2000FB797B7307F10C0302211846FFF726FDC2
:100B3000034618461037BD4680BD000080B500AFA3
:100B4000014800F00FF880BD0080024080B582B0FF
:100B500000AF7860786800F021F80346184608373F
:100B6000BD4680BD80B485B000AF78607B68094A1F
:100B7000934201D1002301E04FF0FF33FB60064AAE
:100B8000FB68002142F8231000BF1437BD465DF812
:100B9000047B704700800240840D002080B582B045
:100BA00000AF78607B68002B43DB7B680F2B40DC59
:100BB00023497A6813469B0013449B000B441B682F
:100BC000002B36D001211F4803F0A0FF0346002B65
:100BD00002D06FF005032EE019497A6813469B0096
:100BE00013449B000B4400221A6015497A6813468F
:100BF0009B0013449B000B440C331B6800221A60BB
:100C00000F497A6813469B0013449B000B440C3336
:100C100019680B487A6813469B0013449B000344F1
:100C20000C331B684A685A60064803F096FF00239D
:100C300001E06FF0020318460837BD4680BD00BFD3
:100C4000880D0020C80E002080B500AF024803F0D8
:100C5000D7FD00BF80BD00BF0030034080B500AFAE
:100C6000024803F0DFFD00BF80BD00BF003003403D
:100C700080B582B000AF78607968044800F018F859
:100C8000034618460837BD4680BD00BF00900240AD
:100C900080B582B000AF78607968044800F034F81D
:100CA000034618460837BD4680BD00BF009002408D
:100CB00080B483B000AF786039603B68B3F1845F83
:100CC00003D33B680C4A934202D96FF002030DE054
:100CD0007B6841F234221A647B68084A1A647B6894
:100CE000074A1A647B68074A1A64002318460C37BF
:100CF000BD465DF8047B7047FF7F8010A35C7F3AA0
:100D0000204FE3A1C1B2089680B483B000AF7860F1
:100D100039603B68B3F1845F03D33B68074A934271
:100D200002D96FF0020303E07B68054A1A640023CE
:100D300018460C37BD465DF8047B7047FF7F801076
:100D4000EFBEADDE80B485B000AF7860134B1B788A
:100D5000002B1CD10023FB6013E00023BB600AE0E2
:100D60000F49FB685A01BB681344002241F8232055
:100D7000BB680133BB60BB681F2BF1DDFB6801332F
:100D8000FB60FB68032BE8DD044B01221A70002393
:100D900018461437BD465DF8047B7047CC1200201E
:100DA000CC0E002080B586B000AF78607B68002B49
:100DB00010D07B68012B0BD07B68022B06D07B68A0
:100DC000032B01D1204B06E0002304E01F4B02E07F
:100DD0001F4B00E01F4BFB60F86800F083F978615F
:100DE0007969F86800F08AF900233B6123E07B69A8
:100DF00003F00103002B18D017497B685A013B69A7
:100E0000134451F82330002B0FD013497B685A014B
:100E10003B69134451F8233010487A6851013A690C
:100E20000A4450F82220104698473B6901333B6141
:100E30007B695B087B617B69002BD8D100BF00BF59
:100E40001837BD4680BD00BF00B0004000A0004084
:100E50000090004000800040CC0E0020CC1000200C
:100E600080B400AF034B1B781846BD465DF8047B89
:100E7000704700BFCD12002080B582B000AF78600F
:100E80007B68002B03D1002003F0A2FE17E07B68F3
:100E9000012B03D1012003F09BFE10E07B68022BA5
:100EA00003D1022003F094FE09E07B68032B03D1F9
:100EB000262003F08DFE02E06FF0020303E0786865
:100EC000FFF740FF034618460837BD4680BD0000C7
:100ED00080B584B000AF78607B681B68FB6000F071
:100EE00049F90346012B01D10023C0E07B68997AC0
:100EF0007B685B681A46F86800F018F9B860BB6850
:100F0000002B01D0BB68B2E07B68197A7B685B6814
:100F10001A46F86800F0B8F9B860BB68002B01D039
:100F2000BB68A4E07B685B7A042B00F28E8001A290
:100F300052F823F0490F00107F0F0010B10F00107E
:100F4000E30F001017100010FB681A6E7B685B68D7
:100F5000DB431A40FB681A66FB685A6E7B685B6865
:100F6000DB431A40FB685A66FB68D3F8B8207B68FD
:100F70005B68DB431A40FB68C3F8B82068E0FB6895
:100F80001A6E7B685B681A43FB681A66FB685A6EC8
:100F90007B685B68DB431A40FB685A66FB68D3F8E2
:100FA000B8207B685B681A43FB68C3F8B8204FE041
:100FB000FB681A6E7B685B68DB431A40FB681A6645
:100FC000FB685A6E7B685B681A43FB685A66FB686D
:100FD000D3F8B8207B685B681A43FB68C3F8B82075
:100FE00036E0FB681A6E7B685B681A43FB681A661A
:100FF000FB685A6E7B685B68DB431A40FB685A6685
:10100000FB68D3F8B8207B685B68DB431A40FB6859
:10101000C3F8B8201CE0FB681A6E7B685B68DB4392
:101020001A40FB681A66FB685A6E7B685B681A4355
:10103000FB685A66FB68D3F8B8207B685B68DB43C3
:101040001A40FB68C3F8B82002E06FF002030EE01C
:101050007B681B7A002B01D1002308E07B68D97ADA
:101060007B685B681A46F86800F072F80346184619
:101070001037BD4680BD00BF80B582B000AF78603C
:1010800039603968786800F07CF8034618460837FC
:10109000BD4680BD80B582B000AF786039603968E8
:1010A000786800F07DF800BF0837BD4680BD80B588
:1010B00082B000AF786039603968786800F07EF8F7
:1010C00000BF0837BD4680BD80B582B000AF7860F4
:1010D00039603968786800F07FF8034618460837A9
:1010E000BD4680BD80B582B000AF7860786800F002
:1010F00090F8034618460837BD4680BD80B582B0DB
:1011000000AF786039603968786800F074F800BF23
:101110000837BD4680BD80B582B000AF7860786882
:10112000FFF740FE00BF0837BD4680BD80B584B0E4
:1011300000AFF8600B467A60FB72FB7A7A6819465A
:10114000F86800F072F8034618461037BD4680BDB7
:1011500080B584B000AFF8600B467A60FB72FB7A12
:101160007A681946F86800F0FBF80346184610370D
:10117000BD4680BD80B500AFFFF772FE034618463E
:1011800080BD80B483B000AF786039607B685A6AF4
:101190003B68134018460C37BD465DF8047B70472A
:1011A00080B483B000AF786039607B683A68DA61F8
:1011B00000BF0C37BD465DF8047B704780B483B038
:1011C00000AF786039607B683A681A6200BF0C37FC
:1011D000BD465DF8047B704780B483B000AF786093
:1011E00039607B689A693B68134018460C37BD46E6
:1011F0005DF8047B704780B483B000AF78603960DD
:101200007B683A689A6400BF0C37BD465DF8047B82
:10121000704780B483B000AF78607B681B6C184661
:101220000C37BD465DF8047B704780B584B000AFD5
:10123000F8600B467A60FB72FFF79CFF0346012BB8
:1012400001D100231CE0FB7A002B02D0012B0AD035
:1012500012E0FB68D3F8C0207B68DB431A40FB68D0
:10126000C3F8C0200BE0FB68D3F8C0207B681A43AA
:10127000FB68C3F8C02002E06FF0020300E0002327
:1012800018461037BD4680BD80B584B000AFF86009
:101290000B467A60FB72FFF76DFF0346012B01D10D
:1012A000002359E0FB681A6B7B681A43FB681A63DA
:1012B000FB687A685A60FB7A032B49D801A252F87E
:1012C00023F000BFD5120010F71200101913001000
:1012D00035130010FB687A685A61FB687A685A60B7
:1012E000FB687A681A67FB687A68DA67FB687A686D
:1012F000C3F888202FE0FB687A681A61FB687A6877
:101300005A60FB687A681A67FB687A68DA67FB6874
:101310007A68C3F888201EE0FB687A68C3F88820E2
:10132000FB687A68DA67FB687A681A67FB687A682C
:101330009A6010E0FB687A68C3F88820FB687A68D6
:10134000DA67FB687A68DA66FB687A689A6002E0B6
:101350006FF0020300E0002318461037BD4680BD41
:1013600080B584B000AFF8600B467A60FB72FFF77F
:1013700001FF0346012B01D1002368E0FB7A032B18
:1013800052D801A252F823F099130010BF13001095
:10139000E313001007140010FB68D3F8B0207B683B
:1013A000DB431A40FB68C3F8B020FB68D3F8B420D5
:1013B0007B68DB431A40FB68C3F8B42046E0FB6857
:1013C000D3F8B0207B681A43FB68C3F8B020FB68F1
:1013D000D3F8B4207B68DB431A40FB68C3F8B42021
:1013E00034E0FB68D3F8B0207B68DB431A40FB682D
:1013F000C3F8B020FB68D3F8B4207B681A43FB68BD
:10140000C3F8B42022E0FB68D3F8B0207B681A430D
:10141000FB68C3F8B020FB68D3F8B4207B681A439C
:10142000FB68C3F8B42011E0FB68D3F8B0207B68F8
:10143000DB431A40FB68C3F8B020FB68D3F8B42044
:101440007B68DB431A40FB68C3F8B42000231846CE
:101450001037BD4680BD00BF80B584B000AFF860D6
:10146000B9607A607B68BA68F968034800F0CDF823
:1014700000BF1037BD4680BD0090034080B584B0EA
:1014800000AFF860B9607A607B68BA68F9680348B1
:1014900000F0F4F800BF1037BD4680BD0090034057
:1014A00080B582B000AF78603960242003F090FBF3
:1014B000272003F08DFB1A4B4FF481721A607B6872
:1014C000002B03D07B681B79012B06D13B68002BD6
:1014D00009D03B681B79012B05D0114B1B68104AC2
:1014E00043F0200313607B68002B02D00D48FFF708
:1014F000EFFC3B68002B02D00B48FFF7E9FC0B48E0
:10150000FFF7E6FC152003F0B7FC3A687968084855
:1015100000F0EDF8034618460837BD4680BD00BF11
:10152000005800409C9D0310A89D0310909D03103F
:101530000090034080B586B000AFF860B9607A6073
:10154000BB681968FB687A68043243F82210BB68EC
:101550001B79DB0043F00303BA689269002A01D0CB
:10156000402200E0002213431946FB687A680832E3
:1015700043F82210BB681B7C1A07BB685B7C1B0608
:101580001A43BB689B7C1B051A43BB68DB7C1B04AE
:101590001A43BB681B7D1B031A43BB685B7D1B02A0
:1015A0001343BA68927D13431946FB687A680C327C
:1015B00043F8221000237B611DE0BB681B79012BDF
:1015C0000BD1BB689A687B69DB00D018BB681B68CD
:1015D0007A681946FFF740FF0AE0BB689A687B69A2
:1015E000DB00D018BB681B687A681946FFF746FF16
:1015F0007B6901337B61BB68DA687B699A42DCD81E
:1016000000BF00BF1837BD4680BD80B584B000AFB5
:10161000F860B9607A603B60FB68002B2AD0BB6839
:10162000002B27D03B68012B24D8FFF717FBFB6862
:101630003A68083253F8223043F02001FB683A68D8
:10164000083243F82210BB685968BB681A687B6887
:101650001344CAB21A70FB683A68083253F8223051
:1016600023F02001FB683A68083243F82210FFF7A4
:10167000EBFA00E000BF1037BD4680BD80B584B0F6
:1016800000AFF860B9607A603B60FB68002B2AD03D
:10169000BB68002B27D03B68012B24D8FFF7DEFA6C
:1016A000FB683A68083253F8223043F02001FB68A7
:1016B0003A68083243F82210BB685968BB681A6858
:1016C0007B6813448AB21A80FB683A68083253F880
:1016D000223023F02001FB683A68083243F82210D8
:1016E000FFF7B2FA00E000BF1037BD4680BD80B5FD
:1016F00084B000AFF860B9607A60BB68002B04D09A
:101700000022B968F868FFF715FF7B68002B04D04A
:1017100001227968F868FFF70DFF0023184610379B
:10172000BD4680BD80B586B000AFF860B9607A6014
:10173000FB68194A934208D0FB68184A934201D1CA
:10174000012303E04FF0FF3300E00023002B02D021
:10175000012B07D00DE00D2003F03AFA1048FFF7F7
:10176000B7FB09E01C2003F033FA0E48FFF7B0FB8B
:1017700002E06FF002030BE07A68B968F86800F0E5
:1017800039F978617B69002B01D07B6900E0002387
:1017900018461837BD4680BD00D0014000E001402A
:1017A000D09C0310DC9C031080B485B000AFF860BF
:1017B000B9607A60FB68002B06D0BB68B3F5806F18
:1017C00002D27B68002B02D06FF0020314E0FB68AA
:1017D00000225A64BB687F2B05D9FB685B6C43F41D
:1017E0000042FB685A64FB685A6CBB68C3F3090388
:1017F0001A43FB685A64002318461437BD465DF847
:10180000047B704780B582B000AF78607B68154A72
:10181000934208D07B68144A934201D1012303E02C
:101820004FF0FF3300E00023002B02D0012B07D044
:101830000DE0102003F020FB0D2003F09EF909E0DD
:10184000202003F019FB1C2003F097F902E06FF051
:10185000020303E0786800F073F90346184608377E
:10186000BD4680BD00D0014000E0014080B582B09F
:1018700000AF786039603B68074A934202D96FF045
:10188000100304E03968786800F0F0F90346184660
:101890000837BD4680BD00BF40420F0080B582B012
:1018A00000AF7860786800F075FA0346184608378C
:1018B000BD4680BD80B582B000AF7860786800F02A
:1018C0009FFA034618460837BD4680BD80B582B0F2
:1018D00000AF7860786800F0B7FA0346184608371A
:1018E000BD4680BD80B584B000AFF860B9607A6055
:1018F0007A68B968F86800F0C5FA034618461037E8
:10190000BD4680BD80B584B000AFF860B9607A6034
:101910007A68B968F86800F0F5FA03461846103797
:10192000BD4680BD80B582B000AF7860786800F0B9
:1019300015FB00BF0837BD4680BD80B582B000AF43
:101940007860786800F022FB00BF0837BD4680BD94
:1019500080B584B000AFF860B9607A607A68B96821
:10196000F86800F02BFB00BF1037BD4680BD80B586
:1019700082B000AF786039603968786800F030FB79
:10198000034618460837BD4680BD80B582B000AF1B
:101990007860786800F0C8FB034618460837BD46F3
:1019A00080BD80B582B000AF7860396039687868F2
:1019B00000F0F0FC034618460837BD4680BD80B5F0
:1019C00082B000AF786039603968786800F002FD55
:1019D000034618460837BD4680BD80B582B000AFCB
:1019E00078600821786801F007F800BF0837BD4625
:1019F00080BD000080B586B000AFF860B9607A6045
:101A0000FB68002B02D14FF0FF338EE0FB68494AA0
:101A1000934208D0FB68484A934201D1012303E076
:101A20004FF0FF3300E00023FB751021F868FFF74B
:101A30009EFF38613B69002B01D03B6975E0FB6874
:101A40001B6843F00102FB681A60F868FFF76AFF41
:101A5000F868FFF772FF0221F868FFF7B0FF062170
:101A6000F868FFF79EFFBB68002B19D10022796848
:101A7000F868FFF799FEFB682E4A934208D0FB688E
:101A80002D4A934201D1012303E04FF0FF3300E0E0
:101A900000232A4A5B011344043300221A6019E030
:101AA000FB681B6843F00202FB681A60FB68214A6E
:101AB000934208D0FB68204A934201D1012303E0FE
:101AC0004FF0FF3300E000231C4A5B011344043352
:101AD00001221A6097F91730184A5B011344083342
:101AE0006FF001021A6097F91730144A5B01134432
:101AF0000C336FF001021A6097F917300F4A5B013F
:101B00001344103300221A6097F917300B4A5B0117
:101B10001344143300221A6097F91730074A5B0107
:101B20001344183300221A70002318461837BD4694
:101B300080BD00BF00D0014000E00140D012002075
:101B400080B58CB000AF78607B68002B02D14FF07D
:101B5000FF3381E07B68424A934208D07B68414A68
:101B6000934201D1012303E04FF0FF3300E0002353
:101B700087F82F307B6800221A607B680022DA60C9
:101B80007B6800225A617B689A687B689A607B68F0
:101B90001A697B681A617B680022DA617B6800221F
:101BA0001A627B6800225A627B6800229A6297F967
:101BB0002F302D4A5B011344184620231A4600217A
:101BC0002BF0E0FF7868FFF7ADFE7868FFF7B5FE11
:101BD00097F92F30244A5B01134418331B78002BEC
:101BE00039D0FEF7ABFF97F92F301F4A5B01134442
:101BF00008331B68002B12DB97F92F301A4A5B0160
:101C0000134408331B681846FEF7A0FF97F92F30DE
:101C1000154A5B01134408336FF001021A6097F90B
:101C20002F30114A5B0113440C331B68002B12DB6D
:101C300097F92F300C4A5B0113440C331B6818468C
:101C4000FEF784FF97F92F30074A5B0113440C33EA
:101C50006FF001021A60002318463037BD4680BD80
:101C600000D0014000E00140D012002080B588B0D3
:101C700000AF786039607B68002B02D14FF0FF33F2
:101C80007AE03B683E4A934240D93B683D4A9342E2
:101C90003CD83D4B1B685A083B68B2FBF3F37B61B1
:101CA0007B695B00394AA2FB03235B08013B3B6174
:101CB0007B69364AA2FB03235B08013BBB617B695E
:101CC00003F00103002B02D0BB690133BB61BB6988
:101CD0000F2B02DC3B690F2B02DD6FF002034BE0A0
:101CE0003B69DBB23B61BB691B029BB2BB613A69DA
:101CF000BB6913431A467B68DA637B681B6843F44D
:101D000000427B681A60224B3B6006E03B681D4A3C
:101D1000934202D96FF002032EE01B4B1B685A0856
:101D20003B68B2FBF3F37B617B695B08013BFB61C2
:101D30007B695B08013BFB607B6903F00103002BBF
:101D400002D0FB690133FB61FB69B3F5007F02D26E
:101D5000FB68002B02D16FF002030DE0FB68C3F3B8
:101D600008027B685A63FB69C3F308027B689A63C5
:101D70007868FFF793FD034618462037BD4680BDBF
:101D800040420F0040E13300680D0020ABAAAAAA30
:101D9000801A060080B485B000AF78600223FB6033
:101DA0007B681B6803F40043002B0DD07B68DB6B62
:101DB000DBB2FA681344FB607B68DB6B1B0ADBB2A7
:101DC000FA681344FB600DE07B685B6BC3F30803A8
:101DD000FA681344FB607B689B6BC3F30803FA68E3
:101DE0001344FB60054B1B685A08FB68B2FBF3F316
:101DF00018461437BD465DF8047B7047680D002017
:101E000080B483B000AF78607B68002B02D14FF0C4
:101E1000FF3313E07B681B6B03F00103002B06D03C
:101E20007B681B6B43F002027B681A6305E07B68EA
:101E30001B6B43F001027B681A63002318460C37C2
:101E4000BD465DF8047B704780B483B000AF786016
:101E50007B68002B02D14FF0FF330DE07B681B6BDA
:101E600043F004027B681A6300BF7B681B6B03F0BE
:101E70000403002BF9D1002318460C37BD465DF84A
:101E8000047B704780B487B000AFF860B9607A60B7
:101E900000237B61FB68002B02D0BB68002B0BD1B9
:101EA0004FF0FF3313E0FB68D96A7B695A1C7A61F3
:101EB000BA681344CAB21A707A687B699A4205D923
:101EC000FB685B6803F00203002BECD07B691846CB
:101ED0001C37BD465DF8047B704780B483B000AF0B
:101EE00078607B68002B02D14FF0FF3304E07B6801
:101EF0001B6A1B0A03F00F0318460C37BD465DF83A
:101F0000047B704780B487B000AFF860B9607A6036
:101F100000237B61FB68002B02D0BB68002B0CD137
:101F20004FF0FF3314E07B695A1C7A61BA6813449E
:101F30001B78DBB21A46FB68DA627A687B699A42E0
:101F400005D9FB685B6803F01003002BEBD07B69BD
:101F500018461C37BD465DF8047B704780B483B0DB
:101F600000AF78607B68DB6943F080027B68DA61F0
:101F700000BF7B68DB6903F08003002BF9D100BF51
:101F800000BF0C37BD465DF8047B704780B483B05A
:101F900000AF78607B685B6A43F080027B685A62BE
:101FA00000BF7B685B6A03F08003002BF9D100BFA0
:101FB00000BF0C37BD465DF8047B704780B485B028
:101FC00000AFF860B9607A60FB68BA689A60FB6835
:101FD0007A681A6100BF1437BD465DF8047B70470C
:101FE00080B586B000AF786039607B68002B02D185
:101FF0004FF0FF3393E06FF008037B617B681B6851
:1020000043F001027B681A607B681B6803F48063FD
:10201000FB607B68002B02D14FF0FF337FE07B68D1
:102020001B6843F480627B681A6000233B6162E0B6
:102030000A2002F033FD7B681B6823F040027B68B6
:102040001A600A2002F02AFD7B681B6803F4807383
:10205000002B06D07B681B6843F0C0027B681A60C7
:1020600046E00A2002F01AFD7B681B6823F080021C
:102070007B681A600A2002F011FD7B681B6803F47C
:102080000073002B06D07B681B6843F0C0027B689E
:102090001A602DE00A2002F001FD7B681B6843F006
:1020A00080027B681A600A2002F0F8FC7B681B68DB
:1020B00003F40073002B06D17B681B6843F0C00259
:1020C0007B681A6014E00A2002F0E8FC7B681B6859
:1020D00043F040027B681A600A2002F0DFFC7B6854
:1020E0001B6803F48073002B02D000237B6106E0A1
:1020F0003B6901333B613A693B689A4298D3FB687C
:10210000002B05D17B681B6823F480627B681A6012
:102110007B681B6823F001027B681A607B691846A4
:102120001837BD4680BD000080B586B000AF78602E
:102130007B681B68FB6000237B6100233B617B683D
:102140005B687F2B02D96FF010031BE1FB688F4A9D
:10215000934206D0FB688E4A934202D06FF002038E
:1021600010E1FB681B6803F00203002B02D16FF043
:10217000060307E107226FF07F41F868FFF7E8FBED
:10218000F868FFF7DAFBF868FFF7CCFBFB68002282
:10219000DA60FB6800225A617B685B69002B03D020
:1021A0007B68DB68002B34D07B685B685A00FB6877
:1021B000DA62FB681B6B43F00102FB681A6328E0DC
:1021C000FB689B6803F02003002B13D07B689A68A0
:1021D0007B69D1187B68DA687B69D31A1A46F8687C
:1021E000FFF790FB03461A467B6913447B61FB684B
:1021F00020229A60FB689B6803F4FE43002B08D002
:102200007B687A69DA60F868FFF760FB6FF00803B3
:10221000B8E07B68DB687A699A42D1D30022112149
:10222000F868FFF795FB7B685B69002B79D07B68CA
:102230005B69B3F5807F03D9FB6800221A6203E073
:102240007B685A69FB681A62F868FFF733FB00BFC6
:10225000FB681B6B03F00203002BF9D17B685B6802
:102260005B0043F00102FB68DA625AE0FB689B689E
:1022700003F01103002B13D07B681A693B69D11856
:102280007B685A693B69D31A1A46F868FFF72AFB3C
:1022900003461A463B6913443B61FB6810229A606F
:1022A000FB689B6803F4FE43002B08D07B683A6907
:1022B0005A61F868FFF70AFB6FF0080362E0FB68F9
:1022C0009B6803F00103002B2BD07B685B693A69A4
:1022D0009A4226D2F868FFF700FE0346002B20D171
:1022E0007B685A693B69D31AB3F5807F03D9FB68D1
:1022F00000221A6205E07B685A693B69D21AFB68C2
:102300001A62FB681B6B43F00202FB681A63FB68EE
:1023100001229A607B685B685B0043F00102FB6806
:10232000DA627B685B693A699A429FD37B689B69F2
:10233000002B06D0FB681B6B43F00202FB681A639C
:102340000CE0FB681B6B43F00402FB681A6300BFE0
:10235000FB689B6803F04003002BF9D000BFFB68CB
:102360009B6803F00103002BF9D0FB6841229A60BF
:10237000FB689B6803F4FE43002B02D06FF0080358
:1023800000E0002318461837BD4680BD00D001404C
:1023900000E0014080B485B000AF786039607B68B0
:1023A0009B69DBB2FB603A68FB689A4202D96FF026
:1023B000020309E07B68DB6923F470623B681B025F
:1023C0001A437B68DA61002318461437BD465DF86E
:1023D000047B704780B485B000AF786039607B685B
:1023E0009B691B0ADBB2FB603A68FB689A4202D920
:1023F0006FF0020309E07B685B6A23F470623B685C
:102400001B021A437B685A62002318461437BD46E4
:102410005DF8047B7047000080B584B000AF786041
:1024200039607B680E4A934208D07B680D4A93421C
:1024300001D1012303E04FF0FF3300E000230A4AFB
:1024400052F82330FB60FB68DB69002B04D0FB688B
:10245000DB693968F868984700BF1037BD4680BD12
:1024600000D0014000E001401013002080B483B090
:1024700000AF78607B680022DA607B6800225A61D6
:102480007B689A687B689A607B681A697B681A61C6
:102490007B680B4A934208D07B680A4A934201D179
:1024A000012303E04FF0FF3300E00023064A002140
:1024B00042F8231000BF0C37BD465DF8047B70471F
:1024C00000D0014000E001401013002080B586B02C
:1024D00000AF7860904A7B6852F823307B618F4A66
:1024E0007B6852F823303B617B68002B06D07B6809
:1024F000012B01D18A4B02E0002300E0894BFB60F5
:10250000894A7B6852F82330BB60FB689B6803F400
:10251000FE43002B19D0FB689A68FB689A60FB6841
:102520001A69FB681A61FB680022DA60FB68002206
:102530005A61F868FFF7CAF96FF00801F868FFF709
:102540006BFFF868FFF792FFE2E0BB68DB687A692F
:102550009A4243D2FB689B6803F02003002B13D000
:10256000BB689A687B69D118BB68DA687B69D31A43
:102570001A46F868FFF7C6F903461A467B69134402
:102580007B61FB6820229A60BB68DB687A699A42AB
:1025900006D2FB68DB6843F02002FB68DA6005E0E6
:1025A000FB68DB6823F02002FB68DA60BB68DB684D
:1025B0007A699A4212D1BB685B69002B0ED0FB6826
:1025C0001B6B43F00202FB681A63FB6801229A60EE
:1025D000FB68DB6843F00102FB68DA60BB685B699B
:1025E0003A699A4219D2FB689B6803F01103002BE9
:1025F00013D0BB681A693B69D118BB685A693B693B
:10260000D31A1A46F868FFF76DF903461A463B6974
:1026100013443B61FB6810229A60BB68DB687A69EF
:102620009A423AD1BB685B693A699A4235D0FB68F5
:102630009B6803F00103002B2FD0FB6801229A60F6
:102640003B69002B06D1BB685B685B0043F001026D
:10265000FB68DA62BB685A693B69D31AB3F5807FBD
:1026600003D9FB6800221A6205E0BB685A693B691E
:10267000D21AFB681A62BB685B693A699A4206D251
:10268000FB68DB6843F01102FB68DA6005E0FB6879
:10269000DB6823F01102FB68DA60BB68DB687A69EB
:1026A0009A422BD1BB685B693A699A4226D1FB6892
:1026B0000022DA60FB6800225A61FB689A68FB68B6
:1026C0009A60FB681A69FB681A61BB689B69002BFA
:1026D00006D0FB681B6B43F00202FB681A6305E03F
:1026E000FB681B6B43F00402FB681A630021F86867
:1026F000FFF792FEF868FFF7B9FE09E006497B682C
:102700007A6941F8232005497B683A6941F823201A
:102710001837BD4680BD00BF1813002020130020CD
:1027200000E0014000D001401013002080B586B0C9
:1027300000AFF860B9607A603B60FB689B687B61C2
:102740003B6800221A607B6903F4FE43002B30D003
:102750003B686FF008021A60BB68002B04D0BB68AE
:102760003A680421F868984707226FF07F41F868BB
:10277000FFF724FCF868FFF709FCF868FFF7EEFBA9
:102780007B6800221A607B68043300221A60FB68B1
:10279000964A934208D0FB68954A934201D101239F
:1027A00003E04FF0FF3300E00023924A002142F89B
:1027B00023107B681B6803F01003002B06D17B6895
:1027C00004331B6803F00103002B20D07B6903F066
:1027D0001003002B0AD0BB68002B04D0BB6800227A
:1027E0000221F8689847FB6810229A60FB681B6911
:1027F00003F00103002B0AD0BB68002B04D0BB6898
:1028000000220621F8689847FB6801221A617B685C
:102810001A6848F220031340002B06D17B6804336A
:102820001B6803F00203002B4DD07B6903F02003EB
:10283000002B0AD0BB68002B04D0BB680022032108
:10284000F8689847FB6820229A60FB681B6903F0D0
:102850000203002B0AD0BB68002B04D0BB68002207
:102860000521F8689847FB6802221A617B6903F426
:102870000043002B27D03B6800221A60BB68002B66
:1028800004D0BB683A680421F8689847FB684FF4A5
:1028900000429A607B6800221A607B680433002241
:1028A0001A60FB68514A934208D0FB68504A934231
:1028B00001D1012303E04FF0FF3300E000234D4A34
:1028C000002142F823107B681B6803F00103002BF2
:1028D00037D07B6903F04003002B27D03B680022F0
:1028E0001A60BB68002B04D0BB683A680421F86802
:1028F0009847FB6840229A607B6800221A607B68D8
:10290000043300221A60FB68384A934208D0FB68FF
:10291000374A934201D1012303E04FF0FF3300E037
:102920000023344A002142F823100AE07B6903F0B7
:102930000103002B05D0FB6801229A607B68082206
:102940001A607B681B6803F00803002B4AD07B6980
:1029500003F00803002B45D07B6903F04003002BF4
:1029600007D07B6903F00103002B02D1FB684022F2
:102970009A60FB681B6803F40063002B1BD0BB68E4
:10298000002B04D0BB6800220121F8689847FB683F
:102990004FF480029A60FB6808229A60FB684FF44B
:1029A00000429A607B684FF621721A607B6804339C
:1029B00002221A6016E0BB68002B04D0BB6800221C
:1029C0000021F8689847FB684FF400029A60FB68A2
:1029D00008229A607B6847F611721A607B6804339C
:1029E00001221A6000BF1837BD4680BD00D00140EB
:1029F00000E001401013002080B588B000AF78607F
:102A000039607B681C4A934208D07B681B4A93421A
:102A100001D1012303E04FF0FF3300E00023FB610D
:102A2000FB69002B23DB7B681B6803F00203002B90
:102A300003D0F869FFF74AFD1AE0114AFB6952F822
:102A40002330BB617B68DB68FB607B685B693B6153
:102A500007F1140307F10C02B9697868FFF766FE05
:102A6000FA687B68DA603A697B685A6100E000BF07
:102A70002037BD4680BD00BF00D0014000E00140CE
:102A80001013002080B500AF034800F043F803485E
:102A900000F015F800BF80BD00A0024000F0024029
:102AA00080B483B000AF78607B68D3F8003103F462
:102AB000803318460C37BD465DF8047B704780B5FF
:102AC00082B000AF78607B68D3F8003123F0010258
:102AD0007B68C3F800217B680122C3F8002700BF90
:102AE0007868FFF7DDFF0346002BF9D07B68D3F849
:102AF000003143F001027B68C3F8002100BF786811
:102B0000FFF7CEFF0346002BF9D000BF00BF083708
:102B1000BD4680BD80B483B000AF78607B68D3F8D9
:102B2000003123F001027B68C3F8002100BF0C379D
:102B3000BD465DF8047B704780B582B000AF786019
:102B40007968044800F044F8034618460837BD4643
:102B500080BD00BF0060004080B582B000AF7860EB
:102B60007968044800F059F8034618460837BD460E
:102B700080BD00BF0060004080B500AF024800F09B
:102B800072F80346184680BD0060004080B582B0F0
:102B900000AF78607968044800F073F8034618467F
:102BA0000837BD4680BD00BF0060004080B400AF64
:102BB00000BF064B1B6903F00803002BF9D100BFCF
:102BC00000BFBD465DF8047B704700BF0060004059
:102BD00080B582B000AF786039603B6803F02603AF
:102BE0003B603B68002B02D16FF0020311E0FFF75E
:102BF000DDFF7B681A693B681A437B681A613B6892
:102C000023F020033B603B68002B01D0FFF7CEFF91
:102C1000002318460837BD4680BD80B582B000AF9E
:102C2000786039603B6803F026033B603B68002B0B
:102C300002D16FF0020312E0FFF7B8FF7B681A6958
:102C40003B68DB431A407B681A613B6823F0200332
:102C50003B603B68002B01D0FFF7A8FF002318461C
:102C60000837BD4680BD80B483B000AF78607B6814
:102C70001B6903F0D00318460C37BD465DF8047B92
:102C8000704780B483B000AF786039607B681A69A0
:102C90003B6803F0D003DB431A407B681A610023D2
:102CA00018460C37BD465DF8047B704780B582B08E
:102CB00000AF78602A2001F08BFF1848FEF708F972
:102CC0001748FEF705F9164B1B68D3F8C010144BD4
:102CD0005A68134B1B680A43C3F8C0200F4B1B688C
:102CE000D3F8B0100D4B5A680C4B1B680A43C3F85D
:102CF000B0200B4B1B68D3F8B010094B5A68084B37
:102D00001B680A43C3F8B0207968064800F0CEF883
:102D1000034618460837BD4680BD00BFC09D03105E
:102D2000CC9D031000600B4080B500AF024800F05E
:102D3000F7F800BF80BD00BF00600B4080B582B0D7
:102D400000AF78607968034800F076F800BF083774
:102D5000BD4680BD00600B4080B400AF4FF08043A3
:102D60009B6903F08003002B01D0044B00E0044B6F
:102D70001846BD465DF8047B704700BF008793038B
:102D800080F0FA0280B582B000AF786079680448BC
:102D900000F06EF9034618460837BD4680BD00BFF7
:102DA00000600B4080B500AF024800F0AEF903466A
:102DB000184680BD00600B4080B500AF024800F0AF
:102DC000D1F900BF80BD00BF00600B4080B500AFEF
:102DD000024800F0DFF900BF80BD00BF00600B407B
:102DE00080B500AF024800F0EDF90346184680BDFB
:102DF00000600B4080B500AF024800F0F7F90346D1
:102E0000184680BD00600B4080B500AF024800F05E
:102E1000FBF90346184680BD00600B4080B582B0C8
:102E200000AF78607968034800F0FAF900BF08370E
:102E3000BD4680BD00600B4080B483B000AF7860B9
:102E400039607B6800229A853B689BB21B029AB26C
:102E50007B689A857B689B8D9AB23B681B0A9BB204
:102E60009B019BB2DBB29BB213439AB27B689A85FB
:102E70007B689B8D9BB243F001039AB27B689A8575
:102E800000BF7B689B8D9BB203F00203002BF8D040
:102E90007B689B8D9BB243F004039AB27B689A8552
:102EA00000BF0C37BD465DF8047B704780B582B02B
:102EB00000AF786039603B689B68B3F5806F02D3E0
:102EC0006FF0020328E0FFF777FF3B681B68DBB277
:102ED0005B00DBB203F00E03DAB27B6883F82920D3
:102EE0003B685B68DAB27B6883F82A207B68002243
:102EF00083F828203B689B681846FFF71FFF7B6814
:102F0000072283F82E207B684FF6FF729A867B6833
:102F10004FF6FF72DA86002318460837BD4680BD9B
:102F200080B483B000AF78607B6893F82930DBB25F
:102F300043F00103DAB27B6883F8292000BF0C3725
:102F4000BD465DF8047B704780B584B000AF786003
:102F50003960FFF727FF0346002B02D16FF0010312
:102F600082E07B685B6A03F00103002B02D06FF004
:102F7000060379E07B689B8D9BB243F004039AB211
:102F80007B689A853B68DA687B689A603B68DB6996
:102F9000FB603B685B69022B03D03B685B69012BDC
:102FA00003D1FB6823F09803FB60FB68DAB27B680F
:102FB00083F828207B681B8E9AB27B681A867B6810
:102FC0005B8E9AB27B685A863B685B69002B44D063
:102FD0007B6800229A813B681A687B681A603B68AC
:102FE0001B69002B07D07B689B899BB243F00103D0
:102FF0009AB27B689A813B685B69022B08D17B6837
:103000009B899BB223F010039AB27B689A8107E0F8
:103010007B689B899BB243F010039AB27B689A81CC
:103020003B685B689BB2C3F30B039BB243F4E04382
:103030009AB27B689A803B689B68012B13D97B68A6
:103040009B899BB243F026039AB27B689A813B68C6
:103050009B689AB27B68DA8005E07B6800229A81DF
:103060007B6800221A60002318461037BD4680BDD9
:1030700080B584B000AF7860396039687868FFF750
:1030800063FFF860FB68002B01D0FB6839E03B6808
:103090009B699AB27B68DA813B685B69002B0ED131
:1030A00000BF7B681B8E9BB203F00103002B14D181
:1030B0007B681B8E9BB21BB2002BF2DA0DE000BFC7
:1030C0007B681B8E9BB203F00203002B05D17B684B
:1030D0001B8E9BB21BB2002BF2DA7B681B8E9BB25D
:1030E0001BB2002B0CDA7B685B8E9BB203F01103E2
:1030F000002B02D06FF0090303E06FF0080300E03B
:10310000002318461037BD4680BD80B487B000AF9D
:1031100078607B685B6A03F48023002B14BF012373
:103120000023DBB27B617B685B6A03F48033002B96
:1031300014BF01230023DBB23B617B685B6A03F4AD
:103140000033002B14BF01230023DBB2FB607A693C
:103150003B691A40FB68134018461C37BD465DF8B2
:10316000047B704780B483B000AF78607B68012235
:1031700083F82F2000BF7B6893F82F30DBB203F079
:103180000103002BF7D100BF00BF0C37BD465DF82F
:10319000047B704780B483B000AF78607B68062200
:1031A00083F82F2000BF7B6893F82F30DBB203F049
:1031B0000603002BF7D100BF00BF0C37BD465DF8FA
:1031C000047B704780B483B000AF78607B685B6A33
:1031D0001B0D03F00103002B0CBF01230023DBB206
:1031E00018460C37BD465DF8047B704780B483B049
:1031F00000AF78607B6893F82830DBB218460C3754
:10320000BD465DF8047B704780B483B000AF786042
:103210007B681B6918460C37BD465DF8047B704718
:1032200080B485B000AF786039607B681B69FB6053
:10323000FB68DAB23B681A70FB681A0A3B68013314
:10324000D2B21A70FB681A0C3B680233D2B21A7001
:10325000FB681A0E3B680333D2B21A707B685B6955
:10326000FB603B680433FA68D2B21A70FB681A0A32
:103270003B680533D2B21A70FB681A0C3B68063300
:10328000D2B21A70FB681A0E3B680733D2B21A70BA
:103290007B689B69FB603B680833FA68D2B21A709E
:1032A000FB681A0A3B680933D2B21A70FB681A0C21
:1032B0003B680A33D2B21A70FB681A0E3B680B33B4
:1032C000D2B21A707B68DB69FB603B680C33FA682A
:1032D000D2B21A70FB681A0A3B680D33D2B21A7068
:1032E000FB681A0C3B680E33D2B21A70FB681A0ED8
:1032F0003B680F33D2B21A7000BF1437BD465DF879
:10330000047B704780B586B002AFF860B9607A6020
:103310003B603B68042B02DD6FF0020369E0374B32
:103320001B685B08FA699A4202D96FF0020360E0F9
:10333000FB68334A934214D0FB68324A93420ED062
:10334000FB68314A934208D0FB68304A934201D16E
:10335000032307E04FF0FF3304E0022302E00123E0
:1033600000E00023032B36D801A252F823F000BF5F
:10337000813300109B330010AF330010C3330010B3
:103380000D2001F079FD062001F022FC2048FDF718
:103390009FFD2048FDF79CFD20E00E2001F06CFD14
:1033A000072001F015FC1C48FDF792FD16E00F20E8
:1033B00001F062FD082001F00BFC1848FDF788FDC4
:1033C0000CE0292001F058FD2E2001F001FC1448EA
:1033D000FDF77EFD02E06FF002030AE0FB69019356
:1033E000BB6900933B687A68B968F86800F028F90F
:1033F000034618461037BD4680BD00BF680D00204B
:1034000000600440007004400080044000E00B4075
:10341000E89C0310F49C0310009D03103C9D0310D6
:10342000789D031080B582B000AF7860786800F0B6
:10343000FFF97B681E4A934214D07B681D4A934271
:103440000ED07B681C4A934208D07B681B4A93428B
:1034500001D1032307E04FF0FF3304E0022302E031
:10346000012300E00023032B1AD801A252F823F015
:103470008134001089340010913400109934001008
:10348000062001F0A5FB0EE0072001F0A1FB0AE0F9
:10349000082001F09DFB06E02E2001F099FB02E0E0
:1034A0006FF0020300E0002318460837BD4680BDD8
:1034B00000600440007004400080044000E00B40C5
:1034C00080B483B000AF78607B68184A934210D014
:1034D0007B68174A93420CD07B68164A934208D007
:1034E0007B68154A934204D1144B1B6823F00103F7
:1034F00015E07B680D4A93420BD07B680C4A9342DF
:1035000007D07B680B4A934203D07B680A4A9342F8
:1035100003D10A4B1B685B0801E06FF002031846F9
:103520000C37BD465DF8047B704700BF0060044067
:10353000007004400080044000E00B40680D002053
:1035400080B582B000AF786039603968786800F083
:1035500035FA034618460837BD4680BD80B582B0AF
:1035600000AF786039603968786800F08FFA0346F8
:1035700018460837BD4680BD80B582B000AF786080
:10358000786800F0FDFA034618460837BD4680BD4E
:1035900080B582B000AF78600B46FB70FB781946AF
:1035A000786800F005FB034618460837BD4680BD25
:1035B00080B582B000AF78600B46FB70FB7819468F
:1035C000786800F031FB034618460837BD4680BDD9
:1035D00080B584B000AFF860B9607A607A68B96885
:1035E000F86800F071FB034618461037BD4680BDF1
:1035F00080B582B000AF7860786800F0C7FB034602
:1036000018460837BD4680BD80B584B000AFF8606D
:10361000B9607A607A68B968F86800F0C6FB03465A
:1036200018461037BD4680BD80B582B000AF7860C7
:10363000786800F018FC034618460837BD4680BD80
:1036400080B586B000AFF860B9607A603B60FB6817
:10365000714A934214D0FB68704A93420ED0FB68C3
:103660006F4A934208D0FB686E4A934201D103230C
:1036700007E04FF0FF3304E0022302E0012300E003
:1036800000237B617B69002B02DA6FF00203BEE04E
:1036900065497A6913469B001344DB000B44002202
:1036A0001A6061497A6913469B001344DB000B449E
:1036B000083300221A605C497A6913469B00134460
:1036C000DB000B440C3301221A6057497A69134618
:1036D0009B001344DB000B44103300221A60524954
:1036E0007A6913469B001344DB000B441C33002211
:1036F0001A604D497A6913469B001344DB000B4462
:10370000203300221A6048497A6913469B0013440B
:10371000DB000B4414336FF001021A6042497A69EE
:1037200013469B001344DB000B4418336FF0010277
:103730001A603D497A6913469B001344DB000B4431
:10374000273301221A70FB6801225A60FB68374A4E
:103750001A61BB68002B06D0FB685B6843F002026D
:10376000FB685A6005E0FB685B6823F00202FB68B7
:103770005A60796AF868FFF7E3FE3B6AFF2B02D9CB
:103780006FF0020343E0FB68DA683B6A1B041A43EC
:10379000FB68DA60FB681A6AFB681A6222497A6978
:1037A00013469B001344DB000B4427331B78002B8C
:1037B00023D03B68012B05D1FB685B6843F4803262
:1037C000FB685A603B68022B05D1FB685B6843F4D9
:1037D0004032FB685A603B68032B05D1FB685B688D
:1037E00043F4E022FB685A603B68042B05D1FB6878
:1037F0005B6843F47022FB685A607B68002B05D03D
:10380000FB68DB6843F40052FB68DA60002318466B
:103810001837BD4680BD00BF006004400070044002
:103820000080044000E00B4028130020010101004B
:1038300080B584B000AF78607B685B4A934214D057
:103840007B685A4A93420ED07B68594A934208D00B
:103850007B68584A934201D1032307E04FF0FF33BE
:1038600004E0022302E0012300E00023FB607B6808
:1038700000225A627B681A6A7B681A627B685B68FE
:1038800023F001027B685A607B68DB6923F04012F9
:103890007B68DA614849FA6813469B001344DB00F1
:1038A0000B441B68002B2AD04349FA6813469B003F
:1038B0001344DB000B441B68BB60FA6813469B0093
:1038C0001344DB003C4A1344184601F046F93A49D8
:1038D000FA6813469B001344DB000B441B685B6AC9
:1038E000002B0CD03449FA6813469B001344DB00CC
:1038F0000B441B685B6A6FF00E01B86898477B68E1
:1039000000225A607B6800229A607B680022DA609D
:103910007B6800221A612849FA6813469B00134409
:10392000DB000B4414331B68002B16DB2249FA68BA
:1039300013469B001344DB000B4414331B681846EA
:10394000FDF72CF91C49FA6813469B001344DB0071
:103950000B4414336FF001021A601749FA681346DA
:103960009B001344DB000B4418331B68002B16DB51
:103970001149FA6813469B001344DB000B441833CB
:103980001B681846FDF70AF90B49FA6813469B00B5
:103990001344DB000B4418336FF001021A6000235C
:1039A00018461037BD4680BD0060044000700440DA
:1039B0000080044000E00B402813002080B586B052
:1039C00000AF78603960304B1B685B083A689A42F8
:1039D00002D96FF0020353E07868FFF771FD0346E8
:1039E000BB60BA683B68B2FBF3F3BB60BB685B08C3
:1039F0007B61BB685B083B610023FB60BB6803F035
:103A00000103002B10D07B6901337B610CE07B69E3
:103A1000DA0F13445B107B613B69DA0F13445B10D0
:103A20003B61FB680133FB607B690F2B02DDFB68A8
:103A3000072BECDDFB68082B03D10F233B610F2321
:103A40007B617B685B6923F0FF023B69DBB21A4351
:103A50007B685A617B685B6923F47F427B691B0248
:103A60009BB21A437B685A617B685B6923F47022BE
:103A7000FB681B0403F470231A437B685A6100231C
:103A800018461837BD4680BD680D002080B485B04B
:103A900000AF786039603B68012B02D03B68102B87
:103AA00002DD6FF002035AE07B68304A934214D083
:103AB0007B682F4A93420ED07B682E4A934208D0EF
:103AC0007B682D4A934201D1032307E04FF0FF3377
:103AD00004E0022302E0012300E00023FB607B6896
:103AE0001B6B03F00103002B37D12449FA681346FE
:103AF0009B001344DB000B440C331B68012B2CD1BF
:103B00007B685B6823F001027B685A6039681B4858
:103B1000FA6813469B001344DB0003440833196022
:103B20003B680F2B0BDC7B68DB6823F470623B681F
:103B30001B0203F470631A437B68DA6005E07B685C
:103B4000DB6823F470627B68DA607B685B6843F053
:103B500001027B685A60002301E06FF006031846FB
:103B60001437BD465DF8047B704700BF0060044019
:103B7000007004400080044000E00B402813002047
:103B800080B483B000AF78607B68DB6803F4706357
:103B9000002B01D1102304E07B68DB681B0A03F0D3
:103BA0000F0318460C37BD465DF8047B70470000D4
:103BB00080B483B000AF78600B46FB707B68DB6835
:103BC00023F430427B68DA60FB78032B24D801A20F
:103BD00052F823F0E53B0010F33B0010FD3B0010D2
:103BE0000B3C00107B68DB6843F400427B68DA60C2
:103BF00012E07B68DA687B68DA600DE07B68DB687E
:103C000043F480527B68DA6006E07B68DB6843F44B
:103C100000527B68DA6000BF002318460C37BD46AF
:103C20005DF8047B704700BF80B483B000AF78605C
:103C30000B46FB70FB78032B3ED801A252F823F011
:103C4000513C00106B3C0010853C00109F3C001064
:103C50007B68DB6823F001027B68DA607B68DB68E5
:103C600023F002027B68DA6027E07B68DB6843F0C0
:103C700001027B68DA607B68DB6823F002027B6804
:103C8000DA601AE07B68DB6823F001027B68DA60A7
:103C90007B68DB6843F002027B68DA600DE07B68DA
:103CA000DB6843F001027B68DA607B68DB6843F025
:103CB00002027B68DA6000E000BF002318460C3780
:103CC000BD465DF8047B704780B588B000AFF860F2
:103CD000B9607A60BB68002B02D07B68002B01D1F1
:103CE00000234FE0F868FFF783FCB861F868FFF73E
:103CF00043FC03467B617A68BB699A4201D9BB6980
:103D00007B607B69082B03D97B6823F001037B6010
:103D10000023FB6132E07B69082B23D97B68032BEE
:103D20000CD9BA68FB691344FA6812681A607B6898
:103D3000043B7B60FB690433FB610FE07B68012B74
:103D40000CD9BA68FB691344FA68128892B21A80D7
:103D50007B68023B7B60FB690233FB617B68012B64
:103D60000CD10EE0FB695A1CFA61BA681344FA6878
:103D70001278D2B21A707B68013B7B607B68002BA3
:103D8000C9D1FB6918462037BD4680BD80B483B0D9
:103D900000AF78607B68DB691B0E03F03F031846B9
:103DA0000C37BD465DF8047B704780B588B000AF26
:103DB000F860B9607A60BB68002B02D07B68002B8A
:103DC00001D100234BE0F868FFF72EFCB861F868DA
:103DD000FFF7D2FB03467B617A68BB699A4201D93F
:103DE000BB697B607B69082B03D97B6823F00103E7
:103DF0007B600023FB612EE07B69082B20D97B6868
:103E0000032B0CD9FB68B968FA690A4412681A6076
:103E10007B68043B7B60FB690433FB611BE07B68D0
:103E2000012B18D9FB68B968FA690A44128892B262
:103E30001A807B68023B7B60FB690233FB610AE00E
:103E4000FB695A1CFA61BA6813441A78FB681A7045
:103E50007B68013B7B607B68002BCDD1FB691846FA
:103E60002037BD4680BD80B483B000AF78607B68EA
:103E7000DB691B0A03F03F03C3F1200318460C372C
:103E8000BD465DF8047B704780B582B000AF7860B6
:103E900039601E2000F09CFE1F2000F099FE2C20AF
:103EA00000F096FE0948FDF713F83B687A68084968
:103EB000084800F03DF8074B9B68064A43F00103B1
:103EC0009360002318460837BD4680BDB49D03109B
:103ED000006002400070024080B584B002AF78609C
:103EE0000B46FB70FB7800937B68054A0549064842
:103EF00000F070F8034618460837BD4680BD00BF85
:103F000000C00B40006002400070024080B582B0EB
:103F100000AF78607A680449044800F0CDF80346A1
:103F200018460837BD4680BD00C00B4000700240F7
:103F300080B584B000AFF860B9607A603B60244B14
:103F400000221A60224B00225A60FB6800229A600D
:103F5000F86800F033FCF86800F041FCB968F868D4
:103F600000F0D1FB3A68B968F86800F03DFA002229
:103F7000B968F86800F026FB0022B968F86800F01C
:103F800045FB7B68DBB21946B86800F0ECFB00210A
:103F9000B86800F05FFB0021B86800F073FB0021F7
:103FA000B86800F087FBB86800F09CFB0022B96895
:103FB000F86800F0DEF90321F86800F0E9FBB96861
:103FC000F86800F0F9F9002318461037BD4680BDA7
:103FD000C813002080B588B000AFF860B9607A607F
:103FE0003B600123FB833B68BB613B68002B01D135
:103FF00000235BE001212F4800F088FD0346002BE1
:1040000002D06FF0050351E000BFFB68DB6803F4EA
:10401000F853002BF9D1B968F86800F08CFB7B6885
:104020007B610DE07B69FA8B1A807B694FF47042EB
:104030001A807B694FF470421A803B68203B3B60DA
:104040003B68202BEED83B68002B20D03B681F2B11
:1040500006D83B689BB21B019AB2FB8B1343FB83D0
:1040600097F828305B031AB2B7F91E3013431BB21E
:10407000FB837B69FA8B1A803B68102B03D97B6921
:104080004FF470421A807B694FF470421A8000BF6F
:10409000FB68DB6803F4F853002BF9D1B968F868C2
:1040A00000F031FB034800F058FDBB69184620378B
:1040B000BD4680BDC813002080B58AB000AFF8604F
:1040C000B9607A607B681B69002B01D1002327E16E
:1040D0000121914800F01AFD0346002B02D06FF039
:1040E00005031DE17B6800225A617B6800229A610A
:1040F000894B00225A607B689B68002B14BF012308
:104100000023DBB27B777B685B68002B14BF012345
:104110000023DBB23B77BB68BB617B681B697B62BA
:10412000ECE03B7F1AB27B7F5B001BB213431AB2F9
:104130007B681B7B5B021BB213431BB2FB837B6A56
:104140001F2B42DD7B6A202B0CD17B681B785B0325
:104150009AB2FB8B13439BB243F00403FB832023EF
:104160003B6227E0FB8B43F00803FB837B6A002B59
:1041700000DA1F335B117B617B691F2B03D94FF47E
:1041800080633B6209E07B699BB21B019AB2FB8BA7
:104190001343FB837B695B013B623B6A7A6A9A4209
:1041A00008D17B681B785B031AB2B7F91E30134342
:1041B0001BB2FB83BB69FA8B1A803B6A564A536079
:1041C0007A6A3B6AD31A7B6294E07B6A1B011BB25A
:1041D00043F004031AB27B681B785B031BB21343E2
:1041E0001AB2B7F91E3013431BB2FB83BB69FA8BBB
:1041F0001A80494A7B6A536000237B627AE03B7FE6
:10420000002B3AD000BFFB68DB681B0A03F01F03DA
:104210000E2BF8D8404B5B68012B1ADD7B685A687F
:104220007B689B69013313441B781B021AB27B68BD
:1042300059687B689B690B441B781BB213431BB204
:104240009AB2BB691A807B689B699A1C7B689A61E9
:1042500013E07B685A687B689B6913441B781BB228
:104260006FEA03536FEA13531BB29AB2BB691A8009
:104270007B689B695A1C7B689A617B7F002B2BD0E3
:10428000254B5B68012B14DD00233B617B689A683A
:104290007B685B691A440123B969F86800F044F847
:1042A00038613B69012BF1D17B685B695A1C7B68E3
:1042B0005A617B689A687B685B691A440123B96913
:1042C000F86800F031F838613B69012BF1D17B6867
:1042D0005B695A1C7B685A610F4B5B68012B04DDDC
:1042E0000D4B5B68013B0C4A53600B4B5B68013B19
:1042F000094A5360084B5B68002B80D17B6A002B16
:104300007FF40FAF044800F028FC3B7F002B05D062
:104310007B689B6904E000BFC81300207B685B6971
:1043200018462837BD4680BD80B487B000AFF8601E
:10433000B9607A603B6000237B6109E07B697A6841
:104340001344BA681279D2B21A707B6901337B6167
:10435000FB68DB6803F07C53002B03D03A687B6971
:104360009A42EBD17B6918461C37BD465DF8047B49
:10437000704780B485B000AFF860B9601346FB7138
:10438000BB681B6823F00302FB7903F003031A43A5
:10439000BB681A60FB681B6823F03002FB791B01C5
:1043A00003F030031A43FB681A60002318461437E1
:1043B000BD465DF8047B704780B483B000AF786081
:1043C00039603B681B6843F004023B681A607B68F5
:1043D0005B6823F001027B685A60002318460C37A3
:1043E000BD465DF8047B704780B588B000AFF860CB
:1043F000B9607A60544B1B687A689A4202D96FF0B0
:1044000002039DE0504B1A687B68B2FBF3F3BB617B
:10441000BB695B08FB61BB695B087B61BB6903F03F
:104420000103002B02D0FB690133FB61BB68002B49
:1044300038D0FB69002B10D1BB681B6823F4706374
:1044400043F48072BB681A60BB681B6823F4704336
:1044500043F48052BB681A6024E0FB690F2B0CD92F
:10446000BB681B6843F47062BB681A60BB681B685A
:1044700043F47042BB681A6014E0BB681B6823F405
:1044800070627B691B0203F470631A43BB681A6095
:10449000BB681B6823F47042FB691B039BB21A4381
:1044A000BB681A60FB68002B38D0FB69002B10D169
:1044B000FB681B6823F4704343F48052FB681A6066
:1044C000FB681B6823F4706343F48072FB681A6016
:1044D00024E0FB690F2B0CD9FB681B6843F4704286
:1044E000FB681A60FB681B6843F47062FB681A6023
:1044F00014E0FB681B6823F470427B691B039BB2CA
:104500001A43FB681A60FB681B6823F47062FB693E
:104510001B0203F470631A43FB681A60FB68002BEC
:1045200004D0F86800F030F8034609E0BB68002BBF
:1045300004D0B86800F00AF8034601E06FF0020307
:1045400018462037BD4680BD680D002080B485B078
:1045500000AF78607B681B681B0B03F00F03FB60E8
:10456000FB68002B01D11023FB60064B1A68FB6827
:104570005B00B2FBF3F318461437BD465DF8047BCD
:10458000704700BF680D002080B485B000AF786030
:104590007B681B681B0A03F00F03FB60FB68002BA2
:1045A00001D11023FB60064B1B685A08FB685B00B7
:1045B000B2FBF3F318461437BD465DF8047B704731
:1045C000680D002080B485B000AFF860B960134674
:1045D000FB71BB681B6823F44032FB791B0403F4B6
:1045E00040331A43BB681A60FB681B6823F44032EF
:1045F000FB791B0403F440331A43FB681A60002361
:1046000018461437BD465DF8047B704780B485B00A
:1046100000AFF860B9601346FB71BB681B6823F4F8
:104620004022FB799B0403F440231A43BB681A60C1
:10463000FB681B6823F44022FB799B0403F44023AE
:104640001A43FB681A60002318461437BD465DF80C
:10465000047B704780B483B000AF78600B46FB707A
:104660007B685B6823F44072FB781B0203F44073A1
:104670001A437B685A60002318460C37BD465DF824
:10468000047B704780B483B000AF78600B46FB704A
:104690007B685B6823F44062FB789B0203F4406311
:1046A0001A437B685A60002318460C37BD465DF8F4
:1046B000047B704780B483B000AF78600B46FB701A
:1046C0007B685B6823F44052FB781B0303F4405380
:1046D0001A437B685A60002318460C37BD465DF8C4
:1046E000047B704780B483B000AF78607B685B6800
:1046F00023F480327B685A60002318460C37BD468D
:104700005DF8047B704780B483B000AF7860396097
:104710003B681B6943F001023B681A617B689B6838
:1047200043F080727B689A60002318460C37BD46C0
:104730005DF8047B704780B483B000AF7860396067
:104740003B681B6923F001023B681A617B689B6828
:1047500023F080727B689A60002318460C37BD46B0
:104760005DF8047B704780B483B000AF78600B467F
:10477000FB707B685B6823F0FF02FB781A437B6861
:104780005A60002318460C37BD465DF8047B70471D
:1047900080B483B000AF78600B46FB707B681B6809
:1047A00023F0C002FB789B01DBB21A437B681A60DE
:1047B00000BF0C37BD465DF8047B704780B483B002
:1047C00000AF78607B689B6843F004027B689A6066
:1047D000002318460C37BD465DF8047B704780B453
:1047E00083B000AF78607B689B6843F002027B680F
:1047F0009A60002318460C37BD465DF8047B70476D
:1048000080B483B000AF78607B68D3F8003143F0A8
:1048100001027B68C3F8002100BF0C37BD465DF87C
:10482000047B704780B483B000AF78607B68D3F8B6
:10483000003123F001027B68C3F8002100BF0C3770
:10484000BD465DF8047B704780B500AF0F4B1B6819
:1048500003F48033002B16D00D4B1B68002B05DDB5
:104860000B4B1B68013B0A4A13600CE000F0F6F8A2
:10487000084B1B68002B06D0064B1B68002098478E
:10488000044B00221A6000BF80BD00BF10E000E0B2
:1048900000000020D81300202DE9B04386B000AFFF
:1048A00078603649896879613449096821F4803132
:1048B000334801603149096801F00101002911D133
:1048C0002E496FF07F4048602C496FF07F40886030
:1048D0002A49052008606FF07F4179614FF08071AF
:1048E000396103E02549496801313961796800205F
:1048F000884681462349096800200A46034602FB90
:1049000009F008FB03F10144A8FB02454B191D46C1
:104910001D4A4FF000032046294628F037FB024687
:104920000B461346FB60FA683B69B2FBF3F31A4689
:10493000164B1A60FB683A69B3FBF2F2396901FB66
:1049400002F29B1ABB60BA687B699A420CD30F4B88
:104950001B6801330D4A13607A69BB68D21A3B6940
:1049600013440B4A136004E07A69BB68D31A084AFF
:10497000136000BF1837BD46BDE8B08310E000E00B
:10498000D4130020680D002040420F0000000020DA
:10499000D013002080B582B000AF78603960104A33
:1049A0003B6813600F4B1B68002B02DD6FF00503A3
:1049B00012E07B68002B01D100230DE07868FFF73F
:1049C0006BFF084B1B68002B05DD074B1B68064A75
:1049D00043F002031360002318460837BD4680BD2C
:1049E000D81300200000002010E000E080B500AFE8
:1049F000164B1B68002B0CDA154B1B68002B06D0DE
:104A0000134B1B6800209847114B00221A600023AB
:104A10001AE00E4B1B68002B14D10E4B9A680E4BFC
:104A20001B689A420ED800F019F8094B1B68002B3E
:104A300006D0074B1B6800209847054B00221A60E0
:104A4000002301E06FF00503184680BD0000002040
:104A5000D813002010E000E0D013002080B500AF94
:104A60000A4B1B68002B07D0084B1B686FF00F0028
:104A70009847064B00221A60054A064B1B681360D4
:104A8000054B4FF0FF321A6000BF80BDD8130020E5
:104A900010E000E0D41300200000002080B582B0B8
:104AA00000AF7860164B1B68002B02DD6FF005032A
:104AB00021E07B68002B01D100231CE07868FFF720
:104AC000EBFE0AE00F4B1B6803F48033002B04D08D
:104AD0000B4B1B68013B0A4A1360094B1B68002BF8
:104AE000F0DC00BF074B9A68074B1B689A42F9D865
:104AF000FFF7B4FF002318460837BD4680BD00BF4E
:104B00000000002010E000E0D013002080B489B045
:104B100000AF786039607B68FB61FB6953E8003F58
:104B2000BB61BB69002B02D06FF005030FE03B684F
:104B30007B617B683B6139697A6941E80023FB60EE
:104B4000FB68002BE7D1BFF35F8F00BF002318463F
:104B50002437BD465DF8047B704780B483B000AF56
:104B60007860BFF35F8F00BF7B6800221A6000BFD0
:104B70000C37BD465DF8047B704780B483B000AF4E
:104B80000346FB71FB791F2B0FD9FB79203BFB718F
:104B90004FF080439B6CFA79012101FA02F2114631
:104BA0004FF080420B4393640BE04FF080435B6A0D
:104BB000FA79012101FA02F211464FF080420B43CB
:104BC0005362002318460C37BD465DF8047B7047DE
:104BD00080B483B000AF0346FB71FB791F2B10D963
:104BE000FB79203BFB714FF080439B6CFA790121EC
:104BF00001FA02F2D24311464FF080420B40936417
:104C00000CE04FF080435B6AFA79012101FA02F26D
:104C1000D24311464FF080420B40536200231846A6
:104C20000C37BD465DF8047B7047000080B584B04A
:104C300000AF0346FB714FF080439B6803F4606351
:104C4000FB60FB79062B00F2968001A252F823F05C
:104C50006D4C0010774D0010414D0010A34C00101A
:104C6000CD4C0010074D0010414D00104FF0804317
:104C70009B684FF0804243F4802393604FF0806044
:104C800000F0DAF80346002B02D06FF00903CFE002
:104C90004FF080439B684FF0804223F46063936041
:104CA0006CE04FF0005000F0C7F80346002B02D034
:104CB0006FF00903BCE04FF080439B6823F460630E
:104CC0004FF0804243F4C063936057E04FF080435D
:104CD0009B684FF0804243F4002393604FF00060E4
:104CE00000F0AAF80346002B02D06FF009039FE002
:104CF0004FF080439B6823F460634FF0804243F49D
:104D0000006393603AE04FF080439B684FF080422D
:104D100043F4801393604FF0805000F08DF8034609
:104D2000002B02D06FF0090382E04FF080439B68B4
:104D300023F460634FF0804243F4206393601DE0EE
:104D40004FF080439B684FF0804243F40033936000
:104D50004FF0007000F070F80346002B02D06FF0A7
:104D6000090365E04FF080439B684FF0804223F4D5
:104D70006063936002E06FF0020359E04FF400506B
:104D800000F05AF80346002B0ED04FF080439B688A
:104D900023F46062FB6803F460634FF080411343C7
:104DA0008B606FF0090343E0FB79062B3DD801A22D
:104DB00052F823F0D14D00102B4E0010194E001068
:104DC000E34D0010F54D0010074E0010194E001075
:104DD0004FF080439B684FF0804223F4D0139360E0
:104DE00023E04FF080439B684FF0804223F4F013A0
:104DF00093601AE04FF080439B684FF0804223F4A9
:104E0000B013936011E04FF080439B684FF08042F5
:104E100023F46023936008E04FF080439B684FF0D9
:104E2000804223F4E013936000BFFBF70DFA0023E8
:104E300018461037BD4680BD80B582B000AF78609F
:104E400000214FF47A70FFF7A5FD4FF080439A6878
:104E50007B681340002B03D0FFF700FE002307E020
:104E6000FFF7C4FD034613F1060FEED06FF0090300
:104E700018460837BD4680BD80B483B000AF0346F6
:104E8000FB71FB791F2B0FD9FB79203BFB71FB7961
:104E900001229A404FF080435A6400BF4FF0804394
:104EA0005B6C002BFAD10BE0FB7901229A404FF0AA
:104EB00080435A6000BF4FF080435B68002BFAD1FB
:104EC000002318460C37BD465DF8047B704780B55B
:104ED00084B000AF3B460D21184600F01DF83B782A
:104EE0009E2B94BF01230023DAB23B7803F00F031B
:104EF000092BCCBF01230023DBB21343DBB2002B11
:104F000004D04FF080431B6DDBB200E03B781846C5
:104F10001037BD4680BD000080B588B000AF786016
:104F200039603B680D2B02D06FF0020386E07B688E
:104F3000002B02D14FF0FF3380E04FF08450FBF79D
:104F400097FE4FF084531B68BB603E4B1B68FB60B1
:104F50003D4B1B683B613D4B1B687B613C4B1B68B9
:104F6000BB613C4B1B68FB614FF08450FBF790FE2C
:104F7000BB68DB0BDAB27B681A70BB68DA0D7B6842
:104F80000133D2B21A70BB68DA0F7B680233D2B237
:104F90001A707B6802331978FB68DBB25B00DAB207
:104FA0007B6802330A43D2B21A70FB68DA097B6865
:104FB0000333D2B21A70FB68DA0B7B680433D2B2C7
:104FC0001A70FB68DA0D7B680533D2B21A703B6940
:104FD000DA0B7B680633D2B21A703B69DA0D7B6854
:104FE0000733D2B21A703B69DA0F7B680833D2B24A
:104FF0001A707B68083319787B69DBB25B00DAB220
:105000007B6808330A43D2B21A707B69DA097B687D
:105010000933D2B21A707B69DA0B7B680A33D2B2D9
:105020001A707B69DA0D7B680B33D2B21A70BB69D8
:10503000DA0B7B680C33D2B21A7000231846203783
:10504000BD4680BD04008010080080100C00801058
:10505000100080101400801080B582B000AF78601E
:10506000786800F004F800BF0837BD4680BD80B402
:1050700083B000AF78607B680122DA6000BF0C3734
:10508000BD465DF8047B704780B582B000AF7860A4
:1050900000BF786800F018FA0346002BF9D0786852
:1050A00000F0C6F9034618460837BD4680BD80B5F6
:1050B00082B000AF78600B46FB7000BF786800F0EC
:1050C00035FA0346002BF9D0FB781946786800F0D2
:1050D000BBF9034618460837BD4680BD80B584B08D
:1050E00000AF78603960786800F084F8F860FB6899
:1050F000002B01D0FB6869E07B68364A93420ED0F2
:105100007B68354A934208D07B68344A934201D188
:10511000022305E04FF0FF3302E0012300E000230B
:10512000022B14D0022B19DC002B02D0012B07D04C
:1051300014E02B48FBF7CCFE0920FFF749FD10E0F7
:105140002848FBF7C5FE0A20FFF742FD09E0264884
:10515000FBF7BEFE2120FFF73BFD02E06FF00203EC
:1051600034E07B681B4A93420ED07B681A4A934214
:1051700008D07B68194A934201D1022305E04FF021
:10518000FF3302E0012300E00023184A002142F827
:1051900023107B680F4A93420ED07B680E4A9342DD
:1051A00008D07B680D4A934201D1022305E04FF0FD
:1051B000FF3302E0012300E000230D4A002142F802
:1051C00023103968786800F0A9FA034618461037AA
:1051D000BD4680BD00200440003004400040044033
:1051E000889C0310A09C0310B89C0310DC130020C3
:1051F000E813002080B582B000AF78607B681C4A5D
:1052000093420ED07B681B4A934208D07B681A4AAF
:10521000934201D1022305E04FF0FF3302E0012366
:1052200000E00023022B14D0022B19DC002B02D04B
:10523000012B07D014E00B20FFF71EFE0920FFF71B
:105240009CFC10E00C20FFF717FE0A20FFF795FCEE
:1052500009E01C20FFF710FE2120FFF78EFC02E082
:105260006FF0020300E0002318460837BD4680BDFA
:1052700000200440003004400040044080B582B06B
:1052800000AF786039603968786800F0E7FA034663
:1052900018460837BD4680BD80B582B000AF786043
:1052A000786800F0ADFB034618460837BD4680BD60
:1052B00080B582B000AF786039603968786800F0F6
:1052C0002BFC034618460837BD4680BD80B582B02A
:1052D00000AF78600B46FB70FB781946786800F0E9
:1052E0003EFC034618460837BD4680BD80B582B0F7
:1052F00000AF78600B46FB70FB781946786800F0C9
:1053000053FC034618460837BD4680BD80B584B0BF
:1053100000AFF8600B467A60FB72FB681A4A934252
:105320000ED0FB68194A934208D0FB68184A934292
:1053300001D1022305E04FF0FF3302E0012300E03A
:105340000023022B0ED0022B10DC002B02D0012BED
:1053500004D00BE00F48FBF7BBFD0AE00E48FBF75B
:10536000B7FD06E00D48FBF7B3FD02E06FF0020366
:1053700006E0FB7A7A681946F86800F0EFFC03460D
:1053800018461037BD4680BD002004400030044060
:1053900000400440949C0310AC9C0310C49C031078
:1053A00080B582B000AF78607B680B4A93420AD028
:1053B0007B680A4A934206D07B68094A934202D02E
:1053C0006FF0020303E07868FFF75EFE03461846BD
:1053D0000837BD4680BD00BF0020044000300440B7
:1053E0000040044080B582B000AF78600B46FB708F
:1053F0007B680C4A93420AD07B680B4A934206D0E2
:105400007B680A4A934202D06FF0020305E0FB7802
:1054100019467868FFF74BFE034618460837BD4625
:1054200080BD00BF00200440003004400040044024
:1054300080B582B000AF7860786800F0E1FC034688
:1054400018460837BD4680BD80B582B000AF786091
:105450000B46FB70FB781946786800F0E6FC0346C3
:1054600018460837BD4680BD80B584B000AFF860EF
:10547000B9607A607A68B968F86800F0EFFC0346B2
:1054800018461037BD4680BD80B584B000AFF860C7
:10549000B9607A607A68B968F86800F00AFD034676
:1054A00018461037BD4680BD80B584B000AFF860A7
:1054B000B9607A607A68B968F86800F024FD03463C
:1054C00018461037BD4680BD80B582B000AF786009
:1054D0007B680B4A93420AD07B680A4A934206D003
:1054E0007B68094A934202D06FF0020303E07868B8
:1054F00000F02FFD034618460837BD4680BD00BFAB
:1055000000200440003004400040044080B584B0D6
:1055100000AFF860B9607A607A68B968F86800F03E
:1055200027FD034618461037BD4680BD80B582B0C2
:1055300000AF78607B680B4A93420AD07B680A4AC6
:10554000934206D07B68094A934202D06FF002036F
:1055500003E0786800F032FD034618460837BD4680
:1055600080BD00BF002004400030044000400440E3
:1055700080B582B000AF7860786800F032FD00BF7F
:105580000837BD4680BD80B582B000AF7860396015
:105590003968786800F03DFD034618460837BD4677
:1055A00080BD80B582B000AF7860396039687868B6
:1055B00000F04EFD034618460837BD4680BD00008A
:1055C00080B582B000AF78607B680B4A93420AD006
:1055D0007B680A4A934206D07B68094A934202D00C
:1055E0006FF0020303E0786800F054FD03461846AC
:1055F0000837BD4680BD00BF002004400030044095
:105600000040044080B582B000AF786039603968EE
:10561000786800F04BFD00BF0837BD4680BD80B5FF
:1056200082B000AF786039603968786800F04DFD6D
:1056300000BF0837BD4680BD80B582B000AF78603E
:1056400039603968786800F052FD00BF0837BD4600
:1056500080BD000080B582B000AF78607B680B4AE7
:1056600093420AD07B680A4A934206D07B68094A73
:10567000934202D06FF0020303E0786800F04AFD25
:10568000034618460837BD4680BD00BF00200440D1
:10569000003004400040044080B582B000AF786024
:1056A000786800F043FD034618460837BD4680BDC4
:1056B00080B582B000AF786039603968786800F0F2
:1056C00075FE034618460837BD4680BD80B582B0DA
:1056D00000AF786039603968786800F029FE0346C9
:1056E00018460837BD4680BD80B582B000AF7860EF
:1056F00039603968786800F0DDFD034618460837E0
:10570000BD4680BD80B582B000AF7860786800F09B
:105710008FFE00BF0837BD4680BD000080B584B055
:1057200000AF7860396001217868FFF72CFFF860DE
:10573000FB68002B01D0FB6884E002217868FFF74A
:1057400030FFF860FB68002B01D0FB687AE008218D
:105750007868FFF7ADFDF860FB68002B01D0FB68AF
:1057600070E000217868FFF7C1FDF860FB68002B4E
:1057700001D0FB6866E000217868FFF7A7FDF860BC
:10578000FB68002B01D0FB685CE07B681B6843F082
:1057900001027B681A6039687868FFF76FFD7B68E3
:1057A0002A4A93420ED07B68294A934208D07B68EC
:1057B000284A934201D1022305E04FF0FF3302E073
:1057C000012300E00023BB602349BA6813465B0055
:1057D0001344DB000B440C334FF0FF321A601E49B8
:1057E000BA6813465B001344DB000B4408334FF0E8
:1057F000FF321A601849BA6813465B001344DB0095
:105800000B4400221A601449BA6813465B00134423
:10581000DB000B44043300221A600F49BA681346B8
:105820005B001344DB000B44103300221A700A495A
:10583000BA6813465B001344DB000B4414330022A8
:105840001A60002318461037BD4680BD0020044072
:1058500000300440004004400400002080B586B0C1
:1058600000AF786039607B681B6803F40043002B4D
:1058700003D04FF4E1037B6103E05F4B1B685B08DF
:105880007B617B6907EE903AF8EEE76A3B6807EECA
:10589000903AB8EE677AC6EE877AC7ED027A0823A7
:1058A0003B6116E03B6907EE903AB8EEE77AD7ED38
:1058B000026AC6EE877AB7EE007AF4EEC77AF1EEA6
:1058C00010FA03D53B695B103B6105E03B695B0067
:1058D0003B613B69802BE5DD3B69802B01DD80234B
:1058E0003B613B69072B02DC6FF0020380E03B6900
:1058F00007EE903AB8EEE77AD7ED026AC6EE877AFD
:10590000C7ED027AD7ED027AFDEEE77AF8EEE77A94
:1059100097ED027A77EE677A9FED387A67EE877AAD
:10592000FDEEE77A17EE903AFB60FB68032B03DD90
:10593000FB68033BFB6002E0FB680333FB603B69F1
:10594000802B21D03B69802B21DC3B69402B18D078
:105950003B69402B1BDC3B69202B0FD03B69202B84
:1059600015DC3B69082B03D03B69102B03D00EE0FC
:1059700004233B610EE003233B610BE002233B6108
:1059800008E001233B6105E000233B6102E06FF08A
:1059900007032DE03B691B043B617B685B6923F4D3
:1059A00040323B6903F440331A437B685A617B6899
:1059B0005B6923F47F6323F00F03D7ED027AFDEEDA
:1059C000E77A17EE902AC2F30B021A437B685A61FA
:1059D0007B689B6923F47F6323F00F03FA68C2F3AB
:1059E0000B021A437B689A617868FFF755FC0346FF
:1059F00018461837BD4680BD680D002000000043E2
:105A000080B487B000AF786000237B614FF0000363
:105A1000FB604FF000033B617B681B6803F40043AD
:105A2000002B03D04FF4E1037B6103E0384B1B688C
:105A30005B087B617B685B69C3F30B0307EE903AFD
:105A4000F8EE677A97ED037A77EE277AC7ED037A57
:105A50007B689B69C3F30B0307EE903AF8EE677A15
:105A6000C7ED047AD7ED047AB0EE087AF4EEC77A7F
:105A7000F1EE10FA11DDD7ED047AB1EE087AF4EE0A
:105A8000C77AF1EE10FA08D8D7ED047AB0EE087AAA
:105A900077EEC77AC7ED047A07E0D7ED047AB0EE67
:105AA000087A77EE877AC7ED047A97ED047ADFED0E
:105AB000196AC7EE267A97ED037A77EE277AC7ED53
:105AC000037A7B685B6903F44033C3F10703012267
:105AD00002FA03F307EE903AF8EEE77A97ED037ACD
